:020000040800F2
:10000000301B002029030008F34B00086743000859
:10001000F14B0008C11C0008295000080000000036
:10002000000000000000000000000000D94D0008A2
:10003000211E000800000000F54B0008DB4D000801
:100040004303000843030008430300084303000878
:100050004303000843030008430300084303000868
:10006000430300084303000843030008B11D0008D0
:100070004303000843030008430300084303000848
:100080004303000843030008430300084303000838
:1000900043030008291E0008430300084303000827
:1000A0004303000843030008430300084303000818
:1000B0004303000843030008430300084303000808
:1000C00043030008430300084303000843030008F8
:1000D00043030008430300084303000843030008E8
:1000E00043030008430300084303000843030008D8
:1000F00043030008430300084303000843030008C8
:1001000043030008430300084303000843030008B7
:1001100043030008430300084303000843030008A7
:100120004303000843030008430300084303000897
:100130004303000843030008430300084303000887
:1001400043030008430300084303000800000000C5
:10015000000000000000000000000000000000009F
:100160000000000000000000000000004303000841
:100170004303000843030008430300084303000847
:100180004303000843030008430300084303000837
:100190004303000800000000351E00084303000868
:1001A000411E0008430300084303000843030008FE
:1001B0004303000843030008430300084303000807
:1001C00043030008430300084303000843030008F7
:1001D000430300084303000800F002F800F094F81D
:1001E0000AA090E8000C82448344AAF10107DA4592
:1001F00001D100F089F8AFF2090EBAE80F0013F050
:10020000010F18BFFB1A43F001031847480602000C
:1002100068060200103A24BF78C878C1FAD852079D
:1002200024BF30C830C144BF04680C607047000070
:100230000023002400250026103A28BF78C1FBD8EF
:10024000520728BF30C148BF0B6070476E2900F0CD
:10025000A981702900F0EB82662905F0708065297C
:1002600005F06D80672905F06A80612905F06980D5
:1002700003681B0A28BF41F08001692900F05681FC
:10028000642900F05381752900F050816F2900F036
:100290007882782900F0B782E92900F01382E429F6
:1002A00000F01082F52900F00D82EF2900F0758230
:1002B000F82900F0B6820368DB0928BF41F080010D
:1002C000632900F0B987732900F0BE87E32900F0A5
:1002D000C987F32900F0CE87002070471FB505F0CD
:1002E00029F801F019F804000020002105F00CF8AD
:1002F000401C60600020002104F0F0FFE06000F08E
:10030000A1F81FBD10B510BD00F0D8FF1146FFF7D2
:10031000E5FF04F055FF01F0B5F803B4FFF7F2FF75
:1003200003BC01F0FFF80000094880470948004776
:10033000FEE7FEE7FEE7FEE7FEE7FEE7FEE7FEE795
:10034000FEE7FEE704480549054A064B70470000F2
:10035000454E0008D901000830070020301B00205E
:10036000300B0020300B00201CB50C46064B7B44A4
:1003700069460090204600F02EF9044600206946A8
:1003800000F03CF920461CBD8B02000010B5203A5D
:10039000C0F00B80B1E81850203AA0E81850B1E83E
:1003A0001850A0E81850BFF4F5AF5FEA027C24BFF4
:1003B000B1E81850A0E8185044BF18C918C0BDE8EB
:1003C00010405FEA827C24BF51F8043B40F8043BB4
:1003D00008BF7047D20728BF31F8023B48BF11F869
:1003E000012B28BF20F8023B48BF00F8012B7047C3
:1003F0004FF0000200B5134694469646203922BFBE
:10040000A0E80C50A0E80C50B1F12001BFF4F7AF08
:10041000090728BFA0E80C5048BF0CC05DF804EBEA
:10042000890028BF40F8042B08BF704748BF20F858
:10043000022B11F0804F18BF00F8012B7047704756
:100440007047704770B5064C7C44064D7D4403E010
:10045000206820448047241DAC42F9D170BD0000C3
:10046000540502005405020070B504468569006811
:10047000C10601D5302600E02026C00707D070BD98
:10048000D4E9012130469047206A401C20626D1E4D
:10049000F6D570BD70B5044685690078C00707D1F0
:1004A00070BDD4E9012120209047206A401C2062C1
:1004B0006D1EF6D570BD09684A0501D540B270477A
:1004C000C905FCD500B2704709684A0501D5C0B21C
:1004D0007047C905FCD580B2704770B50C4605461B
:1004E000012A05D02878800600D5EA69002302E0B9
:1004F000012305E05B1C934202D2E05C0028F9D1A5
:10050000A869E618C01AA861286A18442862284613
:10051000FFF7AAFF04E0D5E9012114F8010B904789
:10052000B442F8D32846FFF7B5FF70BD2DE9F0417E
:100530000646002410687529314616A510D0FFF72D
:10054000BAFF002802DA404213A507E031688A07A3
:1005500001D512A502E0490704D511A5012401E047
:10056000FFF7B2FF00210A2206F1240709E0B0FBE1
:10057000F2FCB0FBF2F302FB1C003030785418465A
:10058000491C0028F3D123462A463046BDE8F041F5
:1005900000F061BA000000002D0000002B000000F8
:1005A0002000000011680268006A530501D5087038
:1005B0000AE0D30501D5088006E0130603D5C2176B
:1005C000C1E9000200E008600120704701694A1C8F
:1005D00002610878704700B58FB0CDE90131002184
:1005E000059105497944CDE903101146684600F0AC
:1005F00029F90FB000BD0000E5FFFFFF0A6802F80F
:10060000010B0A60704700002DE9FF5F15468A461E
:100610000446DFF8AC80F8440027D8E900103E46D5
:10062000CDE9001010E03AF816106A4602A800F072
:1006300025FE411C07D02178890603D5E2693918C7
:1006400091420DD80744761C2078800602D5E069D7
:10065000B84205DDAE42E6DB3AF816000028E2D1EA
:10066000A069C01BA0612046FFF7FEFED8E900107C
:10067000CDE90010002017E03AF818106A4602A8E9
:1006800000F0FCFDB0F1FF3F81460BD000250DF1DD
:10069000080B05E0D4E901211BF8050090476D1C0B
:1006A0004D45F7D308F10100B0428046E4DB206AF3
:1006B000384420622046FFF7EDFEBDE8FF9F0000B2
:1006C0003E0102002DE9F0418046D21D22F00702D2
:1006D0000025D2E90002F52915A614D0011E72F1F9
:1006E000000106DA0023D0EB030063EB020211A63F
:1006F00008E0D8F800108B0701D50FA602E04907E3
:1007000001D50EA601251146002408F1240704E0B6
:1007100000F05CF930323A55641C50EA0102F7D11E
:100720002B46324621464046BDE8F04100F093B9E1
:10073000000000002D0000002B0000002000000041
:1007400030B4002100F1240408E002F00705D208CB
:10075000303542EA4372DB086554491C52EA03050E
:10076000F3D10468002310A2250707D5A40600D4FE
:1007700021B1C46901230DA2641EC46130BC00F024
:100780006AB910B5044621461068FFF79DFE02467F
:100790002046BDE810400023D2E7D21D22F0070119
:1007A000D1E90023CCE70000000000003000000089
:1007B000F0B40D460188090502D5214C7C4402E0C5
:1007C0001F4C7C440E34002100F1240608E002F0A6
:1007D0000F071209E75D42EA03721B097754491CAF
:1007E00052EA0307F3D102780023120704D5702DD3
:1007F00006D009B1022311342246F0BC00F02BB917
:1008000001231034F8E770B504460D462146106800
:10081000FFF75AFE024629462046BDE870400023F5
:10082000C6E7D21D22F00703D3E90023C0E703681F
:10083000126843F0200303600823C3610023B7E775
:10084000A0FF01002DE9F05F894604464FF0000A41
:10085000DFF874B1FB44C0F820A02046E168884767
:10086000002874D0252806D0D4E901219047206AB9
:10087000401C2062F1E700265F462046E168884779
:100880002028054607DB312D05D2781910F8200CF9
:1008900008B10643F1E7B00701D526F00406C4F815
:1008A0001CA00027C4F818A02A2D09D0284604F05F
:1008B000FDFB38B304EB8708303DC8F8185019E049
:1008C00059F8041B204604EB87029161E1688847D0
:1008D000012F054618D1E069002820DA26F020060D
:1008E0001DE0D8F8180000EB800005EB4000303820
:1008F000C8F818002046E1688847054604F0D6FB92
:100900000028EED1012F0AD02E2D08D12046E16813
:1009100088477F1C0546022F46F02006C4DBA069ED
:10092000002803DA404246F00106A061F00701D03A
:1009300026F010066C2D0BD0682D09D04C2D39D027
:100940006A2D35D0742D35D07A2D33D016E038E0AD
:10095000E1682F4620468847B842054609D16C2FEA
:1009600026D04FF48060E16806432046884705465C
:1009700004E06C2F1AD04FF4807006430DB3A5F13C
:100980004100192802D8203546F400664A46294617
:10099000204626604E46FFF759FC80B101280BD057
:1009A000F61D26F0070000F1080956E74020E4E7AD
:1009B0008020D8E70020D6E706F104094DE7284655
:1009C00052E7206ABDE8F09F30FF010030B5B0F17A
:1009D0000A024FEA900E71F100034EEA817EB0EBFD
:1009E0000E0061EB91014FEA101E4EEA017E10EB02
:1009F0000E0041EB11114FEA102E4EEA016E10EB82
:100A00000E0041EB11214FEA104E4EEA014E10EB61
:100A10000E0041EB1141401841F100014FEAD000B6
:100A200040EA41704FEAD10110EB80054FEA8104A2
:100A300044EA907444EB01046D1944EB0404521B26
:100A4000A3414FF0000348BF0A3200D530BD401C1F
:100A500041F1000130BD2DE9F0470D46994692461F
:100A6000044600F124080168880604D5E06921F0F5
:100A70001001216000E00120A84201DD471B00E0D9
:100A80000027A1697A1902EB0900081AA0612078F1
:100A9000C00602D42046FFF7E7FC002608E0D4E9B0
:100AA00001211AF806009047206A401C761C20623B
:100AB0004E45F4DB2078C0060AD52046FFF7D4FC6B
:100AC00006E0D4E9012130209047206A401C2062D2
:100AD000381EA7F10107F4DC07E0D4E9012118F87A
:100AE00005009047206A401C2062281EA5F10105E0
:100AF000F3DC2046FFF7CEFC2078000602D502206A
:100B0000BDE8F0870120FBE770472DE9FF4F0C4659
:100B10001E464FF0FF378BB0D2E90001DDF8608050
:100B20000A908A46C1F30A5505B93D460021084698
:100B30004FF00000BAF1000F00F4400005DA00EBBE
:100B400080004FF4400101EA50004FEA9059B9F19A
:100B5000010F00DDB9460A9850EA4A000ED044F66B
:100B60001050A5F2FF3545432F14B8F1000F1ED0E9
:100B70007542291E1EDDC9F100021CE0B8F1010F0B
:100B80004FF0000001D0302103E0F24305E0215492
:100B9000401CB042FBDB30460022002121540B995F
:100BA000C1F80880C1E900200FB0BDE8F08FBD1B7F
:100BB0006D1CDEE74A4600DA694206A800F0F0FB49
:100BC00006AB93E8070003AB83E8070050460A9999
:100BD00000F0AEFC8DE80700A0F500501F38009033
:100BE0000398002D0ADD42F21F014A460844002303
:100BF00003A90390684600F017FF09E0A0F5005034
:100C00004A461F38002303A90390684600F021FFDD
:100C10008DE807000004000C03D04FF0FF304108BE
:100C200000E01046B8F1000F03D0002200921546F4
:100C30001EE0751E05D4FFF7C9FE303262556D1EE9
:100C4000F9D5B3460122084302D000227F1C04E0FC
:100C50002078302801D100227F1E002A099784D0F5
:100C60001DE0112D07DAFFF7B1FE303262556D1C21
:100C700050EA0102F5D1084302D00098C8B10EE055
:100C80000021681E05E0235C625C63542254401E10
:100C9000491C8142F7DBAB46A81B401E099000208F
:100CA00004F80B000B98099AC0F80880C0E9002BE3
:100CB0007AE711264FF0000857E72DE9F04F8846F4
:100CC0000446D21D22F0070191B0D1E90001CDE91F
:100CD0000A0104F0AAF902460B98C00F01D02D209A
:100CE00007E02068810701D52B2002E0202101EADE
:100CF000C000032A099001D0072A05DB03464146BC
:100D0000204600F00DFB0BE12078800601D5E0695C
:100D100000E00620B8F1650F814606D0B8F1660FF5
:100D200018D0B8F1670F70D131E00020B9F1110F80
:100D3000009001DB112301E009F101030AAA01A9D6
:100D40000CA8FFF7E2FEDDE90C70002609F10105B1
:100D5000834647E001204B4600904FF000470AAA27
:100D600001A90CA8FFF7D1FEDDE90DB00C995D4695
:100D7000002610B909F101000D18B9EB050003D4E4
:100D8000C0F1FF3609F10105A5EB09002BE0B9F12F
:100D9000010F01DA4FF001090020B9F1110F0090A5
:100DA000484601DD112300E003460AAA01A90CA868
:100DB000FFF7ABFEDDE90C704D4600268346207838
:100DC00000070AD4AB4500DA5D4601A8012D04DD19
:100DD000411911F8011C302907D04F4502DA17F1EB
:100DE000040F04DA012082460FE06D1EEEE7002FAB
:100DF00002DCED1B3E4403E0781CA84200DD7D1CB4
:100E0000B81B00F1010A4FF000472078000703D417
:100E1000AA4501DB4FF0FF3A0021B7F1004F0DF179
:100E200043088DF8431024D002202B23002F01DA31
:100E30007F422D230A21021EA0F1010000DC5FB1D8
:100E400097FBF1FC97FBF1F201FB1C7C17460CF1C0
:100E5000300C08F801CDEEE7A8F1010003702188FD
:100E6000090501D5452100E06521A0F1010800F840
:100E7000011C09980FA9A1EB0807FF1D00B1012073
:100E8000411901EBEA70A1693844081A401EA061BB
:100E90002078C00602D42046FFF7E6FA099828B168
:100EA000D4E901219047206A401C20622078C006C6
:100EB00022D52046FFF7D8FA1EE0002E04DBB3450A
:100EC00002DD01A8805D00E03020D4E901219047D7
:100ED000206A401C2062761CAAF101005FEA000A29
:100EE0000AD100F019FAC0680168405CD4E9012118
:100EF0009047206A401C2062281EA5F10105DCDC19
:100F000007E0D4E9012118F8010B9047206A401C42
:100F10002062381EA7F10107F3DC2046FFF7BAFA7A
:100F2000032011B041E600002DE9F04F04460D46C4
:100F3000D21D22F0070089B0D0E900974846394613
:100F400004F073F80246F80F01D02D2307E0206863
:100F5000810701D52B2302E0202101EAC0038DF88F
:100F600020300BB1012000E00020032A824601D08E
:100F7000072A04DB2946204600F0D2F93FE1207819
:100F8000800601D40D2500E0E569C7F30A560D2D52
:100F900049DA00214FEA175B08464FF00000002FA6
:100FA00000F4400007DA00EB80004FF4400100EB52
:100FB000D07001EA60008115012901DD4FF0FF3199
:100FC00000224FEA850CBCF1180F06D31346ACF192
:100FD00018004FF08052C24003E04FF4801323FA10
:100FE0000CF30CF10C0CBCF1200F04D3ACF1200C71
:100FF00009FA0CF001E007FA0CF000294FF0004864
:1010000001DD18B90FE00ED140450CD319EB0209F0
:101010005F4121B9404502D19F4329EA0209BBEB58
:10102000175F00D0761C2088000502D57B487844E5
:1010300002E07A487844193808AA302302F80A30C6
:10104000037C0AF10101002E0AF1020A53546A4698
:1010500002DC4FF0300101E04FF031014FF00108A8
:101060008DF8001002D0A6F2FF3603E059EA4701DE
:1010700000D06B4E002D02DC2178090704D54FF01B
:1010800002082E218DF80110C44600210BE0C7F3A1
:1010900003433F01C35C491C6D1E02F8083005295B
:1010A00008F1010801DA002DF1DC00210CE000EB71
:1010B0001973491C1B786D1E082902F808304FEA85
:1010C000091908F1010801DA002DF0DC21688B060E
:1010D00002D516E0A8F10108E04505DD02EB0803A2
:1010E00013F8013C302BF5D0B8F1000F09DD02EB0D
:1010F000080313F8013C2E2B03D1090701D4A8F1F2
:101100000108002D05DD3E2102F808106D1E08F1D2
:101110000108407C002E02F8080008F1010804DAFA
:101120002D20764202F8080002E02B2002F8080089
:101130000A214FF47A70864208F101080BDB96FB16
:10114000F0F3303302F8083096FBF0F308F10108B1
:1011500000FB136601E0642E0CDB642096FBF0F3C9
:10116000303302F8083096FBF0F308F1010800FB79
:10117000136601E00A2E06DB96FBF1F0303002F830
:10118000080008F1010896FBF1F001FB1060303017
:1011900002F80800A16908F1010808EB050202EB5A
:1011A0000A00081AA0612078C00602D42046FFF782
:1011B0005BF9216A08AE01EB0A00206204E0D4E981
:1011C000012116F8010B9047BAF1010AF7D22078F5
:1011D000C00602D52046FFF747F96E4609E016F82B
:1011E000010B3E280FD0D4E901219047206A401C12
:1011F0002062B8F10108F2D22046FFF74BF909B09E
:101200000320BDE8F08F206A2844206203E0D4E97F
:101210000121302090476D1EEBD3F8E77AF70100EB
:1012200002FCFFFF10B5436913B1AFF3008001E08A
:10123000FFF753F9012010BD127800F124010A7064
:1012400000224A700122EDE711684FF0FF32E9E712
:1012500010B5436913B1AFF3008001E0FFF7D4F993
:10126000012010BD128800F1240182840022C28472
:101270000122EDE711684FF0FF32E9E770B516463D
:101280000C46054600F040F8036893F80101012878
:1012900006D0FF2C0FD8185D68B101202C7070BDEE
:1012A000D3F807013246214603F2071303442846C8
:1012B000BDE8704018474FF0FF3070BD754600F034
:1012C000EBF8AE4605006946534620F00700854618
:1012D00018B020B5FFF736F8BDE820404FF0000603
:1012E0004FF000074FF000084FF0000B21F007010E
:1012F000AC46ACE8C009ACE8C009ACE8C009ACE851
:10130000C0098D467047000010B500F005F8001DBB
:1013100010BD00BFF53F000000487047F0060020F8
:101320002DE9F0411F46044603260168072A01F40F
:10133000006004DB08B116A505E016A503E008B1BE
:1013400015A500E015A521F010002060A069C01EC1
:10135000A0610FB1401EA0612046FFF785F84FB194
:10136000D4E9012138469047206A401C2062C01C05
:10137000206206E0206AFAE7D4E9012115F8010BA2
:101380009047761EF8D22046FFF784F8BDE8F0813A
:101390004E414E006E616E00494E4600696E660019
:1013A0002DE9F047814616468AB0354878440DC885
:1013B0008DE80D0032487844801C03AC0DC884E8E9
:1013C0000D0041F69B300844372190FBF1F290FB71
:1013D000F1F5A5F1800501FB12041B3C02D5644226
:1013E000012000E00020DFF898A080460027FA44A2
:1013F000AAF1BE0A0EE0E0070AD03246684607EBC3
:10140000470101230AEB810100F023FB8DE807006F
:1014100064107F1C002CEED1194F7F44AE3F19E0C1
:10142000E80715D007EB04100DF1180A90E80E003C
:101430008AE80E00C068F04201D19819089032463F
:10144000012306A903A800F004FB03AB83E807000F
:101450006D10641C002DE3D14FF001033246694644
:10146000B8F1000F03A802D000F0DEFA01E000F0AE
:10147000F0FAC9E90001C9F808200AB0BDE8F08710
:101480008CF4010010B50446AFF300802046BDE89F
:101490001040FEF742BF000000487047D006002011
:1014A0004FF0013C50F8042B51F8043B9A4221D1F3
:1014B000A2EB0C03934313EACC1317D150F8042B7F
:1014C00051F8043B9A4215D1A2EB0C03934313EA63
:1014D000CC130BD150F8042B51F8043B9A4209D19C
:1014E000A2EB0C03934313EACC13DBD04FF00000C4
:1014F000704700BFD01A01BAB1FA81F101F01801AA
:1015000022FA01F0CB40C1F12001DBB2C0B2C01A17
:101510002CFA01F3D11A914311EAC311E6D17047B5
:101520007047000001491820ABBEFEE7260002000C
:101530005FEA400C08BF91F0000F4FEA8C234FEA9E
:10154000C12243EA51514FEA1C5018BF00F5F04048
:101550004FEA300018BF41F000415FEA6C5C00F0D8
:101560002980BCF1FF3F08BF40F080407047130C5A
:1015700006BF12044FF0100C4FF0000C130E04BF06
:1015800012020CF1080C130F04BF12010CF1040C31
:10159000930F04BF92000CF1020CD30F04BF520052
:1015A0000CF1010C11464FF00002A0F11F00A0EB5E
:1015B0000C00704711F0004F08BF704731F0004138
:1015C0003FF4D5AF0B0C06BF09044FF0100C4FF0E1
:1015D000000C0B0E04BF09020CF1080C0B0F04BF2A
:1015E00009010CF1040C8B0F04BF89000CF1020CF3
:1015F000CB0F04BF49000CF1010CCCF12003A0EB90
:101600000C0022FA03F302FA0CF241EA030100F1A2
:101610000100704720F07F4C80EA030023F07F47F1
:10162000ACEB070303F57C5300F0004003F1FF032C
:101630002DE980494FEA154B09B44FEA144325EAD6
:101640000B4E24EA03480FF2042606EB1327490841
:101650003E785FEA320203FB0667C7F5000707FB27
:1016600006F64FEA54374FEAD64606F1020607FB64
:10167000066CCCF1005C4FEA1C472CEA074C07FBD8
:1016800006F40CFB06F504EB15464FEA961634BF3C
:1016900000204FF000404FEAD13706FB07FC4FEA2D
:1016A0001C4C0CFB0BF7D21B03FB0CF761EB070187
:1016B0000CFB0EF7B0EB074072EB17420CFB08F780
:1016C00034BFA2EB0742B2EB074261EB17414FEA8E
:1016D0000C444FEA910706FB07FC4FEA1C4C0CFB3D
:1016E0000BF7B0EBC74072EB573203FB0CF734BF7C
:1016F000A2EBC742B2EBC74261EB57310CFB0EF7CE
:10170000B0EBC70072EB57720CFB08F734BFA2EBCB
:10171000C702B2EBC70261EB5771039F4FEA8161C9
:1017200041EA921104EBCC044FEAD1374FEA8262CE
:1017300006FB07FC42EA90124FEA80604FEA1C4C1D
:101740000CFB0BF7D21B03FB0CF761EB07010CFB47
:101750000EF7B0EB074072EB17420CFB08F734BFF3
:10176000A2EB0742B2EB074261EB17414FEA8C55FF
:101770004FEA910704EB9C2406FB07FC4FEA1C4C44
:101780000CFB0BF7B0EBC74072EB573203FB0CF7C7
:1017900034BFA2EBC742B2EBC74261EB57310CFB3F
:1017A0000EF7B0EBC70072EB57720CFB08F734BFB3
:1017B000A2EBC702B2EBC70261EB577115EB4C25E8
:1017C0004FEA816141EA92114FEA82624FEAD137D2
:1017D00042EA901206FB07FC44F100044FEA8060E5
:1017E0004FEA1C4C0CFB0BF7D21B03FB0CF761EB15
:1017F00007010CFB0EF7B0EB074072EB17420CFB36
:1018000008F734BFA2EB0742B2EB074261EB174186
:1018100015EB1C154FEA813141EA92414FEA8232C1
:1018200042EA90424FEA80304FEA0C7644F10004DD
:1018300048EA03434EEA0B484FF0000EB2EB080CA7
:1018400071EB030724BF624639464EEB0E0E4FF094
:10185000000B0018524149414BEB0B0BB2EB080C4B
:1018600071EB03077BF1000B24BF624639464EEB58
:101870000E0E4FF0000B0018524149414BEB0B0B81
:10188000B2EB080C71EB03077BF1000B24BF62463F
:1018900039464EEB0E0E51EA020718BF46F001061C
:1018A00016EB0E7655F1000254F1000103D5BDE8A8
:1018B0008901BDE80088BDE88901BDE80048B61986
:1018C000524141EB0101A3F10103704780807F7E0B
:1018D0007D7C7B7A797877767675747372717170A6
:1018E0006F6E6E6D6C6C6B6A6A6968686766666558
:1018F0006464636362616160605F5F5E5E5D5D5CE6
:101900005C5B5B5A5A595958585757565655555556
:101910005454535352525251515050504F4F4F4EB6
:101920004E4D4D4D4C4C4C4B4B4B4A4A4A49494904
:101930004848484747474746464645454544444446
:10194000444343434342424242414141002B9C466F
:1019500030D477002BD01CB54FEA370703B44FF0D3
:1019600010004FF01001BAF1000F06D0BCF1000FCB
:10197000DCBF40F0080040F008014FF000000FBC51
:10198000BDE810400BF1010BBBF1010F08BF5FEA8E
:10199000170722BF12F1010211F101014FF00041BE
:1019A00043F1000300F0004043EA00007047F9D320
:1019B0005708D0E746EA064613F1400F4FEA1646AD
:1019C0001FDD13F1200FDFBF16430A46002120332D
:1019D0005B42BED0C3F1200746EA064602FA07F78B
:1019E0004FEA164646EA0706C3F1200722FA03F239
:1019F00001FA07F721FA03F14FF0000342EA070268
:101A0000A7E746EA020646EA06464FEA164646EACF
:101A10000106BCBF46EA0646360C4FF000034FF005
:101A200000024FF0000194E72DE9804C9A4693465E
:101A300070B491E8380007C831EA400C48BF34EA76
:101A4000430C03D5FFF7E6FDFFF780FFF0BCBDE8D0
:101A5000008C2DE9804C9A46934670B491E838008A
:101A600007C810F0804F08BF13F0804F03D100F07B
:101A700005F8FFF76BFFF0BCBDE8008C20F07F4756
:101A800080EA030023F07F4C07EB0C03A3F57C53A3
:101A900000F00040A3F1FE0392F0000F00F0B380CD
:101AA00095F0000F00F077802DE901494FEA1140D1
:101AB0004FEA144621EA004800FB06FC24EA0647E8
:101AC00008FB06F607FB08F800FB07F718EB0648CB
:101AD0004CEB164C4FEA124B18EB07484FEA1546F1
:101AE0004CEB174022EA0B4E0BFB06FC25EA06479F
:101AF0000EFB06F607FB0EFE0BFB07F71EEB064E72
:101B00004CEB164C4FF000061EEB074E4CEB174B00
:101B100018EB0B0840F1000018EB0E0B58EB000817
:101B200040F100008F1A4FF000013CBFC943661B13
:101B300014BFB5EB040C00213CBFC943F61B4FEAB0
:101B400017444EEA8E0E27EA04454FEA1C4704FB71
:101B500007622CEA074C05FB07F70CFB05F604FBB4
:101B60000CFC16EB074642EB174216EB0C4642EB19
:101B70001C421BEB060658EB0202414146EA9E0658
:101B800001D5BDE80189B619524141EB0101A3F12C
:101B90000103BDE801894FEA14454FEA114724EAE1
:101BA000054621EA074C05FB07F406FB07F70CFB8B
:101BB00006F105FB0CFC11EB074144EB17444FEA1F
:101BC000124711EB0C4144EB1C4422EA074C05FB85
:101BD00007F206FB07F70CFB06F605FB0CFC16EB01
:101BE000074642EB174216EB0C4642EB1C456A18BF
:101BF00054F1000148BF7047B619524141EB010151
:101C0000A3F10103704795F0000F37D04FEA11425E
:101C10004FEA144721EA024624EA074C02FB07F187
:101C200006FB07F70CFB06F402FB0CFC14EB074465
:101C300041EB17414FEA154714EB0C4441EB1C41B3
:101C400025EA074C02FB07F506FB07F70CFB06F637
:101C500002FB0CFC16EB074645EB174516EB0C4652
:101C600045EB1C42121951F1000148BF7047B619EB
:101C7000524141EB0101A3F1010370474FEA1445C2
:101C80004FEA114724EA054621EA074C05FB07F114
:101C900006FB07F70CFB06F24FF0000605FB0CFCF9
:101CA00012EB074241EB174112EB0C4251EB1C4186
:101CB00048BF7047921841EB0101A3F1010370473F
:101CC000FEE700002DE9F04119481849082201609B
:101CD0004FF0804141600021C0E902120161416181
:101CE0008161C161016240212430FEF781FB104E09
:101CF000002424360F4FA6F140050D4A285DF070F0
:101D000057F8240024320A4900F0D4FE48B12819BB
:101D1000017B491C0173641CE4B2032CEDD3BDE8C4
:101D2000F0812919487A401C4872F4E70305F0183D
:101D30006C060020140000202DE9F0411A481949D2
:101D4000082201604FF0804141600021C0E9021289
:101D5000016141618161C161016240212430FEF76E
:101D600047FB114F00242437DFF84080A7F14006DD
:101D700035190D4AE87824320001B87058F824006B
:101D8000094900F097FE40B1287B401C2873641C71
:101D9000E4B2032CECD3BDE8F081687A401C687291
:101DA000F5E70000034AFE186C060020140000202E
:101DB000014800F03FBD0000B40300200D49026857
:101DC0008A4201D20C4901E00B492031D2B21423DE
:101DD000083AB2FBF3F2436C02F01F0223F0030354
:101DE0001944816404498031C16401219140016535
:101DF0007047000008040240000802400179074AC9
:101E000002EB81024265054A4432491E826501F0B7
:101E10001F0201219140C16570470000FC0802408B
:101E2000704772B6FEE70000014800F076BF000080
:101E300014040020014800F070BF00007804002066
:101E4000014800F06ABF0000DC040020F0B5D1E9D1
:101E500001650C692C430D68C6B145F080452C43E3
:101E6000D1E90665354391F820704E69406D46EA28
:101E7000076635438E8903EBC30300EBC30045EAD5
:101E80000645E0E8024500230B4D0FE044EA854497
:101E9000E6E7D418D65CE77846EA0766A778647860
:101EA0003F0447EA0424264340C01B1DCC682C5D38
:101EB0009C42EED8F0BD0000360702082DE9F04F35
:101EC000044690F858009BB00F464FF0000B0128D5
:101ED00012D0012084F85800002617961896206822
:101EE0004FF0A048DFF81C91DFF81CA1474D40459A
:101EF00006D12846009508E002201BB0BDE8F08F0F
:101F000048450AD15046CDF800A002F03BFA0090B7
:101F1000206802F037FA40B109E0E06D40F020009F
:101F2000E06584F858600120E7E7009850B1E06D63
:101F300040F02000E0654FF0010B00BF84F85860CE
:101F40005846DAE720684146884201D0A84201D1CC
:101F50002F4800E02F48D7F800C02F4B40F61F72E3
:101F6000BCF1000F2DD0D0F808C094F838802CF4C4
:101F7000604C4CEA483CD7F804804CEA080CC0F8A6
:101F800008C0D4F800C08C4501D0AC4504D18968A4
:101F9000AB6801F0010109E0D9F80810DAF808503F
:101FA00001F0010105F001059B68294303F00103DD
:101FB0001943C3D1BB6839681943836893431943F4
:101FC0001DE0876827F46047876027688F4201D04B
:101FD000AF4204D18968AB6801F0010109E0D9F88A
:101FE0000810DAF8085001F0010105F001059B68BE
:101FF000294303F001031943A0D181689143816013
:102000009CE7000000040050000500500001005053
:102010000003005000070050000600502DE9F84F63
:1020200000270446009790F85800DFF81C840D46FE
:10203000B946012811D0012684F85860206802F0C2
:102040009DF960B1E06D40F02000E0655FF00107B0
:1020500084F858903846BDE8F88F0220FBE7D5E9B0
:1020600000210C23206803EA91131844036B01F04C
:102070001F014FF01F0C0CFA01FCC2F3846223EA2B
:102080000C038A4013430363206802F077F9824609
:10209000206802F06FF95AEA00003CD1AA6829686A
:1020A0002068B2F1004F37D002F070F92068416922
:1020B00021F00041416120686969C268C2F3C10230
:1020C000520091402A69042A31D000EB82002B682B
:1020D000026EDFF878C303F0F84302EA0C020B4308
:1020E0001A4342F00041016622682869A96902EB9F
:1020F0008000026E22F080720A430266297F226805
:102100002869012910D0002102EB8000026E22F024
:1021100000720A4302667DE0002202F037F920686F
:10212000416941F00041C5E74FF00071ECE7002143
:1021300002F01AF9400320684FF0000172D002F05B
:1021400013F990FAA0F0B0FA80F1286842036ED03B
:1021500090FAA0F0B0FA80F0814204D1002211463A
:10216000206802F022F90121206802F0FDF8400306
:1021700020684FF001015DD002F0F6F890FAA0F06F
:10218000B0FA80F12868420359D090FAA0F0B0FA72
:1021900080F0814204D100220121206802F005F97B
:1021A0000221206802F0E0F8400320684FF00201AD
:1021B00048D002F0D9F890FAA0F0B0FA80F128687F
:1021C000420344D090FAA0F0B0FA80F0814204D1EA
:1021D00000220221206802F0E8F80321206802F0C2
:1021E000C3F8400320684FF0030133D002F0BCF87D
:1021F00090FAA0F0B0FA80F1286842032FD090FA4C
:10220000A0F0B0FA80F0814204D1002203212068BE
:1022100002F0CBF82068816811F0010F22D0ACE009
:1022200000E004E002F0A0F8C0F384618DE7C0F3A1
:10223000846091E702F098F8C0F38461A2E7C0F3EC
:102240008460A6E702F090F8C0F38461B7E7C0F3BA
:102250008460BBE702F088F8C0F38461CCE7C0F388
:102260008460D0E72A7B296850F8B03FC1F3120C94
:1022700023EA0C0302F0180C754A22FA0CF20A4009
:1022800013430360E968414577D1286841031CD0B6
:1022900090FAA0F1B1FA81F1491C01F01F0109295E
:1022A0004FEA403132D8002912D000BF90FAA0F195
:1022B000B1FA81F101F1010101F01F0106FA01F605
:1022C00009D100BFC0F3846109E0C0F38461E3E792
:1022D000C0F38461EEE790FAA0F1B1FA81F101F167
:1022E000010101F01F0146EA816102D1C0F384605F
:1022F00003E090FAA0F0B0FA80F000F1010000F0E5
:102300001F0000EB400041EA005132E000290ED0EE
:1023100090FAA0F1B1FA81F101F1010101F01F0180
:1023200006FA01F606D100BFC0F3846106E0C0F3EF
:102330008461F1E790FAA0F1B1FA81F101F10101B4
:1023400001F01F0146EA816102D1C0F3846003E01D
:1023500090FAA0F0B0FA80F000F1010000F01F0048
:102360003C4A00EB400002EB005041EA000141F022
:102370000071AA68206802F009F837482B68034208
:102380003FF466AE21684FF0A04C3448344E354DD2
:10239000614501D0A94201D1024600E0324692686F
:1023A000DFF8C48002F0E072434503D0DFF8BC8060
:1023B000434521D15FEA02281ED4614506D02C4B4B
:1023C00099427FF445AEA94200D0304642F4000164
:1023D000826822F0E0720A4382602648264900683B
:1023E000B0FBF1F0401C00EB4000800000E0401E1C
:1023F00000900028FBD12BE6DFF8808043450FD109
:102400005FEAC2180CD4A94202D11D4B9942F2D006
:10241000614502D0A94200D0304642F080710CE004
:10242000DFF860804345E6D15302E4D4A942E2D00C
:10243000614500D0304642F48001826822F0E072AB
:102440000A43826004E6000000007F4000F0FF03C2
:10245000FFFF0700000020FE00000880000300507E
:102460000007005000010050000021C31000C09080
:10247000000600502C000020400D0300000052C751
:1024800000050050000084CBF8B54FF000050400B3
:102490002E46009502D0E06D10B107E00120F8BD96
:1024A000204600F009F9266684F8586020688168A3
:1024B000C1F3407119B18168734A1140816020688D
:1024C0008168C1F3007189B98168704A114041F097
:1024D000805181606E486F490068B0FBF1F04000A8
:1024E000801C00E0401E00900028FBD1206881681D
:1024F000C1F3007141B9E16D41F01001E165216E58
:1025000041F001012166012501F038FFE16DC906A6
:1025100000D430B1E06D40F01000E06501252846A0
:10252000F8BDE06D20F4807040F00200E0652068A6
:10253000816811F0010F27D14FF0A043564A98420D
:1025400001D0904204D19968966801F001010AE037
:1025500052498968524E01F00101B66806F0010641
:102560003143504EB66806F0010631430CD1984213
:1025700001D0904201D14C4800E04C48616882682B
:1025800022F47C120A438260E168E06B627F0843B8
:10259000A16841EA4231084394F8241040EA01401E
:1025A000012904D1218D424A02EB41410843E16AED
:1025B00029B101F47871226B014342EA01002268DB
:1025C000D1683C4B19400143D16020680169626BBE
:1025D00021F0406111430161206801F0CBFE70BB26
:1025E000207F94F838102268800340EA4100D168C7
:1025F00044F2020399430143D16020690028206816
:1026000001690AD041F480310161206850F8C01F8F
:1026100022696FF30D01114307E021F4803101615C
:10262000206850F8C01F6FF30D01016094F840005E
:1026300001280CD02068016921F001010161606965
:1026400001282068016B21F00F0111D013E0D4E9BB
:1026500011010843D4E913121143084321680A69A0
:1026600040F2FC739A43104340F001000861E6E732
:10267000226A521E11430163E06D20F0020040F017
:102680000100E0654BE70000C0FFFF5FC0FFFF7F78
:102690002C000020400D03000001005000040050F9
:1026A00000050050000600500003005000070050D5
:1026B0000000FEFF0740F0FFF0B59BB00646142176
:1026C00015A8FDF795FE54216846FDF791FE306888
:1026D000B0F1A04F4CD14FF4004000908003119016
:1026E000684601F015F808B1FFF79BFB2149C86C5B
:1026F00040F40050C864C86C00F400501A90C86CD4
:1027000040F00400C864C86C00F004001A90C86C63
:1027100040F00100C864C86C002500F001001A9068
:102720000F2403271795CDE9154715A9124800F086
:10273000C7FD1795CDE9154715A94FF0904000F05A
:10274000BFFD0F4C0D4820600520C4E90105802025
:10275000C4E90350400060618000C4E906052046DA
:10276000256200F0C5F808B1FFF75BFB7465A6624F
:102770001BB0F0BD001002400008004808000240F5
:10278000B4030020F8B52A4C0025012625606560B9
:10279000C4E90256074640F2FF70C4E904502146DE
:1027A000384600F0ACF908B1FFF73BFB4FF0804032
:1027B000C4E90006C4E902566FF06040C4E9045061
:1027C0001B49384600F09BF908B1FFF72AFB0222AB
:1027D000002311463846009500F0BFF908B1FFF715
:1027E00020FB00220121384600F0F4F808B1FFF781
:1027F00018FB00224FF40021384600F0EBF808B136
:10280000FFF70FFB796AF86A00224143384600F06F
:10281000BFF908B1FFF705FB384600F0C9F908B168
:10282000FFF7FFFA3846BDE8F84000F02CBD000085
:1028300040050020F0B4016C0C6801680D6890F848
:10284000442002F01F06042202FA06F3234211D0AC
:102850006B070FD50B689B0603D40B6823F00403AA
:102860000B6090F8441001F01F018A40016C4A602F
:10287000016B1DE0022303FA06F727424FF0000C1C
:102880004FF0010218D0AF0716D50C68A40605D486
:102890000C6824F00A040C6080F8252090F844109D
:1028A00001F01F018B40016C4B6080F824C0C16AAD
:1028B00000291AD0F0BC08470823B340234214D0A3
:1028C0002B0712D50B6823F00E030B6090F8441011
:1028D000036C01F01F0102FA01F15960C26380F834
:1028E000252080F824C0416BE2E7F0BC704700006F
:1028F00070B504000CD02B4A21681420914209D2F3
:10290000294A0A44B2FBF0F08000606427480AE0DC
:10291000012070BD234A52420A44B2FBF0F080000D
:102920006064204808382064022084F825000A6882
:1029300047F6F0708243D4E902031843D4E9043522
:102940002B431843A3691843E3691843236A1843C8
:10295000104308602046FFF731FAA0680025B0F563
:10296000804F00D16560A16C20790860D4E9130123
:1029700041606068401E032808D82046FFF73EFAF1
:10298000606D0560D4E91601416002E06565A565EA
:10299000E565E563012084F8250084F824500020D3
:1029A00070BD000008040240F8FFFDBF00000240B7
:1029B00070B5044600F0AEFD0546601C02D0044828
:1029C0004068044400F0A6FD401BA042FAD370BD4D
:1029D0002000002030B590F85C30012B07D0022B8E
:1029E00005D0016E41F002010166012030BD04688E
:1029F000A36D4D0701D0DD071DD011F0380F01D0B8
:102A00009D0718D511F4E07F01D05D0713D511F4AF
:102A1000F05F01D01D070ED511F4604F01D0DD0627
:102A200009D511F4403F01D09D0604D511F47C0F67
:102A300005D05D0603D4E56D45F00105E5654C075D
:102A400001D0DC071DD111F0380F01D09C0718D43C
:102A500011F4E07F01D05C0713D411F4F05F01D0D2
:102A60001C070ED411F4604F01D0DC0609D411F418
:102A7000403F01D09C0604D411F47C0F06D05B06C5
:102A800004D50368DC6D44F00204DC650B0604D554
:102A9000036853F8DC4F14431C60CB0504D503686E
:102AA00053F8E04F14431C600068426D0A434265CE
:102AB000002030BD70B5044690F85C00022803D0B9
:102AC000206E40F0080007E02068D0F8C4309B0278
:102AD00005D5206E40F400702066012070BDD0F84E
:102AE000C400C0F301452B462046FFF7AFF921682B
:102AF0000120A840C1F8CC00A065002070BD10B531
:102B000090F85C20012A07D0022A05D0016E41F01E
:102B100002010166012010BD0A687AB10B7B0A69C7
:102B20000C7A42EA43734A69406C496842EA84720B
:102B300000EBC100C0E90032002010BD0B7A4A69E9
:102B40000C8A42EA83720B7B006CDB06496843EA1D
:102B500004431A4340F82120EEE730B590F85C506A
:102B6000039C012D05D0016E41F004010166012096
:102B700030BD0901006841EA820141EA430150F891
:102B8000802F214322F03F0211430160002030BD1D
:102B900090F85C30012B05D0016E41F00401016614
:102BA00001207047006842EA0121816400207047DB
:102BB00090F85C10012905D0016E41F00401016616
:102BC000012070470068C16841F40001C160002025
:102BD0007047704700680849884201D101F0B8BECB
:102BE0000649884201D101F0DFBE0549884201D182
:102BF00001F006BF7047000000640040006800401C
:102C0000006C0040F0B590F85C400025022C03D029
:102C1000016E41F0080160E00468402946D0D4F814
:102C20009860360756D0D4F89860F60104D5D4F8E9
:102C30008060F60500D50125D4F89840C4F301243E
:102C40006619C46C06EBC60504EBC504256815F0CF
:102C500080455560256843D025F06045156025689E
:102C60002C4F05F00055956020CC05F0004515610E
:102C700034F8045BADB2D56154F8045CC5F3034588
:102C8000D56054F8045C05F48015556154F8045C73
:102C900005F40015956154F8045CC5F306651562EA
:102CA00054F8045CED0F5562002522E0D4F89060E2
:102CB00036070FD0D4F89060F60104D5D4F88060C0
:102CC000B60500D50125D4F89040C4F30124661957
:102CD000846CB7E7016E41F4807101660120F0BD9C
:102CE000C5F38A45BAE700BF14F805C003F805C06C
:102CF0006D1CD2F80CC017F80CC0AC45F4D80068B5
:102D0000402903D0C0F89C600020F0BDC0F894605A
:102D1000FAE700003607020870472DE9F05F044625
:102D20000068016D426D01F4E05102EA0108016D95
:102D3000426D01F0070102EA0109016D426D01F0E7
:102D4000380102EA010A016D476D01F471010F407B
:102D5000016D426D01F46021456D02EA010B016DC8
:102D6000CE43710607D4E943490604D440210165E6
:102D70002046FFF7D1FFF0050ED4E843C0050BD481
:102D80002068D0F8D820D0F8E01011404FF48072BD
:102D90000265204600F08FFAB8F1000005D02168E6
:102DA00008654146204600F088FAB9F1000005D0D8
:102DB000216808654946204600F02CFABAF1000067
:102DC00005D0216808655146204600F05BFAB00541
:102DD00009D4E843800506D421684FF400700865E3
:102DE000204600F06BFA30060DD4E84300060AD402
:102DF0002068D0F8D420D0F8DC1011408022026581
:102E0000204600F059FAB00409D4E843800406D4FF
:102E100021684FF400500865204600F04BFA30045A
:102E200009D4E843000406D421684FF40040086543
:102E3000204600F03EFA70040AD4E843400407D468
:102E400021684FF480400865206E40F080002066C5
:102E5000BBF1000005D02168086559462046FFF700
:102E6000B9FE27B120680765206E38432066206EC2
:102E7000002802D02046FFF7ACFEBDE8F09F00001E
:102E80002DE9F041040006D0DFF8F48194F85C00ED
:102E9000002518B107E00120BDE8F08184F85D50FD
:102EA000204600F0F9F82068816921F01001816165
:102EB00000F030FB0646032705E000BF00F02AFBC8
:102EC000801B0A2811D8206880690007F6D4206882
:102ED000816941F00101816100F01CFB06460BE0B5
:102EE00000F018FB801B0A2806D9206E40F0010074
:102EF000206684F85C70CEE720688069C007EFD058
:102F00002068816941F0020181612168414502D157
:102F10005C4960680860207C01282068816937D09E
:102F200041F040018161607C01282068816932D0D4
:102F300021F480418161A07C0128206881692DD025
:102F400041F48051816120688169A26821F4407157
:102F5000114381612068816921F0A40181612068A9
:102F6000016921F010010161E068012819D010B356
:102F700002281BD02068816941F0800181612068AE
:102F8000016941F010010161E06803280ED012E0F0
:102F900021F04001C6E741F48041CBE721F48051A4
:102FA000D0E72068816941F0040103E0206881696D
:102FB00041F020018161207EE26940066FF0FF014F
:102FC00001EB0222A0F100701043226AA38A521E74
:102FD00010430A0202EB034318432368D861A06838
:102FE000B0F5407F10D1D4E90A0301EB0321401E64
:102FF0000843216B131303EB01110843A18C02EB6F
:10300000014108432168C860206850F8C01FE26B86
:10301000114301601D4A21681B48914200D11C48A0
:103020001C4A914201D100F5D460206451F8802FF0
:10303000A38E22F4F81242EA03420A6000F1700102
:103040006164216851F8802F94F8383022F0706262
:1030500042EA03620A6000F1B001A164D831E16480
:10306000D831216518316165D83100E020C088422F
:10307000FCD3A5652566012084F85C0000200BE7E1
:10308000006400400065004000A40040006800406B
:1030900050A70040006C00402DE9F0439BB004466F
:1030A000142115A8FDF7A4F954216846FDF7A0F9ED
:1030B000524B2068991400254A03514E0227514C67
:1030C0004FF009084FF0904998422ED168460E9271
:1030D000009100F01DFB08B1FEF7A3FE7068401CD4
:1030E0007060012807D1A06D40F00070A065A06D50
:1030F00000F000701A90E06C40F00100E064E06CB9
:10310000CDE9167500F001001A904FF4C050CDE9DA
:103110001858159015A9484600F0D2F8002211461B
:10312000152000F05DFA152030E0374B984232D17F
:1031300068460E92009100F0EBFA08B1FEF771FEBE
:103140007068401C7060012807D1A06D40F00070CD
:10315000A065A06D00F000701A90E06C40F00200D5
:10316000E064E06CCDE9167500F002001A904FF4AF
:103170004050CDE91858159015A9244800F0A0F842
:1031800000221146562000F02BFA562000F01AFAC1
:103190001BB0BDE8F0831E4B9842F9D168460E92F1
:1031A000009100F0B5FA08B1FEF73BFE7068401CD4
:1031B0007060012807D1A06D40F00070A065A06D7F
:1031C00000F000701A90E06C40F00100E064E06CE8
:1031D000CDE9167500F001001A904FF401401590EA
:1031E0000B20CDE9185015A9484600F069F80022D7
:1031F0001146582000F0F4F95820C7E70064004059
:103200000400002000100240006800400004004854
:10321000006C004010B5044688B0C80726D0144B97
:103220004021A3F128022046FFF7ECFC1149206859
:10323000114C884201D1002008E01049884201D198
:10324000012003E00E49884201D102202070084885
:103250000790A0F11C011C226846FDF797F804486E
:10326000283890E80E00207801F00AFE08B010BD62
:103270008005002000640040040000200068004039
:10328000006C0040704790F85C10012905D0016E79
:1032900041F00401016601207047022180F85C10B2
:1032A00001688A6922F001028A61002101660846EC
:1032B000704770477047704770477047704700000D
:1032C0002DE9F04FDFF82092002301260324A9F115
:1032D000040B85B00F2709F1040AABF1040EFAE0E4
:1032E00006FA03F52A407CD091F804C00CF0030CD8
:1032F000BCF1010F02D0BCF1020F26D1D0F808C0FA
:10330000CDF800C04FEA430C04FA0CF8CDF810C019
:10331000DDF800C02CEA080CCDF800C0D1F80C8014
:10332000DDF810C008FA0CF8DDF800C048EA0C0817
:10333000C0F80880D0F804C02CEA050C0D79C5F35C
:1033400000159D4045EA0C0545600D79ED43AD073C
:103350000ED0C5684FEA430804FA08FC25EA0C05BC
:10336000D1F808C00CFA08FC4CEA050CC0F80CC0F7
:103370000D7905F00305022D16D1DD0800EB850C53
:10338000CDF808C0DCF820805D074FEAD56C07FA5D
:103390000CF528EA05080D6905FA0CF5DDF808C0FA
:1033A00045EA0805CCF8205005684FEA430CCDF8F3
:1033B00008C004FA0CFC25EA0C0591F804C00CF0D6
:1033C0000308DDF808C008FA0CF848EA0508C0F858
:1033D00000804D6815F4403F7CD0444DD5F860C066
:1033E00000E077E04CF0010CC5F860C02D6E23F0D2
:1033F000030C05F0010500953D4D65440295AD684F
:103400004FEA837C4FEA1C7807FA08FC25EA0C0592
:10341000B0F1904F06D0DFF8DCC0604505D14FF029
:10342000010C20E04FF0000C1DE0DFF8CCC060453F
:1034300002D14FF0020C16E0DFF8C0C0604502D1A7
:103440004FF0030C0FE0DFF8B8C0604502D14FF039
:10345000040C08E0DFF8ACC0604502D14FF0050C69
:1034600001E04FF0060C0CFA08FC4CEA050C029D3A
:10347000C5F808C0D9F80050CC46D1F8048095436F
:103480005FEAC82800D51543CCF80050DAF80050A0
:10349000D446D1F8048095435FEA882800D51543C7
:1034A000CCF80050DBF80050DC46D1F8048095439E
:1034B0005FEA883800D51543CCF80050DEF800509C
:1034C000F446D1F8048095435FEAC83800D5154327
:1034D000CCF800505B1C0A6832FA03F57FF400AFA9
:1034E00005B0BDE8F08F0000080401400010024064
:1034F000000001400004004800080048000C00489B
:1035000000100048001400480AB1816170478162D0
:1035100070470000014880687047000020000020CC
:103520000248816842681144816070472000002091
:1035300010B50024032000F073F80F2000F008F805
:1035400008B1012401E000F025F8204610BD00007C
:1035500070B50E4E05460024706898B14FF47A712C
:10356000B1FBF0F00A490968B1FBF0F000F0E7FEAA
:1035700040B9102D06D200222946501E00F030F826
:10358000356000E00124204670BD000020000020CE
:103590002C0000200A4882B0016E41F00101016652
:1035A000016E01F001010091816D41F08051816552
:1035B000806D00F08050009002B000F0A1B80000D3
:1035C00000100240002809DB00F01F020121914099
:1035D0004009800000F1E020C0F8001170470000B1
:1035E000F0B40E4B1B680C46C3F30223C3F107056E
:1035F000042D00D90425191D072901D2002300E05C
:10360000DB1E012606FA05F1491E214099409E4025
:10361000761E16403143F0BC01F01FBD0CED00E0FA
:10362000064900F0070208684FF6FF03184040EA19
:103630000220034A10430860704700000CED00E0D0
:103640000000FA052B492C4B0A6832214A432B49CA
:1036500040B1B0F5007F086829D020F4C06040F484
:1036600080602CE00868C0F34120022804D051F8A3
:10367000800F20F4807022E0D1F8800020F4807068
:10368000C1F88000086820F4C06040F40070086051
:10369000B2FBF3F0401C00E0401E4A69520501D520
:1036A0000028F9D1486940050AD503207047C0F3C6
:1036B0004120022806D051F8800F40F48070086045
:1036C00000207047D1F8800040F48070C1F880007D
:1036D000086820F4C06040F400700860B2FBF3F0AA
:1036E000401C00E0401E4A695205DBD50028F9D194
:1036F000D8E700002C00002040420F00007000407E
:103700000248816841F48041816070470070004048
:103710002DE9F843044600680026BB4D00035ED542
:10372000A86D0027C00008D4A86D40F08050A8659F
:10373000A86D012700F080500090DFF8D092D9F8F2
:10374000001041F48071C9F80010FFF7E3FE8046D5
:1037500006E000BFFFF7DEFEA0EB080002282BD832
:10376000D9F80000C005F5D5D5F8900010F44070E8
:1037700014D0216D814211D0D5F89000D5F8901069
:1037800020F4407041F48031C5F89010D5F89010C5
:1037900021F48031C5F89010C5F89000C00711D011
:1037A000FFF7B8FE804641F2883907E0FFF7B2FE26
:1037B000A0EB0801494501D903260BE0D5F890009C
:1037C0008007F3D5D5F89000216D20F440700843B0
:1037D000C5F890001FB1A86D20F08050A865207832
:1037E000C00707D0D5F88800616820F003000843BF
:1037F000C5F888002078800707D5D5F88800A1682B
:1038000020F00C000843C5F888002078400707D551
:10381000D5F88800E16820F030000843C5F888003A
:103820002078000707D5D5F88800216920F0C0006E
:103830000843C5F888002078C00607D5D5F8880069
:10384000616920F440700843C5F88800207880063C
:1038500007D5D5F88800A16920F440600843C5F871
:1038600088002078400607D5D5F88800E16920F463
:1038700040500843C5F888002078000607D5D5F8E1
:103880008800216A20F440400843C5F88800208859
:10389000C00507D5D5F88800616A20F44030084398
:1038A000C5F888002068800307D5D5F89C00A16A78
:1038B00020F003000843C5F89C002088800507D548
:1038C000D5F88800E16A20F440200843C5F8880054
:1038D000208840050FD5D5F88800216B20F44010D2
:1038E0000843C5F88800206BB0F5801F03D1E86855
:1038F00040F48010E860208800050FD5D5F88800D6
:10390000616B20F440000843C5F88800606BB0F597
:10391000800F03D1E86840F48010E8602088C0047C
:103920000FD5D5F88800A16B20F040700843C5F88A
:103930008800A06BB0F1807F03D1E86840F480106C
:10394000E86020884FF0006180040ED5D5F888002B
:10395000E26B20F040601043C5F88800E06B8842BD
:1039600003D1E86840F48010E860208840040ED558
:10397000D5F88800226C20F040601043C5F888001C
:10398000206C884203D1E86840F48010E860208809
:1039900000040FD5D5F88800616C20F04050084332
:1039A000C5F88800606CB0F1805F03D1E86840F42E
:1039B0008030E8602068C0030FD5D5F88800A16C7E
:1039C00020F040400843C5F88800A06CB0F1804F5B
:1039D00003D1E86840F48030E860206840030FD5E8
:1039E000D5F89C00E16C20F440100843C5F89C0019
:1039F000E06CB0F5001F03D1E86840F48010E86087
:103A00003046BDE8F883000000100240007000401E
:103A10002DE9F0470E4605004FF0000725D0DFF8EE
:103A2000AC81D8F8000000F00F00B0420CD2D8F8FA
:103A3000001021F00F013143C8F80010D8F8000041
:103A400000F00F00B04210D12968614CC80741F264
:103A5000883A5AD06868DFF87C91032808D0022899
:103A600020682DD0400500282CDB0120BDE8F08720
:103A700020688001F9D5E06800F00302E068C0F337
:103A80000310401C032A19D0534A00BFB2FBF0F0C8
:103A9000E268C2F306225043E268C2F34162521C5C
:103AA0005200B0FBF2F0484517D9A06810F0F00FB3
:103AB0000CD0880711D5A86840B10EE0474AE5E769
:103AC0008003D0E700F092F8484506D9A06820F0BE
:103AD000F00040F08000A0608027A068696820F0B6
:103AE00003000843A060FFF715FD814606E000BF14
:103AF000FFF710FDA0EB090151453AD8A0686968AD
:103B000000F00C00B0EB810FF2D12868810714D5CA
:103B1000400703D5A06840F4E060A0602878000763
:103B200005D5A06820F4605040F4E060A060A06873
:103B3000A96820F0F000084304E0802F03D1A068BA
:103B400020F0F000A060D8F80010404601F00F010E
:103B5000B14216D9016821F00F0131430160FFF72E
:103B6000D9FC074607E000BFFFF7D4FCC11B514555
:103B700001D903207AE7D8F8000000F00F00B04226
:103B8000F2D12878400705D5A068E96820F4E06004
:103B90000843A0602878000706D5A068296920F4AA
:103BA000605040EAC100A06000F020F8A1680C4A13
:103BB000C1F30311515C01F01F01C84009490860BD
:103BC00009480068BDE8F047FFF7C2BC002002408A
:103BD0000010024000B4C4040024F400001BB7002D
:103BE000460702082C00002020000020184910B5CC
:103BF0008868C0F381021748012A0BD08A68164BE7
:103C0000C2F38102022A06D08A68C2F38102032A23
:103C100003D0002010BD184610BDCA6802F003048E
:103C2000CA68C2F30312521C032C02D0B0FBF2F09C
:103C300001E0B3FBF2F0CA68C968C2F30622504340
:103C4000C1F34161491C4900B0FBF1F010BD000017
:103C5000001002400024F400001BB7002DE9F843D7
:103C600004007AD02078F84DC00747D0A868E968EA
:103C700000F00C0001F003010C2802D0082817D036
:103C800001E0032914D06068B0F5803F17D0B0F58B
:103C9000A02F286817D020F480302860286820F4EE
:103CA000802028606068E0B1FFF734FC064614E02D
:103CB0002868800322D560680028D2D01EE02868DA
:103CC00040F48030EDE740F480202860F7E700BF43
:103CD000FFF720FC801B642870D828688003F7D584
:103CE0000CE0FFF717FC064605E000BFFFF712FCEB
:103CF000801B6428F0D828688003F7D420788007D8
:103D00004CD5A868E96800F00C0001F003010C280C
:103D100002D004280DD001E002290AD0E068002872
:103D200028682BD040F480702860FFF7F3FB06462C
:103D300019E02868400502D5E068002891D068683D
:103D4000217C20F0FE4040EA01606860BF480068C6
:103D5000FFF7FEFB002800D120E072E1FFF7DAFB5D
:103D6000801B0228B8D828684005F7D56868217CF0
:103D700020F0FE4040EA016068600FE020F48070AF
:103D80002860FFF7C7FB064605E000BFFFF7C2FB50
:103D9000801B0228A0D828684005F7D420780007A7
:103DA00029D560690028D5F8940013D040F00100AF
:103DB000C5F89400FFF7AEFB064606E090E000BFB2
:103DC000FFF7A8FB801B022886D8D5F8940080074F
:103DD000F6D510E020F00100C5F89400FFF79AFB3B
:103DE000064604E0FFF796FB801B022878D8D5F83A
:103DF00094008007F6D42078400761D5A86D00268E
:103E0000C00008D4A86D40F08050A865A86D0126B8
:103E100000F0805000908E480168C90511D40168F7
:103E2000804641F480710160FFF774FB074604E0AF
:103E3000FFF770FBC01B022852D8D8F80000C0055D
:103E4000F6D5A068012815D00528D5F8900016D021
:103E500020F00100C5F89000D5F8900020F0040093
:103E6000C5F89000A06841F28838B8B1FFF752FB5E
:103E700007460EE0D5F8900040F00100F0E740F072
:103E80000400C5F89000F5E7FFF744FBC11B41456E
:103E900026D8D5F890008007F6D50CE0FFF73AFB5E
:103EA000074604E0FFF736FBC11B414518D8D5F89B
:103EB00090008007F6D41EB1A86D20F08050A86550
:103EC0002078800629D5A0690028D5F8980013D05D
:103ED00040F00100C5F89800FFF71CFB064606E01D
:103EE00075E000BFFFF716FB801B02286FD8D5F8DE
:103EF00098008007F6D510E020F00100C5F8980082
:103F0000FFF708FB064604E0FFF704FB801B0228CE
:103F10005DD8D5F898008007F6D4E069F0B3A968B9
:103F2000C1F3810103295DD00228286820F0807048
:103F3000286003D0FFF7EEFA04464BE0FFF7EAFAF9
:103F4000064604E0FFF7E6FA801B02283FD82868FF
:103F50008001F7D4F4E908016FF00F0202EB0111C0
:103F60000843218A5204490802EB4151A26841EA00
:103F700002210843217D4FF07E42490802EB416156
:103F80000843217B40EAC160E968324A1140084396
:103F9000E860286840F08070286000E05EE0E86833
:103FA00040F08070E860FFF7B5FA044605E000BF16
:103FB000FFF7B0FA001B022809D828688001F7D55E
:103FC0004CE000BFFFF7A6FA001B022802D903202D
:103FD000BDE8F88328688001F4D4E8681E490840E9
:103FE000E8603BE00128F3D0E868226A00F00301B2
:103FF000914226D1616A00F0F00209011039914224
:104000001FD1A26A00F4FE41B1EB022F19D194F83E
:104010002C2000F07841B1EBC26F12D1218E00F458
:10402000C00249084905A1F50011914209D194F84F
:10403000341000F0C06049084906A1F100718142C6
:104040000CD00120C4E70000001002402000002036
:10405000007000400C809F01FCFFEEFE0020B7E7DF
:1040600070B5040009D0606A002540B12561656122
:10407000A56294F85D0040B10CE0012070BD60685D
:10408000B0F5827FF4D0E561F2E784F85C50204619
:1040900000F05CF8022084F85D002068016821F0DF
:1040A00040010160E1684FF4E062914201D90020D3
:1040B00001E04FF48050B1F5706F02D0914200D012
:1040C000A562A188228901F4827102F4044211439D
:1040D000227C02F002021143227D02F00102114310
:1040E000228B02F400721143227F02F03802114346
:1040F00094F8202002F080021143228D02F4005235
:10410000114322681160A169042202EA114194F866
:10411000242000F4805002F01002114394F834205F
:1041200002F008021143A28902F4706211430143B4
:10413000206841602068C16921F40061C161256681
:10414000012084F85D00002070BD000010B586B02D
:10415000044614216846FCF74BF91249206888424E
:104160001ED11148016E41F480510166016E01F4C7
:1041700080510591C16C41F00101C164C06C012105
:1041800000F001000590A02000900220CDE901017F
:1041900003900520049069464FF09040FFF790F897
:1041A00006B010BD00300140001002402DE9F84F6C
:1041B000044690F85C000026984615468A46012879
:1041C0000CD0012784F85C70FFF7A4F9814694F8BD
:1041D0005D00B346012804D00226ACE00220BDE811
:1041E000F88FBAF1000F79D0002D77D0032084F832
:1041F0005D00C4F860B0C4F838A0A587E587C4F8AE
:1042000040B0A4F844B0A4F846B0C4F850B0C4F824
:104210004CB0A068B0F5004F09D12068016821F0CA
:10422000400101602068016841F48041016020681C
:104230000168490603D4016841F040010160E0686B
:10424000B0F5E06F606828D908B1012D1FD1A06BCF
:1042500021680088C86006E020688168890709D560
:10426000A16B0988C160A06B801CA063E08F401E19
:10427000E0870CE0FFF74EF9A0EB0901414503D3BD
:10428000B8F1FF3F03D006E0B8F1000F03D0E08F94
:104290000028E1D13BE003264BE008B1012D33D1EA
:1042A000E08F0128A06B03D921680088C8600FE067
:1042B00021680078087314E0E08725E020688168B1
:1042C000890714D5E18F0129A16B08D90988C1603C
:1042D000A06B801CA063E08F801EEDE727E00978CB
:1042E0000173A06B401CA063E08F401EE4E7FFF762
:1042F00011F9A0EB0901414503D3B8F1FF3F03D009
:10430000C9E7B8F1000FC6D0E08F0028D6D14A46E1
:104310004146204600F06FFC08B120202066A068CE
:1043200018B92068C16880680090206E08B1012625
:1043300001E084F85D7084F85CB030464FE710B55A
:10434000401EB0F1807F01D3012010BD4FF0E0246A
:1043500060610F21601700F080FE0020A06107203F
:104360002061002010BDFEE700EB8100006E00F030
:10437000F84070478068C0F3C00070478068C0F3A1
:10438000800070478068C0F380007047042303EA10
:10439000D15310B518444369C1F3045107248C402C
:1043A000A3438A401343436110BD00EB8100016EBB
:1043B00021F000411143016670472DE9F0410646A6
:1043C0001C4617460D462A2000F0F2F9304600F050
:1043D000B3F9384600F0B0F92B2000F0E9F92235A6
:1043E000A8B200F0A9F92234A0B200F0A5F9BDE806
:1043F000F0412C2000F0DCB970B504460021AB235D
:1044000040F23F120846FFF7D8FF104B00224FF44E
:10441000A075204600F05CFF23F81200521CAA424F
:10442000F7DB012240214FF09040FFF76DF80024A8
:104430004FF480754FF420762B46324603490448EA
:10444000FFF7B4FE641CAC2CF6DB70BDC800002086
:10445000C005002010B514460B460246FFF7ADFF1D
:104460002046BDE8104000F067B9000070B56F4D00
:104470004FF48064002221462846FFF745F8642067
:10448000FEF796FA012221462846FFF73DF84FF441
:104490009670FEF78DFA002261002846FFF734F887
:1044A0006420FEF785FA112000F082F9362000F032
:1044B0007FF9702000F058F93A2000F079F90520D2
:1044C00000F052F9B22000F073F90C2000F04CF922
:1044D0000C2000F049F9002000F046F9332000F0EC
:1044E00043F9332000F040F9B72000F061F935209E
:1044F00000F03AF9BB2000F05BF9352000F034F908
:10450000C02000F055F92C2000F02EF9C22000F058
:104510004FF9012000F028F9C32000F049F91320D9
:1045200000F022F9C42000F043F9202000F01CF92B
:10453000C62000F03DF90F2000F016F9D02000F061
:1045400037F9A42000F010F9A12000F00DF9D620D1
:1045500000F02EF9A12000F007F9E02000F028F982
:10456000F02000F001F9002000F0FEF8042000F037
:10457000FBF8042000F0F8F8042000F0F5F805201E
:1045800000F0F2F8292000F0EFF8332000F0ECF80A
:104590003E2000F0E9F8382000F0E6F8122000F0A4
:1045A000E3F8122000F0E0F8282000F0DDF83020D9
:1045B00000F0DAF8E12000F0FBF8F02000F0D4F889
:1045C000072000F0D1F80A2000F0CEF80D2000F00E
:1045D000CBF80B2000F0C8F8072000F0C5F8282021
:1045E00000F0C2F8332000F0BFF83E2000F0BCF825
:1045F000362000F0B9F8142000F0B6F8142000F0CE
:10460000B3F8292000F0B0F8322000F0ADF82120F6
:1046100000F0CEF8112000F0CBF87820FEF7C8F9B2
:10462000BDE87040292000F0C3B800000008004831
:104630002DE9FF5F89460646B0F5987F2ED8B9F17F
:104640009C0F2BD809F10F00203A83B21FFA82FA8F
:10465000F01D82B249463046FFF7AFFEDFF840B0AA
:10466000002500BF05EB0A1100241BF8017009EBBF
:104670000508F80706EB04001FFA88F180B201D0A4
:10468000039A00E00022FFF7E5FE641C7F08A4B255
:10469000082CEED36D1CADB2102DE3D3BDE8FF9F07
:1046A000465300082DE9F05F1746C51982460024DD
:1046B0004FF6FF709846894600EA47066D1EDDF802
:1046C00028B00FE009EB040083B281B2AAB25046D1
:1046D000FFF773FE04FB07F031460BEB400000F0E0
:1046E00053F8641C4445EDDBBDE8F09F2DE9F0472D
:1046F000994616460D4604464FF498774FF478488D
:1047000014E0BC4202D900241035ADB29C2D04D96E
:10471000002425464046FFF76FFE32784B46294677
:104720002046FFF785FF0834A4B2761C30780028B5
:10473000E7D1BDE8F087000001B50122BDF8000017
:10474000010241EA1020ADF8000040214FF09040F6
:10475000FEF7DAFE0A23022269460248FFF726FD29
:1047600008BD0000C005002001B5012240214FF026
:104770009040FEF7C9FE0A23012269460148FFF76F
:1047800015FD08BDC005002070B50C460546012288
:1047900040214FF09040FEF7B7FE22462946BDE883
:1047A00070404FF47A730148FFF700BDC005002048
:1047B00001B5002240214FF09040FEF7A5FE0A23EC
:1047C000012269460148FFF7F1FC08BDC005002041
:1047D0000FB470B514460D46064608AA0648079958
:1047E000FBF7C2FD2346044A29463046FFF77EFF09
:1047F00070BC5DF814FB00004800002030B58BB0A1
:10480000002408940994202168460A94FBF7F0FDDF
:104810003E484FF0A041042501604FF40021C0E95B
:10482000011485610121C460C0E904410477417726
:104830000821016280F82440C462046380F8384093
:10484000C46380F84040FDF71FFE08B1FDF7E9FAA8
:1048500008A92E480894FDF731FB08B1FDF7E1FAED
:104860002B4800900620CDE901047F200594CDE976
:10487000030569462548FDF7D1FB08B1FDF7D1FADC
:104880000C20019069462148FDF7C8FB08B1FDF7EF
:10489000C8FA1220019069461C48FDF7BFFB08B119
:1048A000FDF7BFFA1820019069461848FDF7B6FBDE
:1048B00008B1FDF7B6FA4FF48070019069461348CD
:1048C000FDF7ACFB08B1FDF7ACFA4FF48370019033
:1048D00069460E48FDF7A2FB08B1FDF7A2FA4FF4B6
:1048E0008670019069460948FDF798FB08B1FDF70D
:1048F00098FA4FF48970019069460448FDF78EFBE1
:10490000002801D0FDF78DFA0BB030BD4803002020
:10491000020030040D4808B5816C41F00401816447
:10492000816C01F004010091816C41F0010181640E
:10493000806C002200F00100009011460B20FEF771
:104940004FFEBDE808400B20FEF73CBE00100240C1
:1049500070B514481249012202C0002102C006238A
:1049600040F8081B042440F8041C00F8012B1F2504
:1049700000F8011B082200F8021B38C03CC01C23B1
:1049800060E80C23C0E90E210648FEF779FA08B169
:10499000FDF747FABDE870400248FDF7F3BE00009E
:1049A000006400401404002070B51448124901222C
:1049B00002C0002102C0062340F8081B042440F86E
:1049C000041C00F8012B1F2500F8011B082200F829
:1049D000021B38C03CC01C2360E80C23C0E90E2138
:1049E0000648FEF74DFA08B1FDF71BFABDE8704026
:1049F0000248FDF7C7BE00000068004078040020B0
:104A000070B513481149062302C0002102C00424D6
:104A100040F8081B1F2540F8041C00F8011B082261
:104A200000F8011B00F8021B38C03CC01C2360E8E2
:104A30000C23C0E90E210648FEF722FA08B1FDF763
:104A4000F0F9BDE870400248FDF79CBE006C0040E4
:104A5000DC0400202DE9F04786B014216846FBF7FE
:104A6000C7FC4948C16C41F00401C164C16C01F04C
:104A700004010591C16C41F02001C164C16C01F0D9
:104A800020010591C16C41F04001C164C16C01F08D
:104A900040010591C16C41F00101C164C16C01F09C
:104AA00001010591C16C41F00201C164C16C01F0CA
:104AB00002010591C16C41F00801C164C06CDFF8CE
:104AC000CC8000F0080043F6F064059000222146F7
:104AD0004046FEF719FD4FF090490022502148460C
:104AE000FEF712FDDFF8A8A04CF6BF67002239469A
:104AF0005046FEF709FD0126CDE900460024029448
:104B0000694640460394FEF7DBFB4FF44140032522
:104B1000CDE90005694602944046FEF7D1FBB0029C
:104B2000CDE90005694602941A48FEF7C9FB5020FA
:104B30000090CDE90164694648460394FEF7C0FB46
:104B40000097CDE90164694650460394FEF7B8FB2F
:104B50006802CDE90005694602944846FEF7B0FBBD
:104B60000420CDE90005694602940B48FEF7A8FB36
:104B70004FF4A070CDE90005694602945046FEF757
:104B80009FFB06B0BDE8F087001002400008004817
:104B90000004004800180048000C0048134810B5F5
:104BA000114901604FF4827141604FF4004181600E
:104BB0004FF4E061C16002210161012141614902BC
:104BC00081610821C1610021016207224162C0E9BF
:104BD0000A1201634163FFF743FA002803D0BDE8DE
:104BE0001040FDF71EB910BD00300140C005002087
:104BF000FEE7FEE77047F8B515460E460B460092F5
:104C0000044600224FF4C05100F01AF888B9334628
:104C1000002280212046009500F082F848B93346F2
:104C200000224FF4C0612046009500F009F80028EA
:104C300004D0206E40F0200020660320F8BD000064
:104C40002DE9FE4F4FF0000A984617460E460446DF
:104C50000C9D8DF804A0FEF75DFC411BA8EB01053F
:104C6000FEF758FC814620684FF4C06B0C30029070
:104C70002A480068C0EBC00000EB8000000D6843CC
:104C8000009043E05E4506D12FB9029800788DF878
:104C900004009DF80400B8F1FF3F37D0FEF73AFC5E
:104CA000A0EB0900A84203D215B1009858B32BE03D
:104CB0002068416821F0E00141606068B0F5827FC2
:104CC0000BD1A068B0F5004F02D0B0F5806F04D1D1
:104CD0002068016821F040010160A06AB0F5005F22
:104CE00009D12068016821F4005101602068016841
:104CF00041F400510160012084F85D0084F85CA05B
:104D00000320BDE8FE8F0025401E009020688068CB
:104D10003040B842B6D10020F3E700002C0000205C
:104D20002DE9F8431E46914688460446089DFEF745
:104D3000F1FB401B351AFEF7EDFB074625480068DE
:104D4000C0F3CB30684338E0701C37D0FEF7E2FB8D
:104D5000C01BA84203D215B1009860B32CE02068B4
:104D6000416821F0E00141606068B0F5827F0BD1BD
:104D7000A068B0F5004F02D0B0F5806F04D1206874
:104D8000016821F040010160A06AB0F5005F09D11F
:104D90002068016821F4005101602068016841F435
:104DA00000510160012084F85D00002084F85C005F
:104DB0000320BDE8F8830025401E0090206881682C
:104DC00038EA010004D000214945BDD10020F0E7B8
:104DD0000121F9E72C0000207047FEF7A1BB10B5B8
:104DE00094B038216846FBF703FB14210EA8FBF7AB
:104DF000FFFA0020FEF726FC01210804CDE900108F
:104E00000324CDE9084102200A21CDE90A100790C8
:104E10000C900D906846FEF721FF08B172B6FEE7D0
:104E20000F20CDE90E040020109011901290012166
:104E30000EA8FEF7EDFD002801D072B6FEE714B013
:104E400010BD00000248016841F470010160704724
:104E500088ED00E010B50F210848FBF7C9FA0748B4
:104E60002C212C38FBF7C4FA002004497D220A5477
:104E7000401CC0B20328FAD310BD00005006002029
:104E800070B504460B9B032818D21D481D4D091808
:104E900005EB040013D01C4AD14201D119780176E8
:104EA000C17E491CC176FEF735FB05EB8401086223
:104EB000FEF730FB13493C3141F8240070BD05EB8F
:104EC000C40219681160596851600E4993782C31F9
:104ED0007C2B03D07D2B01D07E2B00D10B5552793A
:104EE000C2F38103012B06D10A1996791EB9D6782F
:104EF00026B10026D67021448B71D1E70126F9E74F
:104F0000FB01FEF32406002000FE02F370B5FEF75D
:104F100001FB374C6060FCF7D5FE0520FDF748FD2E
:104F2000FCF70AFF2078032801D300202070314DC0
:104F3000C0B255F8200060B1FEF7ECFA217855F8C0
:104F40002110401A41F28831884205D24FF4FC62A8
:104F500004E04FF6E07201E04FF47842254B2078F0
:104F6000103B28211D5C7C2D04D07D2D10D07E2D82
:104F70002AD11BE00344DB78002B00EBC00303EBDA
:104F8000001001EB400101D01BA31AE01CA318E0A4
:104F90000344DB78002B00EBC00303EB001001EBB4
:104FA000400101D018A30CE019A30AE00344DB7808
:104FB000002B00EBC00303EB001001EB400114D009
:104FC00015A37820FFF704FC2078401C2070FEF722
:104FD000A1FA6168401A642809D2FEF79BFA616859
:104FE000BDE87040401AFDF7E3BC0DA3E9E770BDD2
:104FF0000C00002060060020205220450000000028
:105000002052205000000000204E204500000000EB
:10501000204E2050000000002044204500000000E9
:105020002044205000000000FEE703B40198410036
:10503000009850EAC12018BF04204A0D18BF40F064
:10504000010040F2FF72B2EB515F08BF40F0020076
:10505000012808BF052002B070470907090E002883
:1050600004DB00F1E02080F80014704700F00F002E
:1050700000F1E02080F8141D7047000010B50948C9
:1050800000F0F4F800200849024600BF00EB40039E
:10509000401CCA540828F9D3BDE81040014800F06C
:1050A00001B90000000000203000002030380A283C
:1050B00001D20120704700207047000010B50400A5
:1050C0000AD00B4800F0D2F820680178012907D0F7
:1050D00072B6FCF7A6FEFEE772B6FCF7A2FEFEE78C
:1050E000401C00F0C3F8BDE81040014800F0DAB8F9
:1050F0000000002010B504000AD00B4800F0B6F8FC
:1051000020680178012907D072B6FCF78AFEFEE715
:1051100072B6FCF786FEFEE700210170BDE8104084
:10512000014800F0BFB800000000002010B50400E6
:105130000ED0134800F09AF81248002101EB41020A
:10514000825C3AB1491C0829F8D30D4800F0AAF84E
:10515000002010BD01EB41010844012120600170D5
:105160002068401C07D0002101704170044800F005
:1051700099F8012010BD72B6FCF753FEFEE700005F
:10518000000000203000002010B504000AD00B48B9
:1051900000F06CF820680178012907D072B6FCF79E
:1051A00040FEFEE772B6FCF73CFEFEE7401C00F056
:1051B00079F8BDE81040014800F074B80000002004
:1051C00008B5FEF7B5F9FFF70AFEFFF743FCFFF756
:1051D000A1FBFFF7BDFBFFF7E7FBFFF711FCFFF7B4
:1051E000DDFCFFF70BFBFFF741F90020FFF704F9A7
:1051F000164800210090AC234FF4A0720846FFF738
:1052000051FA13A34FF4784214210020FFF7E0FA7B
:105210004FF6E07413A3224628217820FFF7D8FA2E
:1052200010A322465A217820FFF7D2FA0DA3224676
:105230008C217820FFF7CCFA4FF47A70FDF7B8FB99
:10524000FFF708FEFFF762FEFCE700003659000892
:105250003E204B313520546573742053746174695A
:105260006F6E0000205220500000000010B5EFF3D8
:10527000108101F0010272B6BFF34F8FBFF36F8F41
:1052800020B1417831B1FF2908D004E072B6FCF7B3
:10529000C8FDFEE70270491C417010BD72B6FCF7F4
:1052A000C0FDFEE710B558B1417869B1491E11F053
:1052B000FF01417003D10078002800D162B610BD13
:1052C00072B6FCF7AEFDFEE772B6FCF7AAFDFEE78C
:1052D000010241EA102080B27047000010B5002999
:1052E0000AD00878002807D005487844FCF7D8F899
:1052F000002801D0002010BD0248784410BD0000F5
:105300008AB5010082B5010010B500290AD00878DD
:10531000002807D005487844FCF7C2F8002801D0DF
:10532000002010BD0248784410BD00007AB501008D
:1053300072B501004FF04070E1EE100A7047FBF7C4
:10534000BCBCFBF7F1BD0000000000000000000045
:105350000000000000000000000808080808080815
:1053600000001818000000486C2412000000000023
:105370000000000000000000002424247F1212120C
:105380007F12121200000000081C2A2A0A0C18289A
:10539000282A2A1C080800000022251515152A585D
:1053A0005454542200000000000C1212120A7625F8
:1053B0002911916E000000060604030000000000A1
:1053C0000000000000000040201010080808080835
:1053D00008101020400000020408081010101010DF
:1053E0001008080402000000000008086B1C1C6B79
:1053F00008080000000000000000080808087F08F6
:105400000808080000000000000000000000000084
:105410000000060604030000000000000000FE007B
:10542000000000000000000000000000000000007C
:1054300000000606000000008040402020101008F8
:1054400008040402020000000018244242424242C2
:10545000424224180000000000080E08080808084E
:105460000808083E00000000003C42424220201094
:105470000804427E00000000003C42422018204008
:105480004042221C00000000002030282424222258
:105490007E20207800000000007E0202021A2640D2
:1054A0004042221C0000000000382402021A26425A
:1054B0004242241800000000007E2222101008083A
:1054C0000808080800000000003C4242422418245A
:1054D0004242423C0000000000182442424264580C
:1054E0004040241C000000000000000018180000CC
:1054F0000000181800000000000000000008000074
:105500000000000808040000004020100804020405
:105510000810204000000000000000007F00000094
:105520007F0000000000000000020408102040205E
:105530001008040200000000003C424246402010D7
:105540001000181800000000001C225A555555552F
:105550002D42221C00000000000808181414243CEE
:10556000224242E700000000001F2222221E2242A7
:105570004242221F00000000007C42420101010162
:105580000142221C00000000001F2242424242420F
:105590004242221F00000000003F4212121E12125F
:1055A0000242423F00000000003F4212121E12124F
:1055B0000202020700000000003C222201010171EA
:1055C0002122221C0000000000E7424242427E42AB
:1055D000424242E700000000003E080808080808B0
:1055E0000808083E00000000007C10101010101089
:1055F00010101010110F0000007722120A0E0A126C
:1056000012222277000000000007020202020202BA
:105610000202427F000000000077363636362A2A22
:105620002A2A2A6B0000000000E346464A4A5252EA
:105630005262624700000000001C2241414141418A
:105640004141221C00000000003F424242423E0213
:105650000202020700000000001C224141414141BA
:105660004D53321C60000000003F4242423E121285
:10567000222242C700000000007C4242020418209F
:105680004042423E00000000007F49080808080828
:105690000808081C0000000000E742424242424263
:1056A0004242423C0000000000E74242222424140F
:1056B0001418080800000000006B49494949555575
:1056C000362222220000000000E742242418181885
:1056D000242442E700000000007722221414080866
:1056E0000808081C00000000007E2120101008049B
:1056F0000442423F0000007808080808080808082B
:1057000008080808780000000202040408080810CD
:10571000102020204040001E1010101010101010FB
:10572000101010101E00003844000000000000009F
:105730000000000000000000000000000000000069
:105740000000000000FF000608000000000000004C
:10575000000000000000000000000000003C427853
:10576000444242FC0000000000030202021A2642EA
:105770004242261A000000000000000000384402E7
:10578000020244380000000000604040407844427B
:10579000424264D80000000000000000003C427E4D
:1057A0000202423C0000000000F08808087E080861
:1057B0000808083E0000000000000000007C2222D3
:1057C0001C023C42423C000000030202023A4642F4
:1057D000424242E700000000000C0C00000E0808E6
:1057E0000808083E0000000000303000003820208B
:1057F00020202020221E0000000302020272120A52
:105800001612227700000000000E08080808080899
:105810000808083E0000000000000000007F92928F
:10582000929292B70000000000000000003B464248
:10583000424242E70000000000000000003C4242FB
:105840004242423C0000000000000000001B2642D3
:105850004242221E0207000000000000007844427D
:105860004242447840E000000000000000774C0411
:105870000404041F0000000000000000007C42023D
:105880003C40423E0000000000000008083E0808BE
:1058900008080830000000000000000000634242D9
:1058A000424262DC000000000000000000E74224E9
:1058B00024140808000000000000000000EB494923
:1058C0005555222200000000000000000076241838
:1058D0001818246E000000000000000000E74224B9
:1058E000241418080807000000000000007E2210A1
:1058F0000808447E000000C0202020202010202026
:1059000020202020C00010101010101010101010B7
:1059100010101010101000060808080808100808D9
:105920000808080806000C32C20000000000000051
:1059300000000000000064B46CB46CB46CD46CD48F
:105940006CD46CB46CD46CD46CD474D474D47CF437
:105950007CF47CF47CF47CF47CF484F484F484F4AF
:1059600084F484F484F484F48CF48CF48CF48CF457
:105970008CF48CF48CF48CF48CF48CF48CF48CF427
:105980008D148D148CF48CF48CF48CF48CF48CF4D5
:105990008CF48CF48CF48CF48D148CF48CF48D14C5
:1059A0008D148D148CF48CF48CF48CF48CF484F4BD
:1059B00084F484F484D48CF48CD48CD48CF48CF45F
:1059C0008CF48CF48CF48CF48CF48CF48CF48D14B6
:1059D0008D148D148D148CF48CF48CF48CF48CF464
:1059E0008CF48D148D148D148CF48CF48CF48CF454
:1059F0008CF48CF48CF48CF48CF48D148CF48CF486
:105A00008CF58CF58CF48CF48CF48CF48CF48CF494
:105A10008CF48D148D148D148CF48CF48CF48CF423
:105A20008CF48CF48CF48CF484D48CF48CF48CF59D
:105A30008D158D158D158D158D148D148D148D145A
:105A40008D148D148D148D148D158D158D158D154A
:105A50008D158D158D158D158D158D158D148D1438
:105A60008D148D148D158D158D148D148D158D152A
:105A70008D148D148D148D148D148D148CF48D143F
:105A800084F484F484F484F484F484F484F484F456
:105A900084F484F484F37C904AC84AE74B084309B1
:105AA000430943083B083B083AE83AA742E8430960
:105AB00043093AE932C932C83AE83AC832C932C869
:105AC00033093B4843A843A7438543834BA24BA1DB
:105AD0004BA14BA14BA14B814B8343A73C0E3411EF
