:020000040800F2
:10000000A0090020ED010008213E00089D2B0008FA
:100010001D3E0008750700085D4000080000000054
:100020000000000000000000000000004140000847
:100030008507000800000000253E00084540000834
:10004000070200080702000807020008070200086C
:10005000070200080702000807020008070200085C
:1000600007020008070200080702000879070008D5
:10007000070200080702000807020008070200083C
:10008000070200080702000807020008070200082C
:100090000702000895070008070200080702000889
:1000A000070200080702000807020008070200080C
:1000B00007020008070200080702000807020008FC
:1000C00007020008070200080702000807020008EC
:1000D00007020008070200080702000807020008DC
:1000E00007020008070200080702000807020008CC
:1000F00007020008070200080702000807020008BC
:1001000007020008070200080702000807020008AB
:10011000070200080702000807020008070200089B
:10012000070200080702000807020008070200088B
:10013000070200080702000807020008070200087B
:10014000070200080702000807020008000000007C
:10015000000000000000000000000000000000009F
:10016000000000000000000000000000070200087E
:10017000070200080702000807020008070200083B
:10018000070200080702000807020008070200082B
:100190000702000800000000A1070008070200088D
:1001A000AD07000807020008070200080702000860
:1001B00007020008070200080702000807020008FB
:1001C00007020008070200080702000807020008EB
:1001D0000702000807020008DFF80CD000F02AFA36
:1001E0000048004761400008A009002006488047F9
:1001F00006480047FEE7FEE7FEE7FEE7FEE7FEE70C
:10020000FEE7FEE7FEE7FEE749400008D9010008E7
:10021000D2B201E000F8012B491EFBD27047002248
:10022000F6E710B513460A4604461946FFF7F0FFF5
:10023000204610BD30B50B46014600202022012487
:1002400009E021FA02F59D4205D303FA02F5491BA4
:1002500004FA02F52844151EA2F10102F1DC30BDBA
:100260002DE9F05F0546002092469B4688460646EB
:10027000814640241BE0284641464746224600F07E
:10028000FAF953465A46C01A914110D311461846FE
:10029000224600F0E1F92D1A67EB01084F4622468D
:1002A0000120002100F0D8F917EB00094E41201E73
:1002B000A4F10104DFDC484631462A464346BDE846
:1002C000F09F2DE9FE4F804681EA0300C00F0C46E7
:1002D000009021F0004123F00045B8EB0200A94155
:1002E00005D24046214690461C460B46024623F066
:1002F0000040104347D0270DC7F30A00C3F30A514B
:100300000290401A019040286BDAC3F3130040F4C6
:10031000801B0098924620B10023D2EB030A63EBC6
:100320000B0B01985946C0F14002504600F094F979
:1003300006460D4650465946019A00F0ACF910EBBE
:1003400008006141002487EA115284EAE7731A43E6
:1003500040D0009A62B3019A012A4FEA075215DC95
:10036000001B61EB02014FF0004202EA0752CDE9A7
:100370000042001C41F5801132462B4600F0ACF9DA
:1003800003B0BDE8F08F40462146F9E7001B61EB62
:100390000201001C41F5801300185B412018A2F5F2
:1003A000001747EB030140EAD570B6196D4111E023
:1003B0006D084FEA360645EAC0754FEA0752001B42
:1003C00061EB0201001C41F5801149084FEA300041
:1003D0000019514132462B4603B0BDE8F04F00F002
:1003E0006CB90098012240000023D0EB020263EBBD
:1003F000E073009821464FEAE074B8EB000061EB2F
:100400000401E9E783F000435BE781F0004158E72E
:100410002DE9FE4F81EA030404F0004421F000417D
:1004200000944FF0000B23F0004350EA01045ED02B
:1004300052EA03045BD0C3F30A54C1F30A552C44B7
:10044000A4F2F3340194A0FB0254C1F3130141F46C
:100450008011C3F3130343F4801301FB024400FB38
:10046000034E840A970A44EA815447EA8357A4FB5F
:10047000076802958D0A05FB07854FEA932C04FB5C
:100480000C542705029D4FEA065847EA1637B5EB8C
:1004900008056EEB070C870E920E47EA811742EAB9
:1004A0008312A7FB0201B6EB0B0164EB00042B0DDA
:1004B00043EA0C335E1844EB1C50DA465146E7FB26
:1004C0000201C5F313044FEA0B3343EA14534FEA16
:1004D0000432019C43EA0603A4F10C040294009C3C
:1004E000CDE900B400F0F8F803B0BDE8F08F0020CB
:1004F0000146F9E72DE9F04D81EA030404F0004BD1
:1005000021F0004514464FF0000A23F0004150EA64
:10051000050220D054EA01021DD0C5F30A57024655
:10052000C5F31303C1F31300C1F30A5640F4801559
:1005300043F48013A7EB0608101BD64608F2FD38DB
:1005400073EB050002D308F1010801E092185B414A
:10055000B8F1000F03DA00200146BDE8F08D00205D
:100560004FF48011064684460EE0171B73EB050717
:1005700005D3121B63EB050306434CEA010C490843
:100580004FEA300092185B4150EA0107EDD152EA80
:10059000030012D082EA040083EA0501084305D073
:1005A000101BAB4106D20122002306E000224FF0CF
:1005B000004302E06FF0010253101AEB06004CEB0F
:1005C000085110EB0A0041EB0B01BDE8F04D00F0C3
:1005D00074B8C1F30A52C1F3130140F2FF3341F47E
:1005E00080119A4202DA00200146704740F23343FC
:1005F0009A42A2F2334202DC524200F03CB800F0D0
:100600002BB8000030B5041E71F1000404DB4FF07C
:100610000044404264EB0101141E73F1000405DB49
:100620001C464FF00043524263EB0403994208BF5B
:10063000904230BD064C074D06E0E06840F00103F3
:1006400094E8070098471034AC42F6D3FFF7C8FD92
:100650002CFF01084CFF0108202A04DB203A00FA95
:1006600002F1002070479140C2F1200320FA03F309
:10067000194390407047202A04DB203A21FA02F007
:100680000021704721FA02F3D040C2F120029140CC
:10069000084319467047202A06DBCB17203A41FA57
:1006A00002F043EAE07306E041FA02F3D040C2F1FF
:1006B0002002914008431946704710B5141E73F18B
:1006C000000408DA401C41F1000192185B411A4312
:1006D00001D120F0010010BD2DE9F04D92469B465E
:1006E00011B1B1FA81F202E0B0FA80F22032904604
:1006F000FFF7B2FF04460F4640EA0A0041EA0B0149
:1007000053465A46084313D0114653EA010019D004
:10071000C8F140025046FFF7AEFF05460E46504670
:1007200059464246FFF798FF084305D0012004E0F0
:1007300020463946BDE8F08D0020054346EAE076C4
:100740002C4337430A986305E40AA0EB0800002213
:10075000FD0A44EA47540A3002D500200146E9E781
:10076000010510196941DDE9084500196941BDE835
:10077000F04DA2E7FEE7000040F22C10C2F20000AC
:1007800000F05CBC70470000EFF3108072B600BF51
:10079000FEE7000040F28C10C2F2000000F0B6BD8F
:1007A00040F2F010C2F2000000F0B0BD40F2542060
:1007B000C2F2000000F0AABD70B582B090F85820D7
:1007C000012A03D10221084602B070BD0022019225
:1007D0000092026840F2080CC5F2000CB2F1A04F82
:1007E0000CF1F80508D040F20043C5F200039A422C
:1007F0003ED10CF59F6300E02B469B689468234331
:100800005B0735D44FF4E063D1F800E0AA4208BF9B
:100810004FF44073B2F1A04F08BF4FF440735CF83F
:100820000340BEF1000F24F460442DD04D6890F8D1
:1008300038602C4340F2001542F48072C5F2000586
:1008400044EA4634AA424CF8034037D1DCF8002091
:10085000DCF800412243D2073AD15CF803208968D2
:1008600040F61F74A24341EA0E01114322E000BF8B
:10087000C16D41F02001C1650121002280F858209E
:10088000084602B070BD00BF42F4807140F2001211
:10089000C5F2000291424CF803401BD1DCF8001075
:1008A000DCF800211143C9071ED15CF8031040F6A3
:1008B0001F7291434CF803100021DEE7DCF800447E
:1008C000DCF80055DCF800262C432243D207C4D0C4
:1008D0000021D2E7DCF80024DCF80065DCF8001623
:1008E00032431143C907E0D00021C6E7F0B581B01B
:1008F0000022009290F85820012A03D102210846D4
:1009000001B0F0BD0123076880F85830BB685B0771
:1009100034D4D1E900531F26C3F3012407EB840428
:10092000226B03F01F039E40B243C5F3846606FAB0
:1009300003F31A432263BA68BB68DB0843EA9202F6
:10094000D20740F0BC800A6807F114030426C2F302
:100950004064D1F808E006EAD25C53F82440C2F3C0
:1009600004550722AA40BEF1004F24EA02040BD12D
:1009700043F80C401A6842F000430DE0C16D41F0AD
:100980002001C16501219DE10EFA05F2224343F8E1
:100990000C201A6822F000437B61D1E90435FC6821
:1009A000042B5FD13A6E3A6E0B68C2F3846293FAFD
:1009B000A3F6C3F3846C6FF3DF43B6FA86F5002B1E
:1009C0002C464FF6FF7E08BF6446A242C0F2070ED7
:1009D0000CD13A6E22F000423A660A6802EA0E032F
:1009E000C2F3846C92FAA2F2B2FA82F57A6E7A6E4F
:1009F000002BC2F384622C4608BF6446A2420CD18D
:100A00007A6E22F000427A660A6802EA0E03C2F3A6
:100A1000846C92FAA2F2B2FA82F5BA6EBA6E002B28
:100A2000C2F384622C4608BF6446A2420CD1BA6E5F
:100A300022F00042BA660A6802EA0E03C2F3846C2E
:100A400092FAA2F2B2FA82F5FA6EFA6E002BC2F3B3
:100A5000846208BF6546AA4231D1FA6E22F0004294
:100A6000FA662CE0062202EA940205FA02FC0E68FD
:100A700007F1600555F823404FF20002C0F2FF3243
:100A800006F0F846224046EA0C06324342F00042A5
:100A900045F823200A698B6955F8226026F0807694
:100AA000334345F822300A690B7F55F82260012B49
:100AB00026F0007608BF06F1007645F82260BA6895
:100AC000D20750D10D68CA68D7F8B0602B466FF3D3
:100AD000DF4326EA030C4FF6FF7602F01804C0F25B
:100AE0000706E64000242E40C4F27F0446EA0C06C6
:100AF000A242C7F8B06036D193B195FAA5F2B2FA26
:100B000082F2013202F01E03092B02F01F0310D8FB
:100B100001229A4003EB430342EA035315E000BF6E
:100B2000012202EB956202F01E030A2B02F01F0362
:100B3000EED3012200269A4003EB4303CFF6206652
:100B400006EB03531A4342F00073C3F3406607EB0E
:100B500086068A687569C3F3045307249C40A5433D
:100B60009A402A4372610B680021C8F208010B42C7
:100B700066D040F2003EC5F2000EAEF500710EF5F3
:100B800080648F4204BF40F20034C5F20004214665
:100B9000B7F1A04F04BF40F20031C5F200018D68EB
:100BA0000022CCF22132934205F0E07C04D01022E6
:100BB000C9F2C002934245D12A0261D440F20062D8
:100BC000C5F20002974202D0B7F1A04F5AD18A680D
:100BD00022F0E07242EA0C0242F400028A6040F223
:100BE0000801C2F20001096842F663528909C0F2A5
:100BF0003E52A1FB0212910901EB41010C2202EBD2
:100C0000810100910099002948D000990139009193
:100C10000099002944D000990139009100990029D8
:100C200040D0009901390091009900293CD00099E9
:100C300001390091009900294FF00001E5D141E010
:100C400000213FE00022CCF25272934208BF15F01F
:100C5000807219D00021CCF684318B424FF0000114
:100C600008BF15F480022DD1B7F1A04F1FD040F27C
:100C70000011C5F200018F4218D1002122E000BF0F
:100C800000211FE000211DE08A6822F0E07242EAA4
:100C90000C0242F080728A60002113E0002111E012
:100CA00000210FE000210DE000210BE0A646DEF858
:100CB000081021F0E07141EA0C0141F48001CEF806
:100CC00008100021002280F85820084601B0F0BD2D
:100CD000B0B582B00446002001904CB1E06D58B12F
:100CE00021688868800012D48868C00019D54CE05B
:100CF000012002B0B0BD00BF204600F023F9002063
:100D0000206684F85800216888688000ECD58868DF
:100D10004FF6C072C5F6FF72104088608868C00048
:100D200033D44FF6C0728868C5F6FF7202F1805264
:100D3000104000F18050886040F20800C2F20000CC
:100D4000006842F663528009C0F23E52A0FB0202E4
:100D50009009022202EB400001900198A8B100BF67
:100D6000019801380190019878B1019801380190FB
:100D7000019850B1019801380190019828B101986B
:100D80000138019001980028EAD18868C00009D490
:100D9000E06D40F01000E065206E40F0010020663C
:100DA000012000E000208A68E36DC2F3800203F0B6
:100DB0001003D218E26D05D042F010010120E16568
:100DC00002B0B0BD22F481720232E2658A68D207B5
:100DD00029D140F2001341F48072C5F2000340F2C1
:100DE000080C9A42C5F2000C6CD1DCF80030DCF83B
:100DF00000211A43D20716D10CF1F8024FF4E06338
:100E0000D4F804E0914208BF4FF44073B1F1A04F11
:100E100008BF4FF440735CF8032022F47C1242EACE
:100E20000E024CF80320627FE36B43EA4232D4E9BE
:100E300002C31A4394F8243042EA0C02012B42EA1E
:100E4000034207D1D4F828C00023CFF6FE7303EB8A
:100E50004C431A43E36A33B103F47873D4F830C0D7
:100E60001A4342EA0C02D1F80CC044F20703CFF651
:100E7000F07303EA0C031A43CA600A69636B22F039
:100E800040621A430A618A6812074AD494F83820EB
:100E9000237F520042EA833CCB6844F2020223EAF9
:100EA000020242EA0C02CA6022690B69B2B143F441
:100EB00080330B61D1F8C0C043F6FF732CEA030303
:100EC0001A4313E0DCF800E4DCF80025DCF8003617
:100ED00042EA0E021A43D2078ED0A4E723F48032EE
:100EE0000A61D1F8C02043F6FF739A43C1F8C020CD
:100EF00094F840300A69012B10D140F2FD7322EAC8
:100F0000030CD4E91132D4E913E543EA0C031A4384
:100F100042EA0E022A4342F0010201E022F00102FD
:100F20000A6162690B6B012A23F00F0202D1236A66
:100F3000013B1A430A63E16D012262F30101E1659D
:100F400002B0B0BD2DE9F0419CB0044600201B90DA
:100F5000CDE91900CDE9170002A804305021FFF7B0
:100F60005EF92068B0F1A04F02D01CB0BDE8F0815E
:100F70004FF4004002904FF00050139002A800F090
:100F8000DDFE002818BFFFF7FFFB41F24C00C4F262
:100F90000200016817AD41F40051016001684FF093
:100FA0000F0801F40051019101990168032741F0F4
:100FB000040101600168002601F00401019101991A
:100FC000016841F0010101600068294600F001005C
:100FD0000190019840F60000C4F60000CDF85C8056
:100FE0001897199600F05CFC4FF090402946CDE927
:100FF0001787199600F054FC40F22C150820C2F215
:101000000005C4F20200052180224FF480734FF4E2
:10101000806785E843002846C5E90362C5E90537CE
:10102000C5E9076600F064F8002818BFFFF7ACFBBD
:101030006565AC621CB0BDE8F0810000B0B5026827
:10104000D0E910C4DCF80050136804F01F0E5907F3
:1010500014D5042101FA0EF414EA05010ED011682A
:10106000890603D4116821F004011160CCF8044012
:10107000016B00293AD0BDE8B0400847990719D55F
:10108000022101FA0EF414EA050113D01168890651
:1010900006D4116821F00A011160012180F82510A1
:1010A000CCF80440C16A002280F82420F1B1BDE8E8
:1010B000B0400847190719D5082101FA0EF1294057
:1010C00008BFB0BD116821F00E011160012101FAC5
:1010D0000EF2CCF80420C16380F82510416B002289
:1010E00080F8242011B1BDE8B0400847B0BD000031
:1010F00000284FF0010100F08E802DE9F04740F20A
:10110000000CC4F2020C03684FF6F8320CF5816E45
:10111000CBF6FD72734538BF02F580624CF6CD44C4
:101120001A44CCF6CC44A2FB04286FF0070252FA12
:1011300083F2A2FB04290CF580656FF00304D0E96B
:101140000262D0F810A03CBF0025C4F2020504EAF8
:101150009804C0E91054022580F825501D6847F610
:10116000F07725EA070737433A43476942EA0A021C
:1011700085693A43C7692A43056A3A432A431A6094
:101180000CF50262734538BF0CF50062A3180CF52C
:101190000862C264C9F3041240F6840C01FA02F238
:1011A000B6F5804FC4F2020C8364026506D10021BB
:1011B00041601960CCF800201EE000BF41685FFA72
:1011C00081FE013903294FF00001C3F800E0CCF89B
:1011D000002011D8AEF101020CEB820747F87C1F0A
:1011E00002F01F01012202FA01F30CF1BC023946A0
:1011F000CCF8C03002E000BF0022002300F1540C04
:101200008CE80E0000210122C16380F8252080F8BF
:101210002410BDE8F047084670470000B0B504460A
:1012200000F032FC054640F20000C2F200004068C7
:10123000611C18BF044400BF00F026FC401BA04204
:10124000FAD3B0BD2DE9F04190F85C30022B15D1F6
:10125000D0F80080D8F8C4309B0217D4D8F8C44026
:10126000D1E9013E0D69C4F3014CBBB10B6845EAFD
:101270000E052B4343F0804E15E000BF016E41F098
:10128000080101660120BDE8F08100BF016E41F454
:10129000007101660120BDE8F08100BF0B6845EADE
:1012A0000E0545EA834E01F11407B8CF45EA0765FC
:1012B000CE682C432343456D43EA06440CEBCC0631
:1012C00005EBC60345F836E05C60CF687FB145F2B8
:1012D0000415083303320024C0F60005171957F827
:1012E000037C1F51CF680434EF5DBC42F6D301216B
:1012F00001FA0CF1C8F8CC1081650020BDE8F0813E
:101300007047000070470000704700002DE9F04F63
:1013100085B004460068016D426D056DD0F85490AB
:10132000D0F850A0D0F85480036D01EA020B04936A
:10133000436D0393036D0293436D0193436D076DFA
:101340001F407B065AD405EA0906F8050BF4E05560
:101350005FD408EA0A0806F007062DB1206829467E
:101360000565204600F098FA08F038052EB120688F
:1013700031460665204600F083FA2DB120682946E3
:101380000565204600F07EFAB80555D438065CD4D1
:10139000B80467D43804DDE9011000EA010506D578
:1013A00020684FF400410165204600F06DFADDE948
:1013B00003100840790405F4602107D522684FF432
:1013C00080431365226E42F08002226600F47105AC
:1013D00021B1206801652046FFF794FF25B1206800
:1013E0000565206E28432066206E002848D02046E0
:1013F00005B0BDE8F04FFFF783BF00BF4021016596
:101400002046FFF781FF05EA0906F8050BF4E055D1
:101410009FD52068D0F8D810D0F8E02011404FF4C4
:1014200080720265204600F033FA08EA0A08002DAF
:1014300006F0070692D197E720684FF40071016526
:10144000204600F02BFA3806A2D52068D0F8D41038
:10145000D0F8DC20114080220265204600F01AFA04
:10146000B80497D520684FF400510165204600F07C
:101470000DFA3804DDE9011000EA010590D496E781
:1014800005B0BDE8F08F000070B5D8B1044690F803
:101490005C0028B9002084F85D00204600F020F9A7
:1014A0002068816921F01001816100F0EDFA0546A4
:1014B00020688169090707D500F0E6FA401B0B2870
:1014C000F6D312E0012070BD816941F00101816114
:1014D00000F0DAFA054600BF20688169C9070DD11E
:1014E00000F0D2FA401B0B28F6D3206E032140F007
:1014F00001002066012084F85C1070BD826946F20C
:10150000004CC4F2000C42F002026045826102D13C
:101510006268CCF80021227C8369012A23F0400311
:1015200018BF40338361627C8369012A23F48043BE
:1015300008BF03F580438361A27C8369012A23F4F9
:10154000805318BF03F5805383618269D4E902E3B5
:1015500022F4407545EA0E058561856925F0A405EC
:101560008561056925F010050561ABB1022B0FD02F
:10157000012B03D1836943F004030CE08569032B3D
:1015800045F080058561056945F01005056103D1C9
:10159000836943F02003836104F114052ACD226A94
:1015A0005E1E6FF0FF0303EB052545EA4665013A31
:1015B0002A430025CFF6FF7505EB01411143BEF527
:1015C000407FC16110D1D4E909E2D4E90B61013A4D
:1015D00003EB06231A436FF00F0303EB01111143D2
:1015E00005EB0E421143C160D4E90D13E26BD0F854
:1015F000C0603243C0F8C0200CF580660CF5804214
:10160000B04204BF4AF25072C4F200020CF5006608
:10161000B04208BF02F5D4622264D0F8806026F49C
:10162000F81646EA0141C0F8801002F170016164C9
:10163000D0F8801021F0706141EA0361C0F8801099
:1016400002F1B000A06402F5C470E06402F5187005
:10165000206502F51E70606502F55470002100BF20
:10166000C2E90011C2E90211C2E90411C2E906117E
:10167000C2E90811C2E90A11C2E90C11C2E90E114E
:10168000C2E91011C2E91211C2E91411C2E916111E
:10169000C2E91811C2E91A11C2E91C11C2E91E11EE
:1016A000C2E92011C2E92211C2E92411C2E92611BE
:1016B000C2E92811C2E92A11C2E92C11C2E92E118E
:1016C000C2E93011C2E93211C2F8D010D4328242DC
:1016D000C6D300200121A065206684F85C1070BD8F
:1016E00010B59CB0044600201B90CDE91900CDE94F
:1016F000170002A85421FEF792FD206846F600412B
:10170000C4F2000188423FD046F60001C4F2000155
:1017100088426DD046F20041C4F20001884240F098
:10172000AC804FF4805002904FF00070109002A8EF
:1017300000F004FB002818BFFFF726F840F23C0138
:10174000C2F200010A6841F24C00C4F20200531CCC
:101750000B6042B9C16841F00071C160C16801F01D
:101760000071019101990168152441F001010160A6
:101770000068092100F00100019001984FF4C05069
:1017800017904FF0904067E04FF4805002904FF078
:101790000070109002A800F0D1FA002818BFFEF7E0
:1017A000F3FF40F23C01C2F200010A6841F24C0032
:1017B000C4F20200531C0B6042B9C16841F00071D1
:1017C000C160C16801F0007101910199016858245C
:1017D00041F00101016000680B2100F0010001905F
:1017E00001984FF4014017904FF0904034E000BF53
:1017F0004FF4805002904FF00070109002A800F05B
:101800009DFA002818BFFEF7BFFF40F23C01C2F26C
:1018100000010A6841F24C00C4F20200531C0B6044
:1018200042B9C16841F00071C160C16801F0007146
:10183000019101990168562441F00201016000689C
:10184000092100F00200019001984FF440501790D8
:1018500040F20040C4F600000222189200221B91C0
:1018600017A9CDE9192200F01BF82046002100221B
:1018700000F080F9204600F06DF91CB010BD0000AA
:10188000704700007047000070470000704700007C
:10189000704700007047000070470000704700006C
:1018A0002DE9F04F84B00C680190002C00F0E2802C
:1018B000019841F2004600F13842C4F600068E4617
:1018C0004FEAB2270621B04208BF0521052F4FF08D
:1018D00000054FF001074FF000064FF0000838BF39
:1018E0004FEAB2210091CDF808E00DE0DEF80040AB
:1018F00008F1010834FA07F106F1020607F10107C1
:1019000005F1040500F0B680A7F1010A012000FAF4
:101910000AF214EA0209E9D0DEF804C00CF0030B65
:10192000ABF10104012C17D8019874468168032398
:10193000E468B3409943B4402143816041684FEA71
:10194000480E9143CCF3001202FA0AF20446D8433F
:10195000114361600CE000BF0321B140019CC8430A
:10196000BBF1030FB64603D1B6464FF0030B23E09D
:10197000E168029B01409A68BBF1020F02FA0EF285
:1019800041EA0201E16017D16FF0030101EA5A0157
:10199000214405F01C040F22D1F820C002FA04FBF8
:1019A0001A692CEA0B0CA24042EA0C02019C0A6262
:1019B000D3F804C00CF0030B21680BFA0EF20140BF
:1019C00011432160DDF808E01CF4403F8ED041F265
:1019D0006000C4F20200016840F2004C41F00101D5
:1019E00001600168C4F2010C01F001010391039947
:1019F0002AF003014FF6084A6144CFF6FF7A05F05A
:101A00000C030F2051F80A2000FA03F40098A243B7
:101A100000FA03F31A4341F80A20DCF80810DEF854
:101A2000042041EA090340F20C40D40258BF21EAE5
:101A30000903CCF80830C4F201000168940241EABD
:101A4000090358BF21EA09030360DCF8041094037A
:101A500041EA090358BF21EA0903CCF80430DCF855
:101A60000010D20341EA090358BF21EA0903CCF868
:101A700000303BE704B0BDE8F08F00001823002AD7
:101A800008BF2823C150704740F29C50C2F20000AA
:101A90000068704740F2000040F29C51C2F2000022
:101AA000C2F2000140680A681044086070470000F4
:101AB00080B5032000F08AF80F2000F009F8002814
:101AC0001CBF012080BD00F02BF8002080BD00006D
:101AD00070B540F20006C2F200067168E1B104463A
:101AE00040F20800C2F200004FF47A720068B2FBC4
:101AF000F1F1B0FBF1F001F03BF80F2C4FF00105D4
:101B000008D838B94FF0FF3021460022002500F0F8
:101B100031F83460284670BD0125284670BD0000AC
:101B200082B041F25800C4F20200816841F0010124
:101B30008160816801F0010101910199016841F022
:101B400080510160006800F080500090009802B061
:101B500000F0EAB8002848BF704700F01F010122DA
:101B600002FA01F14EF200124009CEF2000242F8F0
:101B70002010704710B54EF60C5CCEF2000CDCF86D
:101B80000030C3F3022E8EF00704042C28BF042477
:101B9000BEF103034FF0FF3E0EFA04F438BF0023FA
:101BA000A14399400EFA03F39A4300F00F03043B5C
:101BB0001143634409010C3300F16042B0F1FF3F6F
:101BC000C8BF02F56443197010BD00004EF60C51F9
:101BD000CEF200010A684FF6FF031A4060F30A22B2
:101BE00042F0806040F0FD7008607047B0F5007F03
:101BF00048D0002840F08A8047F21400C4F2000068
:101C000050F8141CC26E01F4C06122F48072B1F568
:101C1000806FC26633D150F8141C012262F34A214E
:101C200040F8141C40F20801C2F200010968322297
:101C300051434DF68362C4F21B32A1FB0212910C98
:101C400002684B1C18BF12F4806213D0026800298E
:101C500018BF12F480620DD00268012918BF12F477
:101C6000806207D00268022904D012F48062A1F1D8
:101C70000401E5D10068400544BF032070470020FF
:101C8000704700BF47F21400C4F2000050F8141C63
:101C9000C26E01F4C06142F48072B1F5806FC26619
:101CA000EDD150F8141C012262F34A2140F8141CB3
:101CB00040F20801C2F200010968322251434DF698
:101CC0008362C4F21B32A1FB0212910C02684B1C0E
:101CD00018BF12F4806213D00268002918BF12F4F2
:101CE00080620DD00268012918BF12F4806207D00B
:101CF0000268022904D012F48062A1F10401E5D146
:101D00000068400544BF03207047B8E747F214005D
:101D1000C4F2000050F8141C022262F34A2140F879
:101D2000141C00207047000047F20800C4F20000B5
:101D3000016841F480410160704700002DE9F041E5
:101D400082B00446807841F288060007C4F2020699
:101D500002D400202FE000BF56F8300C10F080585D
:101D60000BD156F8300C40F0805046F8300C56F845
:101D7000300C00F080500190019847F20007C4F247
:101D80000007386840F480703860FFF77DFE054634
:101D90003868C00500F10C81FFF776FE401B022871
:101DA000F6D90320B8F1000F05D156F8301C21F008
:101DB000805146F8301C2168CA0717D18A071DD404
:101DC0004A0723D40A0729D4CA062FD48A0635D451
:101DD0004A063BD40A0641D4CA0547D48A034DD4E7
:101DE0008A0553D44A0559D467E000BF3268636856
:101DF00022F003021A4332608A07E1D53268A368F1
:101E000022F00C021A4332604A07DBD53268E368DD
:101E100022F030021A4332600A07D5D532682369AE
:101E200022F0C0021A433260CA06CFD53268636915
:101E300022F440721A4332608A06C9D53268A36917
:101E400022F440621A4332604A06C3D53268E3691D
:101E500022F440521A4332600A06BDD53268236A22
:101E600022F440421A433260CA05B7D53268636A29
:101E700022F440321A4332608A03B1D57269A36AF0
:101E800022F003021A4372618A05ABD53268E36A15
:101E900022F440221A4332604A050ED53268236B81
:101EA00022F440121A43B3F5801F326005D156F870
:101EB0007C2C42F4801246F87C2C0A050ED5326840
:101EC000636B22F440021A43B3F5800F326005D1F0
:101ED00056F87C2C42F4801246F87C2CCA040ED5AD
:101EE0003268A36B22F040721A43B3F1807F3260F4
:101EF00005D156F87C2C42F4801246F87C2C8A04DA
:101F00000ED53268E36B22F040621A43B3F1006FE2
:101F1000326005D156F87C2C42F4801246F87C2CB5
:101F20004A040ED53268236C22F040621A43B3F1A2
:101F3000006F326005D156F87C2C42F4801246F8CE
:101F40007C2C0A040ED53268636C22F040521A438E
:101F5000B3F1805F326005D156F87C2C42F48032B8
:101F600046F87C2CCA030ED53268A36C22F040429E
:101F70001A43B3F1804F326005D156F87C2C42F4FD
:101F8000803246F87C2C49030ED57169E26C21F44D
:101F900040111143B2F5001F716105D156F87C1C48
:101FA00041F4801146F87C1C02B0BDE8F08100BF0E
:101FB000B06810F4407010D0216D88420BD0B0682A
:101FC000B16820F4407041F48031B160B16821F40F
:101FD0008031B160B060C0070CD1B068216D20F4D1
:101FE00040700843B0600020B8F1000F7FF4E3AE0A
:101FF000DBE600BFFFF748FD054641F2883700BF2A
:10200000B0688007E9D4FFF73FFD401BB842F7D91D
:10201000C7E600002DE9F04700286DD042F2000A23
:10202000C4F2020A0446DAF800000D4600F00F0080
:1020300088420CD2DAF8000020F00F002843CAF8DA
:102040000000DAF8000000F00F00A84254D1216827
:1020500041F20808C807C4F2020803D1880740F11A
:10206000D880BDE0606802283AD0032840D158F8F3
:10207000082C920140D5D8F80420D8F8043042F258
:10208000004702F00302C3F30313C0F2F407013365
:10209000032A04BF41F60037C0F2B707D8F804207E
:1020A000B7FBF3F3D8F80470C2F306225A43C7F320
:1020B0004163022707EB4303B2FBF3F24BF2004309
:1020C000C0F2C4439A4261D9D8F8002012F0F00F50
:1020D00051D089075AD5A168002957D14BE000BFDC
:1020E00058F8081C89035CBF0120BDE8F08707E0B1
:1020F00058F8081C490503D40120BDE8F08700BF4B
:10210000D8F8001001F00C0104293FD0D8F80010D5
:1021100001F00C01082939D0D8F8001001F00C01A9
:102120000C2933D1D8F80410D8F8042042F2004327
:1021300001F00301C2F30312C0F2F40301320329D8
:1021400004BF41F60033C0F2B703D8F80410B3FB64
:10215000F2F2D8F80430C1F306215143C3F34162CF
:10216000022303EB4202B1FBF2F14BF20042C0F258
:10217000C44291420AD9D8F80010082262F307112C
:102180004FF00109C8F8001002E000BF4FF000094D
:10219000D8F8001021F003010843C8F80000FFF749
:1021A00073FC064641F28837D8F80000616800F0F9
:1021B0000C00B0EB810F07D0FFF766FC801BB84224
:1021C000F2D90320BDE8F0872168880708D4B9F167
:1021D000000F1ED0D8F8000020F0F00017E000BF7C
:1021E000480705D5D8F8000040F4E060C8F80000C2
:1021F000080706D5D8F80000072262F30D20C8F8BA
:102200000000D8F80000A26820F0F0001043C8F8E1
:102210000000DAF8000000F00F00A8421BD9DAF83D
:10222000000020F00F002843CAF80000FFF72CFC44
:10223000064641F2883700BFDAF8000000F00F00D0
:10224000A84207D0FFF720FC801BB842F4D9032036
:10225000BDE8F0872168480707D5D8F80000E26894
:1022600020F4E0601043C8F80000080708D5D8F84B
:102270000000216920F4605040EAC100C8F8000065
:10228000D8F8000042F20041C0F2F40100F00C0066
:10229000042808462DD0D8F8000000F00C000828CB
:1022A00041F60030C0F2B70023D0D8F8002002F089
:1022B0000C020C2A1CD1D8F80420D8F8043002F003
:1022C0000302C3F303130133032A08BF0146D8F8FE
:1022D0000400B1FBF3F1D8F80420C0F30620484312
:1022E000C2F34161022202EB4101B0FBF1F000E0D8
:1022F0000020D8F8001044F60432C1F30311C0F6F0
:102300000002515C40F2080201F01F0120FA01F1C5
:1023100040F20000C2F200000068C2F20002116048
:10232000BDE8F047FFF7D4BB2DE9F04182B00028AB
:1023300000F006810446007841F20006C007C4F2AE
:10234000020655D12078800774D42078000700F168
:1023500097802078400700F1B7802078800600F150
:102360000781E069002840D0B16801F00C010C2918
:1023700040F05681012800F0E380F068216A00F007
:1023800003028A4240F0DC80626A6FF00F0300F0C3
:10239000F00103EB0212914240F0D280A16A00F4F6
:1023A000FE42B2EB012F40F0CB80E16A00F07842B0
:1023B000B2EBC16F40F0C480226B0023CFF6E07314
:1023C00003EB025200F4C0016FF31402914240F09B
:1023D000B780616B4FF07E4202EB016100F0C0609C
:1023E00001F07E41884240F0AB800020F1E100BF67
:1023F000B06800F00C01F06808295BD0032281F07E
:102400000C0122EA00000844B0FA80F0400951D1E2
:102410006068B0F5803F07D0B0F5A02F40F0D680BF
:10242000306840F480203060306840F480303060A4
:10243000D7E000BFB068F16800F00C00042869D054
:1024400001F0030180F00C0081F002010844B0FAB1
:1024500080F040095ED1E1683068002900F0CE804C
:1024600040F480703060FFF70FFB05463068400590
:1024700000F1EC80FFF708FB401B0228F6D920E1B1
:102480006169D6F89400002900F08C8040F00100CA
:10249000C6F89400FFF7F8FA054600BFD6F8940096
:1024A00080073FF556AFFFF7EFFA401B0228F5D93A
:1024B00007E100BF306880037FF544AF6068002803
:1024C0007FF440AF3CE000BFB06D10F0805808D101
:1024D000B06D40F08050B065B06D00F0805001905C
:1024E000019847F20007C4F200073868C0052BD4F2
:1024F000386840F480703860FFF7C6FA054600BFC0
:102500003868C00520D4FFF7BFFA401B0228F7D96E
:10251000D7E000BF3068400501D5E06880B1706841
:10252000216920F0FE4040EA0160706040F2000046
:10253000C2F200000068FFF7CBFA00283FF405AFB5
:10254000012002B0BDE8F081A068012808D005286C
:1025500040F09A80D6F8900040F00400C6F8900051
:10256000D6F8900040F00100C6F890009AE000BF55
:10257000A169D6F89800002970D040F00100C6F893
:102580009800FFF781FA0546D6F8980080073FF5D6
:10259000E8AEFFF779FA401B02284FF00300F3D9A9
:1025A00017E100BF20F00100C6F89400FFF76CFAB5
:1025B000054600BFD6F8940080077FF5CAAEFFF746
:1025C00063FA401B0228F5D97BE000BF3168002880
:1025D00021F480313160316821F48021316000F0D4
:1025E0008F80FFF751FA0546306880033FF5AAAEA9
:1025F000FFF74AFA401B6428F6D962E020F48070A5
:102600003060FFF741FA0546306840057FF59DAE22
:10261000FFF73AFA401B02284FF00300F4D9D8E044
:102620003168022821F0807131604FD1FFF72CFA18
:10263000054600BF3068800140F18E80FFF724FA24
:10264000401B02284FF00300F4D9C2E070682169F2
:1026500020F0FE4040EA0160706076E620F0010064
:10266000C6F89800FFF710FA054600BFD6F89800A4
:1026700080077FF576AEFFF707FA401B02284FF080
:102680000300F3D9A5E000BFD6F89010002821F090
:102690000101C6F89010D6F8901021F00401C6F898
:1026A00090103DD0FFF7F0F9054641F2883700BFA2
:1026B000D6F89000800745D4FFF7E6F9401BB842F2
:1026C000F6D9032002B0BDE8F08100BFF0684FF6F4
:1026D000FF7120F00300F060F068CFF6EE61084073
:1026E000F060FFF7D1F90446306880017FF57DAED8
:1026F000FFF7CAF9001B02284FF00300F4D968E085
:10270000FFF7C2F9054600BF306880037FF51AAEB7
:10271000FFF7BAF9401B64284FF00300F4D958E0E2
:10272000FFF7B2F9054641F2883700BFD6F89000AE
:10273000800707D5FFF7A8F9401BB8424FF0030008
:10274000F4D946E0B8F1000F7FF407AEB06D20F089
:102750008050B06501E600BFF06848F20C01C0F29D
:102760009F1104F1200700EA010C8ECF6FF00F00DB
:10277000D4E90C5400EB02100022CFF6E07241EADB
:102780000C0102EB055208436FF314024FF07E4533
:1027900040EA032005EB0465104305F07E4540EA5E
:1027A000C7602843F060306840F080703060F068A7
:1027B00040F08070F060FFF767F9044630688001F0
:1027C0003FF513AEFFF760F9001B02284FF003003E
:1027D000F4D902B0BDE8F081002804BF01207047A1
:1027E000B0B50446406A28B10020206104F114000D
:1027F00006E000BF6068B0F5827F03D004F11C00E2
:10280000002101600025A56294F85D0020B92046F2
:1028100084F85C5000F052F8022084F85D002068D3
:10282000D4F80CE00268BEF5E06F22F040020260CE
:102830004EF4006298BF0125B2F5706F1CBF0023F3
:10284000A3624FEA053CD4E90135D4E9042103F43D
:10285000827305F404452B4402F002021A44A36972
:1028600001F00101E569114403F40072114405F01F
:102870003802256A114405F08002A56A114405F466
:102880000052114301600421626A0EF4706501EA8E
:102890001341636B45EA0C0502F01002294303F073
:1028A0000803114319434160C16921F40061C1610A
:1028B00000200121206684F85D10B0BD80B586B08F
:1028C000006843F20001C4F20101884202D006B060
:1028D00080BD00BF41F24C00C4F20200416941F4E6
:1028E00080514161416901F4805101910199016870
:1028F00041F0010101600068012100F00100019038
:102900000198A020019002200290CDE9031005203B
:10291000059001A94FF09040FEF7C2FF06B080BDC0
:102920002DE9F04381B0044690F85C00012803D102
:10293000022001B0BDE8F0834FF001091D461646A4
:102940000F4684F85C90FFF79FF894F85D1001291A
:1029500074D18046002F4FF0010018BF002E00F008
:10296000DA800320002184F85D002166A763A68732
:10297000E6872164A4F84410A4F84610A068E16436
:10298000B0F5004F2068216507D1016821F04001B2
:102990000160016841F4804101600168490603D487
:1029A000016841F0400101606168731EE268B1FA9C
:1029B00081F1B3FA83F349095B09B2F5E06F41EAAB
:1029C00003013DD931B137F8021BC160A763E18F24
:1029D0000139E187E18F002973D0691C1BD000BF4A
:1029E0008168890706D4FFF74FF8A0EB0800A842DA
:1029F00008D3B9E0A16B31F8022BC260A163E08F6C
:102A00000138E087E08F00285BD020688168890763
:102A1000E9D5EFE720688168890703D4FFF734F828
:102A200008E000BFA16B31F8022BC260A163E08F08
:102A30000138E087E08F0028ECD142E002206AE014
:102A400089B1E18F02294FF6FE7103D337F8022BCB
:102A5000C26004E03A7801310273A06B471CA7639F
:102A6000E08F0844E087E08F58B3681C61D04FF6D0
:102A7000FE70461C08E000BFFFF706F8A0EB080058
:102A8000A84273D2E08FE0B1206881688907F3D54E
:102A9000E18F012908D9A16B31F8022BC2604FF6F2
:102AA000FE70A16307E000BFA16B09780173A06B02
:102AB0000130A0633046E18F0844E087E08F0028B2
:102AC000E2D120464FF4C0512A46434601F0ACF90A
:102AD00068B920462946424601F04AFA38B92046EC
:102AE0004FF4C0612A46434601F09EF928B1206E9A
:102AF00040F02000206620202066A06838B9002021
:102B000000902068C1680091806800900098206E55
:102B1000002818BF0120002184F85D9084F85C1023
:102B200001B0BDE8F08300BFFEF7AEFFE08F0028E4
:102B3000C7D0206881688907F6D5E18F022909D3BB
:102B4000A16B31F8022BC260A163E08F0238E087ED
:102B5000ECE700BFA16B09780173A06B0130A063A3
:102B6000E08F0138E087E1E70320D4E70320D2E7D4
:102B7000411E0020B0EB116F1CBF012070474EF2C8
:102B80001002CEF2000251604EF62351CEF2000147
:102B9000F0230B700721906011607047FEE7000082
:102BA0002DE9F04184B005462A2017460E468DF8DF
:102BB00003004FF09040402100229846FEF75EFF50
:102BC00040F2B824C2F200040DF1030120460122B4
:102BD0000A23FFF7A5FE68BAADF804004FF0904055
:102BE00040210122FEF74AFF01A9204602220A23C2
:102BF000FFF796FE78BAADF806004FF090404021FE
:102C00000122FEF73BFF0DF10601204602220A23B6
:102C1000FFF786FE2B208DF809004FF090404021F1
:102C20000022FEF72BFF0DF10901204601220A23A5
:102C3000FFF776FE06F1220000BA000CADF80A009C
:102C40004FF0904040210122FEF718FF0DF10A01DC
:102C5000204602220A23FFF763FE08F1220000BA91
:102C6000000CADF80C004FF0904040210122FEF71F
:102C700005FF03A9204602220A23FFF751FE2C205C
:102C80008DF80F004FF0904040210022FEF7F6FE35
:102C90000DF10F01204601220A23FFF741FE04B087
:102CA000BDE8F08170B504460020002140F23F12DB
:102CB000AB230025FFF774FF40F21C3160BAC2F26B
:102CC000000100BF4A1948535035B5F5207F5080A8
:102CD0009080D080108150819081D081108250826C
:102CE0009082D082108350839083D083108450844C
:102CF0009084D084108550859085D085108650862C
:102D00009086D086108750879087D087A2F84000A1
:102D1000A2F84200A2F84400A2F84600A2F8480037
:102D2000A2F84A00A2F84C00A2F84E00CAD14FF017
:102D3000904040210122FEF7A1FE40F2B82440F26B
:102D40001C35AC26C2F20004C2F20005204629461A
:102D50004FF420724FF48073FFF7E2FD013EF5D18E
:102D600070BD00002DE9F04F81B040F60004C4F6BC
:102D7000000420464FF4806100224FF0000BFEF764
:102D80007DFE6420FEF74AFA20464FF4806101225E
:102D90000125FEF773FE4FF49670FEF73FFA2046CA
:102DA0004FF400610022FEF769FE6420FEF736FA58
:102DB00011208DF803004FF0904040210022FEF7D3
:102DC0005DFE40F2B824C2F200040DF1030120467A
:102DD00001220A23FFF7A4FD4FF0360A4FF090407E
:102DE000402100228DF803A0FEF748FE0DF10301FB
:102DF000204601220A23FFF793FD70208DF803007F
:102E00004FF0904040210122FEF738FE0DF1030102
:102E1000204601220A23FFF783FD3A208DF80300A4
:102E20004FF0904040210022FEF728FE0DF10301F3
:102E3000204601220A23FFF773FD05264FF090403C
:102E4000402101228DF80360FEF718FE0DF1030109
:102E5000204601220A23FFF763FDB2208DF803000C
:102E60004FF0904040210022FEF708FE0DF10301D3
:102E7000204601220A23FFF753FD0C274FF0904014
:102E8000402101228DF80370FEF7F8FD0DF10301DA
:102E9000204601220A23FFF743FD4FF090404021D6
:102EA00001228DF80370FEF7E9FD0DF103012046C4
:102EB00001220A23FFF734FD4FF090404021012208
:102EC0008DF803B0FEF7DAFD0DF103012046012273
:102ED0000A23FFF725FD4FF033094FF090404021C2
:102EE00001228DF80390FEF7C9FD0DF10301204684
:102EF00001220A23FFF714FD4FF0904040210122E8
:102F00008DF80390FEF7BAFD0DF103012046012272
:102F10000A23FFF705FDB7208DF803004FF090401E
:102F200040210022FEF7AAFD0DF1030120460122F7
:102F30000A23FFF7F5FC35274FF09040402101228E
:102F40008DF80370FEF79AFD0DF103012046012272
:102F50000A23FFF7E5FCBB208DF803004FF09040FB
:102F600040210022FEF78AFD0DF1030120460122D7
:102F70000A23FFF7D5FC4FF09040402101228DF845
:102F80000370FEF77BFD0DF10301204601220A23A9
:102F9000FFF7C6FCC0208DF803004FF090404021A1
:102FA0000022FEF76BFD0DF10301204601220A23EA
:102FB000FFF7B6FC2C208DF803004FF09040402125
:102FC0000122FEF75BFD0DF10301204601220A23D9
:102FD000FFF7A6FCC2208DF803004FF0904040217F
:102FE0000022FEF74BFD0DF10301204601220A23CA
:102FF000FFF796FC4FF09040402101228DF80350DE
:10300000FEF73CFD0DF10301204601220A23FFF7E4
:1030100087FCC3208DF803004FF090404021002230
:10302000FEF72CFD0DF10301204601220A23FFF7D4
:1030300077FC13208DF803004FF0904040210122CF
:10304000FEF71CFD0DF10301204601220A23FFF7C4
:1030500067FCC4208DF803004FF09040402100220F
:10306000FEF70CFD0DF10301204601220A23FFF7B4
:1030700057FC20208DF803004FF0904040210122A2
:10308000FEF7FCFC0DF10301204601220A23FFF7A5
:1030900047FCC6208DF803004FF0904040210022ED
:1030A000FEF7ECFC0DF10301204601220A23FFF795
:1030B00037FC0F208DF803004FF090404021012293
:1030C000FEF7DCFC0DF10301204601220A23FFF785
:1030D00027FCD0208DF803004FF0904040210022C3
:1030E000FEF7CCFC0DF10301204601220A23FFF775
:1030F00017FCA4208DF803004FF0904040210122DE
:10310000FEF7BCFC0DF10301204601220A23FFF764
:1031100007FCA1254FF09040402101228DF803507B
:10312000FEF7ACFC0DF10301204601220A23FFF754
:10313000F7FBD6208DF803004FF09040402100228D
:10314000FEF79CFC0DF10301204601220A23FFF744
:10315000E7FB4FF09040402101228DF80350FEF72D
:103160008DFC0DF10301204601220A23FFF7D8FB55
:10317000E0208DF803004FF0904040210022FEF740
:103180007DFC0DF10301204601220A23FFF7C8FB55
:103190004FF0F0084FF09040402101228DF803805D
:1031A000FEF76CFC0DF10301204601220A23FFF714
:1031B000B7FB4FF09040402101228DF803B0FEF79D
:1031C0005DFC0DF10301204601220A23FFF7A8FB55
:1031D00004254FF09040402101228DF80350FEF766
:1031E0004DFC0DF10301204601220A23FFF798FB55
:1031F0004FF09040402101228DF80350FEF73EFC35
:103200000DF10301204601220A23FFF789FB4FF04D
:103210009040402101228DF80350FEF72FFC0DF164
:103220000301204601220A23FFF77AFB4FF090406A
:10323000402101228DF80360FEF720FC0DF103010F
:10324000204601220A23FFF76BFB4FF0290B4FF0BA
:103250009040402101228DF803B0FEF70FFC0DF1E4
:103260000301204601220A23FFF75AFB4FF090404A
:10327000402101228DF80390FEF700FC0DF10301BF
:10328000204601220A23FFF74BFB3E264FF09040D9
:10329000402101228DF80360FEF7F0FB0DF10301E0
:1032A000204601220A23FFF73BFB38208DF803005C
:1032B0004FF0904040210122FEF7E0FB0DF10301A9
:1032C000204601220A23FFF72BFB12254FF09040E6
:1032D000402101228DF80350FEF7D0FB0DF10301D0
:1032E000204601220A23FFF71BFB4FF090404021AC
:1032F00001228DF80350FEF7C1FB0DF103012046BA
:1033000001220A23FFF70CFB28274FF090404021B1
:1033100001228DF80370FEF7B1FB0DF10301204689
:1033200001220A23FFF7FCFA30208DF803004FF04A
:10333000904040210122FEF7A1FB0DF10301204640
:1033400001220A23FFF7ECFAE1208DF803004FF089
:10335000904040210022FEF791FB0DF10301204631
:1033600001220A23FFF7DCFA4FF0904040210122AE
:103370008DF80380FEF782FB0DF103012046012248
:103380000A23FFF7CDFA07254FF090404021012294
:103390008DF80350FEF772FB0DF103012046012268
:1033A0000A23FFF7BDFA0A208DF803004FF0904082
:1033B00040210122FEF762FB0DF1030120460122AC
:1033C0000A23FFF7ADFA0D208DF803004FF090406F
:1033D00040210122FEF752FB0DF10301204601229C
:1033E0000A23FFF79DFA0B208DF803004FF0904061
:1033F00040210122FEF742FB0DF10301204601228C
:103400000A23FFF78DFA4FF09040402101228DF8FA
:103410000350FEF733FB0DF10301204601220A237E
:10342000FFF77EFA4FF09040402101228DF80370A3
:10343000FEF724FB0DF10301204601220A23FFF7CA
:103440006FFA4FF09040402101228DF80390FEF773
:1034500015FB0DF10301204601220A23FFF760FA54
:103460004FF09040402101228DF80360FEF706FBEB
:103470000DF10301204601220A23FFF751FA4FF014
:103480009040402101228DF803A0FEF7F7FA0DF1DC
:103490000301204601220A23FFF742FA14254FF0C8
:1034A0009040402101228DF80350FEF7E7FA0DF11C
:1034B0000301204601220A23FFF732FA4FF0904021
:1034C000402101228DF80350FEF7D8FA0DF10301D7
:1034D000204601220A23FFF723FA4FF090404021B3
:1034E00001228DF803B0FEF7C9FA0DF10301204661
:1034F00001220A23FFF714FA32208DF803004FF05F
:10350000904040210122FEF7B9FA0DF10301204657
:1035100001220A23FFF704FA21208DF803004FF05F
:10352000904040210022FEF7A9FA0DF10301204648
:1035300001220A23FFF7F4F911208DF803004FF060
:10354000904040210022FEF799FA0DF10301204638
:1035500001220A23FFF7E4F97820FDF75FFE4FF020
:103560009040402100228DF803B0FEF787FA0DF15C
:103570000301204601220A23FFF7D2F901B0BDE87A
:10358000F08F00002DE9F04F89B0B0F5987F0791DA
:1035900000F26281044607989C2800F25D81079939
:1035A0001D46E01D01F10F03A2F1200682B29BB27D
:1035B00020460692FFF7F4FA44F61437B0B2C0F68C
:1035C0000007611C07EB0010A21C059088B2E31CE9
:1035D000049090B295FA95FB261D651D04F1060C2A
:1035E00040F2B827039098B2C2F200070290B0B23E
:1035F0001FFA85F91FFA8CFA0026019014E000BF2B
:103600000020ADF822004FF0904040210122FEF74B
:1036100035FA38460DF1220102220A23FFF780F91C
:103620000136102E00F018810598224610F8068009
:103630000798304485B2204629462B46FFF7B0FA5A
:103640005FEAC8700CD10020ADF822004FF0904026
:1036500040210122FEF712FA38460DF1220109E05D
:103660004FF0904040210122ADF820B0FEF706FA5D
:10367000384608A902220A23FFF752F9049829467E
:1036800002462B46FFF78CFA5FEA88700CD40020C4
:10369000ADF822004FF0904040210122FEF7EEF9F4
:1036A00038460DF1220109E04FF0904040210122FF
:1036B000ADF820B0FEF7E2F9384608A902220A2345
:1036C000FFF72EF90398294602462B46FFF768FAC2
:1036D0005FEA48700CD40020ADF822004FF0904013
:1036E00040210122FEF7CAF938460DF1220109E016
:1036F0004FF0904040210122ADF820B0FEF7BEF916
:10370000384608A902220A23FFF70AF90298294637
:1037100002462B46FFF744FA5FEA08700CD40020FB
:10372000ADF822004FF0904040210122FEF7A6F9AB
:1037300038460DF1220109E04FF09040402101226E
:10374000ADF820B0FEF79AF9384608A902220A23FC
:10375000FFF7E6F80198294602462B46FFF720FAC4
:103760005FEAC8600CD40020ADF822004FF0904012
:1037700040210122FEF782F938460DF1220109E0CD
:103780004FF0904040210122ADF820B0FEF776F9CD
:10379000384608A902220A23FFF7C2F848462946FC
:1037A0004A462B46FFF7FCF95FEA88600CD40020FC
:1037B000ADF822004FF0904040210122FEF75EF963
:1037C00038460DF1220109E04FF0904040210122DE
:1037D000ADF820B0FEF752F9384608A902220A23B4
:1037E000FFF79EF85046294652462B46FFF7D8F978
:1037F0005FEA48600CD40020ADF822004FF0904002
:1038000040210122FEF73AF938460DF1220109E084
:103810004FF0904040210122ADF820B0FEF72EF984
:10382000384608A902220A23FFF77AF806982946A3
:1038300002462B46FFF7B4F95FEA08607FF5E0AE79
:103840004FF0904040210122ADF820B0FEF716F96C
:10385000384608A9E0E600BF09B0BDE8F08F0000D7
:103860002DE9F04F81B043B3834610440A9F0138DD
:103870005600994688464FF0000A85B2B4B200BFA0
:103880000AEB080081B258462A460B46FFF788F932
:103890004FF0904040210122FEF7F0F840F2B820AE
:1038A000C2F20000394622464FF47A73FFF738F827
:1038B0000AF1010AD1453744E2D101B0BDE8F08FE9
:1038C0002DE9F04791461278002A08BFBDE8F0873D
:1038D00040F21C3640F2B82798468A460546C2F2A6
:1038E00000064FF0F814C2F200070BE0A8B21FFA6E
:1038F0008AF1D2B24346FFF745FE19F8012F083589
:10390000002A43D0A8B2B0F5987F88BF0AF1100A08
:103910001FFA8AF088BF00259D28E7D300200021E8
:1039200040F23F12AB230025FFF73AF970197451AA
:103930005035B5F5207F44608460C4600461446103
:103940008461C461046244628462C4620463446347
:103950008463C463046444648464C464E6D14FF043
:10396000904040210122FEF789F8AC2538463146C7
:103970004FF420724FF48073FEF7D2FF013DF5D172
:1039800099F800204FF0000A0025AFE7BDE8F08766
:10399000F0B581B040F24007C2F2000714460D4670
:1039A000064606AA38461946009200F02BFC30461F
:1039B00029463A462346FFF783FF01B0F0BD0000D9
:1039C00010B58CB040F2C000C2F200004FF0A04130
:1039D00000244FF4002280E816004FF48071012388
:1039E0004FF0040C818308210B94CDE90944CDE903
:1039F0000744CDE90544CDE90344CDE90144C0E9DC
:103A00000344C0E9053C016280F82440C0E90B444E
:103A100080F83840C46380F84040FDF759F9002829
:103A200018BFFCF7B1FE40F2C000C2F2000009A9C5
:103A30000994FCF7C1FE002818BFFCF7A5FE022080
:103A4000C0F23040019006207F21029000200491B6
:103A500004210390CDE9051040F2C000C2F200003D
:103A600001A9FCF743FF002818BFFCF78DFE0C20CE
:103A7000029040F2C000C2F2000001A9FCF736FF3C
:103A8000002818BFFCF780FE1220029040F2C00010
:103A9000C2F2000001A9FCF729FF002818BFFCF7BB
:103AA00073FE1820029040F2C000C2F2000001A98B
:103AB000FCF71CFF002818BFFCF766FE4FF480706F
:103AC000029040F2C000C2F2000001A9FCF70EFF14
:103AD000002818BFFCF758FE4FF48370029040F2A4
:103AE000C000C2F2000001A9FCF700FF002818BFC7
:103AF000FCF74AFE4FF48670029040F2C000C2F21A
:103B0000000001A9FCF7F2FE002818BFFCF73CFEFC
:103B10004FF48970029040F2C000C2F2000001A987
:103B2000FCF7E4FE002818BFFCF72EFE0CB010BD19
:103B300080B582B041F24800C4F202000168002260
:103B400041F004010160016801F004010191019953
:103B5000016841F0010101600068002100F00100EE
:103B6000009000980B20FEF705F80B2002B0BDE88E
:103B70008040FDF7EFBF000080B540F28C1046F2A8
:103B80000041C2F20000C4F200010022C0E90012AC
:103B9000182100F1140704234FF0070C4FF0020E18
:103BA00087E80A5000F12407C0E90222C0F80F207C
:103BB00087E80A50C0E90D22C263FDF765FC0028C2
:103BC00008BF80BDBDE88040FCF7DEBD80B540F297
:103BD000F01046F60001C2F20000C4F2000100221B
:103BE000C0E90012182100F1140704234FF0070C5C
:103BF0004FF0020E87E80A5000F12407C0E90222C4
:103C0000C0F80F2087E80A50C0E90D22C263FDF713
:103C10003BFC002808BF80BDBDE88040FCF7B4BD78
:103C200080B540F2542046F60041C2F20000C4F2D2
:103C300000010022C0E90012182100F1140704233A
:103C40004FF0070C4FF0020E87E80A5000F12407EE
:103C5000C0E90222C0F80F2087E80A50C0E90D220F
:103C6000C263FDF711FC002808BF80BDBDE880409D
:103C7000FCF78ABD2DE9F04F87B0002741F24C00D8
:103C80000697C4F20200016840F2004841F00401C6
:103C900001600168C4F6000801F004010191019976
:103CA000016808F5806641F020010160016800228A
:103CB00001F0200101910199016843F6F06441F09F
:103CC00040010160016801F0400101910199016822
:103CD00041F001010160016801F0010101910199C8
:103CE000016841F002010160016801F002010191E7
:103CF0000199016841F008010160006843F6F06134
:103D000000F00800019001983046FDF7B7FE4FF033
:103D10009040502100224FF0500AFDF7AFFE404680
:103D20004CF6BF6100224CF6BF69FDF7A7FE02AD5D
:103D30004FF0010B304629460294CDE903B70597B1
:103D4000FDF7AEFD4FF44140029003243046294672
:103D5000CDE90347FDF7A4FD4FF4806002A991C1AE
:103D600008F5A0502946FDF79BFD4FF090402946ED
:103D7000CDE902ABCDE90477FDF792FD4046294637
:103D8000CDE9029BCDE90477FDF78AFD4FF4C060D1
:103D900002A991C14FF090402946FDF781FD042012
:103DA00002A991C108F500602946FDF779FD4FF49D
:103DB000A07002A991C140462946FDF771FD07B0E8
:103DC000BDE8F08F70B540F2B82043F20001C2F2B6
:103DD0000000C4F201014FF482724FF400434FF42B
:103DE000E06C4FF0020E012480E80E5000F1140147
:103DF0004FF40075102670C100210722C0E9081198
:103E0000C0E90A12C0E90C11FEF7E6FC002808BF61
:103E100070BDBDE87040FCF7B7BC0000FEE70000D5
:103E2000FEE70000704700002DE9F04782B0002750
:103E30001D4690460E4681468DF80370FDF724FE20
:103E4000281A00EB0804FDF71FFE40F20801C2F239
:103E50000001096823225143090DD9F8005061433C
:103E60000191A968314279D08246B6F5C06F1FD161
:103E700008F10106284603E0816811F4C06F71D093
:103E8000297B002E8DF803109DF80310F4D0FDF768
:103E9000FBFDA0EB0A00A04224D201990198002961
:103EA000A0F101000190D9F8000008BF0C46E3E73B
:103EB00018F1010044D000BFFDF7E6FDA0EB0A00B9
:103EC000A0420FD2019801990028A1F101010191AE
:103ED000D9F80010896808BF04463142ECD10027A8
:103EE0003CE000BFD9E900014268B1F5827F22F0D1
:103EF000E00242600BD1D9F80810B1F5004F02D0B2
:103F0000B1F5806F03D1016821F040010160D9F85B
:103F10002810B1F5005F07D1016821F4005101605C
:103F2000016841F400510160012089F85D00002022
:103F300089F85C000327384602B0BDE8F08700BF6F
:103F4000002700BFA86830420CD0A868304209D0D2
:103F5000A868304206D0A8683042F3D1384602B093
:103F6000BDE8F0870027384602B0BDE8F0870000C2
:103F7000F0B581B015460E460446FDF785FD281ABA
:103F80008719FDF781FD40F20801C2F200010968BE
:103F9000C1F3CB317943009121688A68120622D59A
:103FA0000546701C15D000BFFDF76EFD401BB842E2
:103FB0001CD2009800990028A1F10101009121680C
:103FC000896808BF07460806EED40CE0886800063A
:103FD00009D58868000606D58868000644BF886849
:103FE0005FEA0060F2D4002001B0F0BDD4E9000126
:103FF0004268B1F5827F22F0E00242600AD1A168F6
:10400000B1F5004F02D0B1F5806F03D1016821F006
:1040100040010160A16AB1F5005F07D1016821F498
:1040200000510160016841F400510160012084F8F1
:104030005D00002084F85C00032001B0F0BD0000AA
:1040400070470000FDF726BD4EF68850CEF2000006
:10405000016841F47001016070470000FEE7000054
:1040600094B0FDF725FD002400200C94CDE90A440E
:10407000CDE908440594CDE90344CDE90144FDF7B9
:10408000B5FD01204FF480310325069007910221F0
:10409000CDE90E500A20CDE9100106A80D91CDE919
:1040A0001211FEF741F928B1EFF3108072B600BF8C
:1040B000FEE700BF0F20CDE9010501A80121CDE9F0
:1040C00003440594FDF7A6FF20B1EFF3108072B60C
:1040D000FEE700BFFFF7CEFDFFF72AFDFFF74CFD1F
:1040E000FFF774FDFFF79CFDFFF76CFEFFF768FC20
:1040F000FEF738FE00200027FEF7D4FD4FF61474BB
:10410000C0F60104002014214FF478422346FFF743
:104110003FFC002032211F222346FFF739FC0020FC
:1041200050214FF4FC622346FFF732FC2EA30020FF
:104130006E214FF4FC62FFF72BFC45F21416C0F61B
:104140000006002000214FF4A072AC230096FFF778
:1041500087FB40F28C10C2F20000FDF7C1FAFFF7B6
:104160000BFD40F2100540F2F01A40F25424C2F266
:1041700000054FF008084FF00049C2F2000AC2F2F1
:104180000004002600208C2147F67C521AA306F179
:10419000010B0096FFF7FCFB4FF49670FDF73EF81D
:1041A0002E4640F2666046F8080F40F28C10C2F2CC
:1041B000000031462A46C5E90377C5E90589C5E906
:1041C0000777C5E90977FDF73DF8504631462A469D
:1041D000FDF738F8204631462A46FDF733F82878AF
:1041E0005E4601302870CDE73E20582050756C7334
:1041F000652044656D6F00003E20636F756E74200E
:104200002564000037B514460846064B6A46214629
:1042100000F0DCF804466946002000F06EFC204601
:104220003EBD0000FB4A000802E008C8121F08C19A
:10423000002AFAD170477047002001E001C1121F27
:10424000002AFBD1704700002DE9FF5F82B00021FA
:10425000DDE90430020DDDF840B0034318D044F628
:104260001050A2F2FF3242431514119801281FD0BA
:10427000A5EB0B00401C5FEA000A4FF000064E4F12
:10428000DFF83891B046504615D5CAF1000413E066
:10429000119801244AA3012801D16FEA0B01029869
:1042A000119AC0E90031C0E9024206B0BDE8F09FB2
:1042B000CBF10000DFE704460021404A491842EBF9
:1042C0000450CDE9001012E0E00707D032463B462B
:1042D00040464946FCF79CF88046894632463B46B4
:1042E00010461946FCF794F806460F466410002C59
:1042F000EAD1DDE90401DDE90023BAF1000F06DAB5
:10430000FCF786F842464B46FCF782F805E0FCF7DE
:10431000F1F842464B46FCF7EDF804460E46002203
:10432000284BFCF76FF903D84FF0FF30014607E048
:104330000022254B20463146FBF7C3FFFCF749F925
:10434000102409E0002C0ADB0A220023FBF788FF77
:10435000039B30321A55641E50EA0102F2D1641CEC
:10436000039AC4F111031444119A012A03D00122C3
:1043700008430DD10AE0084304D000204FF0110B90
:10438000119072E7A3EB0B056D1E0DE05B4504DD9C
:104390004FF0000205F1010504E003DA4FF00002DE
:1043A000A5F10105002AECD002981199C0E902316B
:1043B000C0E9004579E70000000014400000F03F2C
:1043C000300000000000F0430000E03F2DE9FF4F07
:1043D00095B09B468946064600250FE2252877D1F1
:1043E00000242746F84A0121059400E0044316F80A
:1043F000013F203B01FA03F01042F7D130782A2820
:1044000011D06FF02F033078A0F13002092A16D8AE
:10441000059A44F0020402EB820203EB42021044CC
:10442000761C0590EFE759F8042B0592002A03DA71
:10443000504244F40054059044F00204761C307855
:104440002E2816D116F8010F44F004042A280DD0A6
:104450006FF02F023078A0F13003092B09D807EB59
:10446000870302EB4303C718761CF3E759F8047B74
:10447000761C30786C280FD006DC4C2817D06828C2
:104480000DD06A2814D104E0742810D07A280FD1F6
:104490000DE044F400140AE044F4801401E044F414
:1044A00040147278824202D104F58014761C761C86
:1044B000307866280BD013DC582877D009DC002828
:1044C00075D04528F6D04628F4D047281AD19DE16A
:1044D00018E0632835D0642879D0652812D195E199
:1044E000702873D008DC6728F1D069286FD06E2857
:1044F0000DD06F2806D1B5E073282CD0752875D063
:10450000782874D05A46179990476D1C75E1C4F30A
:104510000250022809D003280DD0D9F80010042831
:104520000DD00D6009F1040967E1D9F80010EA1710
:10453000C1E90052F6E7D9F800100D80F2E70D70DE
:10454000F0E719F8041B8DF8001000208DF8010029
:10455000EA46012003E059F804AB4FF0FF30610751
:104560004FF0000102D40DE008F101018846B94284
:104570000FDA8045F8DB1AF808100029F4D108E0BA
:1045800008F1010188468142FADB1AF80810002977
:10459000F6D105985B46A0EB080721463846179AE6
:1045A00000F094FA284400EB080507E04DE029E10B
:1045B0000DE01AF8010B5A4617999047B8F1010817
:1045C000F7D25B4621463846179A13E142E00A22A9
:1045D0000092C4F302524FF0000A022A08D059F8A0
:1045E00004CB032A4FEAEC710AD00DE029E02AE05F
:1045F00009F1070121F00702F2E802C1914609E042
:104600000FFA8CFC4FEAEC71042A03D14FFA8CFCB0
:104610004FEAEC71002907DA0A460021DCF1000CB0
:1046200061EB02012D2202E0220504D52B228DF838
:104630000420012203E0E20701D02022F7E79046A0
:1046400059E00A2102E010220DE010214FF0000A8B
:1046500000910BE010224FF0000A44F004040827F8
:10466000009203E008224FF0000A0092C4F30252C5
:10467000022A05D059F804CB0021032A08D009E00A
:1046800009F1070121F00702F2E802C1914605E0B5
:104690001FFA8CFC042A01D10CF0FF0C4FF000082B
:1046A000220728D5702806D0009B83F0100353EA18
:1046B0000A0305D00EE040228DF80420012208E014
:1046C0005CEA010206D030228DF804208DF8050046
:1046D00002229046009B83F0080353EA0A030AD1A2
:1046E0005CEA010201D1620705D530228DF8042071
:1046F0004FF001087F1E582804D034A003900EA864
:1047000002900DE036A0F9E753466046009AFBF7A9
:10471000A7FD84460398825C0298401E02900270B6
:104720005CEA0100F0D1029806A9081A00F1200AFB
:10473000600702D524F4803400E00127574502DDEC
:10474000A7EB0A0000E0002000EB0A0100900598AA
:104750004144401A0590E00306D45B462146179A6F
:10476000059800F0B3F90544002706E001A85A4671
:10477000C05D179990476D1C7F1C4745F6DBE00331
:104780000CD55B462146179A059800F09FF9054421
:1047900004E030205A46179990476D1C0099481E36
:1047A00000900029F5DC08E0029802995A4600784A
:1047B000491C0291179990476D1CBAF10001AAF1AA
:1047C000010AF1DC65E100000928010030313233D3
:1047D000343536373839616263646566000000003D
:1047E0003031323334353637383941424344454627
:1047F0000000000000F058F90544761C30780028CD
:104800007FF4ECAD19B02846BDE8F08F620700D404
:10481000062709F1070222F0070CFCE80223E14613
:1048200003F000485FEA080C02D00FF2702C0DE094
:104830005FEA045C02D50FF2682C07E05FEAC47CF3
:1048400002D00FF2602C01E0AFF2700C4FF0FF3895
:1048500023F00043CDF850C065280CD006DC452875
:1048600009D046281DD047283DD13DE0662818D004
:1048700067287ED138E00021112F01DB112000E0F4
:10488000781CCDE9000106A90EA8FFF7DDFCDDE9E3
:104890000F010E9A03910021009207F1010A049181
:1048A0004DE04FF000400097CDE9011006A90EA899
:1048B000FFF7CAFCDDE90F0203920E9B119900225B
:1048C000DDF80CA00093049211B9791C00EB010AE9
:1048D000B7EB0A0004D4C0F1FF3007F1010A0490DD
:1048E000AAEB0700019044E0012F00DA0127002124
:1048F000112F01DD112000E03846CDE9000106A9A5
:104900000EA8FFF7A1FCDDE90F010E9A039100212B
:1049100004910092BA4621070CD40399514500DA5C
:104920008A46BAF1010F05DD009AAAF10101515C36
:10493000302908D0B84202DA10F1040F06DA01215A
:10494000CDE9011015E0AAF10101E9E7002805DC35
:10495000049901440491AAEB000102E0411C514575
:1049600000DD8A460499401A401C01904FF0004037
:104970000290200704D40198504501DBCDF8048053
:1049800000208DF84F0002980DF14F07B0F1004F55
:1049900025D02B200E9002984FF0020800280CDA48
:1049A000404202902D200E9007E00A210298FBF76A
:1049B00041FC3031029007F8011DB8F10001A8F167
:1049C0000108F2DC02980028EFD1791E0E980870D9
:1049D000307800F0200040F0450007F8020D12A8E2
:1049E000C01B00F107081498007800B1012000EB0B
:1049F0000A01019801EBE07105984144401A401EFC
:104A00000590E00306D45B462146179A059800F00E
:104A10005DF805441498007818B15A4617999047E4
:104A20006D1CE00324D55B462146179A059800F0DB
:104A30004DF805441CE00498002807DBDDE903017C
:104A4000884203DD0098405C179901E017993020F7
:104A50005A469047049805F10105401C04900198BE
:104A6000401E019004D12E205A46179990476D1C84
:104A7000BAF10001AAF1010ADDDC05E017F8010B2B
:104A80005A46179990476D1CB8F10001A8F101082A
:104A9000F4DC5B462146179A0598ABE62D00000032
:104AA0002B000000200000002DE9F0410446002505
:104AB0001E461746880404D405E039462020B04736
:104AC0006D1C641EF9D52846BDE8F0812DE9F04142
:104AD000044600251E469046C80301D5302700E055
:104AE0002027880404D505E041463846B0476D1CB0
:104AF000641EF9D52846BDE8F0810A68531C0B6096
:104B00001070704700000000000000000102030464
:104B10000607080900000000000000000000000077
:104B2000000000000000000808080808080800004D
:104B30001818000000486C2412000000000000005B
:104B4000000000000000002424247F1212127F12B3
:104B5000121200000000081C2A2A0A0C1828282A11
:104B60002A1C080800000022251515152A5854543F
:104B7000542200000000000C1212120A762529119E
:104B8000916E000000060604030000000000000013
:104B90000000000000402010100808080808081055
:104BA0001020400000020408081010101010100817
:104BB000080402000000000008086B1C1C6B0808B9
:104BC0000000000000000000080808087F0808082E
:104BD00008000000000000000000000000000000CD
:104BE000060604030000000000000000FE000000B4
:104BF00000000000000000000000000000000000B5
:104C00000606000000008040402020101008080424
:104C10000402020000000018244242424242424282
:104C200024180000000000080E08080808080808FA
:104C3000083E00000000003C4242422020100804D0
:104C4000427E00000000003C4242201820404042CA
:104C5000221C0000000000203028242422227E2074
:104C6000207800000000007E0202021A2640404226
:104C7000221C0000000000382402021A2642424290
:104C8000241800000000007E2222101008080808E6
:104C9000080800000000003C42424224182442421E
:104CA000423C000000000018244242426458404048
:104CB000241C000000000000000018180000000084
:104CC00018180000000000000000000800000000AC
:104CD0000008080400000040201008040204081026
:104CE000204000000000000000007F0000007F0066
:104CF00000000000000000020408102040201008FE
:104D0000040200000000003C424246402010100017
:104D1000181800000000001C225A555555552D4208
:104D2000221C00000000000808181414243C224231
:104D300042E700000000001F2222221E22424242BF
:104D4000221F00000000007C4242010101010142DB
:104D5000221C00000000001F224242424242424206
:104D6000221F00000000003F4212121E12120242D7
:104D7000423F00000000003F4212121E12120202C7
:104D8000020700000000003C2222010101712122E3
:104D9000221C0000000000E7424242427E424242A2
:104DA00042E700000000003E08080808080808085C
:104DB000083E00000000007C1010101010101010B1
:104DC0001010110F0000007722120A0E0A12122290
:104DD0002277000000000007020202020202020223
:104DE000427F000000000077363636362A2A2A2A0B
:104DF0002A6B0000000000E346464A4A52525262C3
:104E0000624700000000001C2241414141414141F4
:104E1000221C00000000003F424242423E020202C9
:104E2000020700000000001C2241414141414D5356
:104E3000321C60000000003F4242423E1212222219
:104E400042C700000000007C424202041820404299
:104E5000423E00000000007F4908080808080808D2
:104E6000081C0000000000E7424242424242424227
:104E7000423C0000000000E742422224241414189F
:104E8000080800000000006B494949495555362281
:104E900022220000000000E74224241818182424CD
:104EA00042E70000000000772222141408080808D6
:104EB000081C00000000007E21201010080404429D
:104EC000423F000000780808080808080808080899
:104ED00008087800000002020404080808101020E6
:104EE00020204040001E1010101010101010101044
:104EF00010101E00003844000000000000000000F8
:104F000000000000000000000000000000000000A1
:104F1000000000FF00060800000000000000000084
:104F200000000000000000000000003C4278444205
:104F300042FC0000000000030202021A2642424224
:104F4000261A00000000000000000038440202029F
:104F50004438000000000060404040784442424233
:104F600064D80000000000000000003C427E020205
:104F7000423C0000000000F08808087E080808088D
:104F8000083E0000000000000000007C22221C02FD
:104F90003C42423C000000030202023A46424242C6
:104FA00042E700000000000C0C00000E0808080892
:104FB000083E000000000030300000382020202093
:104FC0002020221E0000000302020272120A1612A2
:104FD000227700000000000E0808080808080808EA
:104FE000083E0000000000000000007F92929292B4
:104FF00092B70000000000000000003B4642424221
:1050000042E70000000000000000003C4242424233
:10501000423C0000000000000000001B264242420B
:10502000221E0207000000000000007844424242B5
:10503000447840E000000000000000774C040404C5
:10504000041F0000000000000000007C42023C4001
:10505000423E0000000000000008083E0808080862
:10506000083000000000000000000063424242429D
:1050700062DC000000000000000000E7422424146D
:105080000808000000000000000000EB49495555E9
:1050900022220000000000000000007624181818EA
:1050A000246E000000000000000000E742242414E9
:1050B00018080807000000000000007E2210080801
:1050C000447E000000C0202020202010202020202E
:1050D0002020C00010101010101010101010101010
:1050E0001010101000060808080808100808080822
:1050F000080806000C32C20000000000000000009A
:10510000000000000001020304050607080C10144B
:105110001820304064B46CB46CB46CD46CD46CD4CF
:105120006CB46CD46CD46CD474D474D47CF47CF42F
:105130007CF47CF47CF47CF484F484F484F484F4CF
:1051400084F484F484F48CF48CF48CF48CF48CF477
:105150008CF48CF48CF48CF48CF48CF48CF48D142E
:105160008D148CF48CF48CF48CF48CF48CF48CF41E
:105170008CF48CF48CF48D148CF48CF48D148D14CC
:105180008D148CF48CF48CF48CF48CF484F484F40E
:1051900084F484D48CF48CD48CD48CF48CF48CF47F
:1051A0008CF48CF48CF48CF48CF48CF48D148D14BD
:1051B0008D148D148CF48CF48CF48CF48CF48CF4AD
:1051C0008D148D148D148CF48CF48CF48CF48CF47C
:1051D0008CF48CF48CF48CF48D148CF48CF48CF5AD
:1051E0008CF58CF48CF48CF48CF48CF48CF48CF4BE
:1051F0008D148D148D148CF48CF48CF48CF48CF44C
:105200008CF48CF48CF484D48CF48CF48CF58D15A3
:105210008D158D158D158D148D148D148D148D1483
:105220008D148D148D148D158D158D158D158D1571
:105230008D158D158D158D158D158D148D148D1461
:105240008D148D158D158D148D148D158D158D1452
:105250008D148D148D148D148D148CF48D1484F490
:1052600084F484F484F484F484F484F484F484F47E
:1052700084F484F37C904AC84AE74B084309430905
:1052800043083B083B083AE83AA742E84309430988
:105290003AE932C932C83AE83AC832C932C83309A1
:1052A0003B4843A843A7438543834BA24BA14BA153
:1052B0004BA14BA14B814B8343A73C0E34113412BD
:1052C000136F0B4F0B500B50132F1B2E12AB1249A9
:1052D0001A481A481A48224822281A481A071A0750
:1052E0001A071A271A271A271A281A481A471A4774
:1052F0001A471A471A471A471A471A471A471A47A6
:105300001A471A471A471A471A471A471A471A4795
:105310001A471A471A471A471A471A471A471A4785
:105320001A471A471A471A471A471A471A471A4775
:105330001A471A471A471A471A471A471A481A4863
:105340001A481A481A471A471A481A481A481A484F
:105350001A481A481A481A481A471A471A471A4741
:105360001A481A281A271A271A471A471A471A4793
:105370001A481A471A271A271A271A271A271A27E4
:105380001A471A471A471A471A471A271A271A2775
:105390001A471A2764B46CB46CB464B46CD46CD47B
:1053A0006CB46CD46CD46CD474D474D47CF47CD4CD
:1053B0007CF47CF47CF47CF47CF484F484F484F455
:1053C00084F484F484F48CF48CF48CF48CF48CF4F5
:1053D0008CF48CF48CF48CF48CF48CF48CF48CF4CD
:1053E0008CF48CF48CF48CF48CF48CF48CF48CF4BD
:1053F0008CF48CF48CF48CF48CF48CF48CF48CF4AD
:105400008CF48CF48D148CF48CF48CF484F484F48B
:1054100084F48CF48CD48CD48CF48CF48CF48CF4D4
:105420008CF48CF48CF48CF48CF48CF48CF48D145B
:105430008D148CF48CF48CF48CF48CF48CF48CF44B
:105440008CF48CF48CF48CF48CF48CF48CF48CF45C
:105450008CF48CF48CF48CF48CF48CF48CF48CF44C
:105460008CF48CF48CF48CF48CF48CF48CF48CF43C
:105470008D148D148D148CF48CF48CF48CF48CF4C9
:105480008CF48CF48CF48CF48CF48D158CF58D15D7
:105490008D158D158D158D148D148D148D148D1401
:1054A0008D148D148D148D158D158D158D158D15EF
:1054B0008D158D158D158D158D158D148D148D14DF
:1054C0008D148D158D158D148D148D158D158D14D0
:1054D0008D148D148D148D148D148CF48CF484F42F
:1054E00084F484F484F484F484F484F484F484F4FC
:1054F00084F384D26C2E4AC84AE84B0943094329F5
:105500004328432843083AE73AA742E84329430996
:105510003AE932C83AE83AC83AE83AE932E93308AF
:105520003B283B8843A7438543834B824BA14BA138
:1055300053A153A14BA14BA343A733CD2BD02BF1A8
:10554000134F0B4F0B500B4F134F1B4E12AB1A49FF
:105550001A481A481A271A071A271A271A0719E683
:1055600019E61A271A271A271A281A481A471A4713
:105570001A471A471A471A471A471A471A471A4723
:105580001A471A471A471A471A471A471A471A4713
:105590001A471A471A471A471A471A471A471A4703
:1055A0001A471A471A471A471A471A471A471A47F3
:1055B0001A471A471A471A481A481A481A481A48DE
:1055C0001A481A481A481A481A481A481A481A48CB
:1055D0001A481A481A281A481A471A471A471A47DF
:1055E0001A271A271A271A271A471A471A471A4832
:1055F0001A271A271A2712071A271A481A481A4769
:105600001A271A471A471A471A471A471A271A27F2
:105610001A481A4764B46CB46CB46CD46CD46CB4CF
:105620006CB46CD46CD474D474D474D47CD47CF442
:105630007CF47CF484F484F47CF484F484F484F4C2
:105640008CF48CF48CF48CF48CF48CF48CF48CF45A
:105650008CF48CF48CF48CF48CF48CF48CF48CF44A
:105660008CF48CF48D148D148D148CF48CF48CF4D7
:105670008CF48CF48CF48CF48CF48CF48CF48CF42A
:105680008CF48CF48CF48CF48CF48CF48CF48CF41A
:105690008CF48CF48CF48CF48CF48CF48CF48CF40A
:1056A0008CF48CF48CF48CF48CF48CF48CF48CF4FA
:1056B0008CF48CF48CF48CF48CF48CF48CF48CF4EA
:1056C0008CF48CF48CF48CF48CF48CF48CF48CF4DA
:1056D0008CF48CF48CF48CF48CF48CF48D148CF4A9
:1056E0008CF48CF48CF48CF48CF48CF48CF48CF4BA
:1056F0008CF48D148CF48CF48CF48CF48CF48CF489
:105700008CF48CF48CF48CF48CF48D158D158D1533
:105710008D158D148D148D158D158D158D158D147C
:105720008D148D158D158D158D158D158D158D156A
:105730008D158D158D158D158D158D148D148D145C
:105740008D148D148D148D148D148D158D158D154E
:105750008D158D148D148D148CF48CF48CF484F4CC
:1057600084F484F484F484F484F484F484F484F479
:1057700063EE4AE94AE84AE84B09430943294329C9
:105780004328432843073AC63AA63AC743093B0988
:105790003B083AE83AC83AE73AE73B083B083B0897
:1057A0003B283B473B874BA54B834BA24B804B8110
:1057B0004BA14BA14B8143833BA733CE23D123D1B4
:1057C000134F0B4F0B500B4F134F12CC12691A484B
:1057D0001A4722481A2719E71A071A281A0719E63A
:1057E00019E61A071A071A271A281A481A471A47D1
:1057F0001A471A471A471A471A471A471A471A47A1
:105800001A471A471A471A471A471A471A471A4790
:105810001A471A471A471A471A471A471A471A4780
:105820001A471A471A471A471A471A471A471A4770
:105830001A471A471A481A481A481A481A481A485A
:105840001A481A481A481A481A481A281A281A28A8
:105850001A481A481A481A481A471A471A271A287B
:105860001A071A071A281A271A471A471A481A270E
:105870001A271A481A271A271A281A481A481A489B
:105880001A271A471A471A471A471A471A271A2770
:105890001A271A4864B46CB46CD46CD46CD46CD42D
:1058A0006CD46CD46CD474D474D474D47CD47CD4C0
:1058B0007CF47CF484F484F484F484F484F48CF430
:1058C0008D148CF48CF48CF48CF48CF48CF48CF4B7
:1058D0008CF48CF48CF48CF48CF48CF48CF48CF4C8
:1058E0008CF48CF48D148D148D148CF48CF48CF455
:1058F0008CF48D148CF48D148CF48CF48D148D1424
:105900008D148CF48CF48CF48CF48CF48CF48CF476
:105910008CF48CF48CF48CF48CF48CF48CF48CF487
:105920008CF48CF48CF48CF48CF48CF48CF48CF477
:105930008CF48CF48CF48CF48CF48CF48CF48CF467
:105940008CF48CF48CF48CF48CF48CF48CF48CF457
:105950008CF48CF48CF48CF48CF48D148D148CF405
:105960008CF48CF48CF48CF48CF48CF48CF48CF437
:105970008CF48CF48CF48CF48CF48CF48CF48CF427
:105980008CF48CF48CF48CF48D148D158D158D1590
:105990008D158D148D148D158D158D158D158D14FA
:1059A0008D148D158D158D158D158D158D158D15E8
:1059B0008D158D158D158D158D158D148D148D14DA
:1059C0008D148D148D148D148D148D158D158D15CC
:1059D0008D158D148CF48CF48CF48CF484F484F494
:1059E00084F484F484F484F484F484F484F484F3F8
:1059F00063AE4AE942C8430943094329432943297D
:105A00003B283B073AE742E742E73AC73B083B29D6
:105A10003B293B093AE83AE63AC643073B073B27AE
:105A20003B273B26436643844BA3642353804B812F
:105A30004BA14BA14B8143A33BA72BCD23D123D11A
:105A400013700B500B500B4F132E12AB12691A48E8
:105A50001A471A481A2719E71A071A281A0719E7BE
:105A600019E61A071A071A271A281A481A471A474E
:105A70001A471A471A471A471A471A471A471A471E
:105A80001A471A471A471A471A471A471A471A470E
:105A90001A471A471A471A471A471A471A471A47FE
:105AA0001A471A471A471A471A471A471A471A47EE
:105AB0001A471A471A481A481A481A481A481A48D8
:105AC0001A481A481A481A481A481A271A281A2827
:105AD0001A481A481A481A271A481A271A281A2739
