:020000040800F2
:1000000030090020ED010008733200088D2B000834
:1000100071320008050A00088D3A0008000000004F
:10002000000000000000000000000000353400085F
:10003000C70A0008000000007532000837340008C5
:10004000070200080702000807020008070200086C
:10005000070200080702000807020008070200085C
:10006000070200080702000807020008090A000842
:10007000070200080702000807020008070200083C
:1000800007020008070200084108000807020008EC
:10009000070200080702000807020008070200081C
:1000A000070200080702000807020008070200080C
:1000B00007020008070200080702000807020008FC
:1000C00007020008070200080702000807020008EC
:1000D00007020008070200080702000807020008DC
:1000E00007020008070200080702000807020008CC
:1000F00007020008070200080702000807020008BC
:1001000007020008070200080702000807020008AB
:10011000070200080702000807020008070200089B
:10012000070200080702000807020008070200088B
:10013000070200080702000807020008070200087B
:10014000070200080702000807020008000000007C
:10015000000000000000000000000000000000009F
:10016000000000000000000000000000070200087E
:10017000070200080702000807020008070200083B
:10018000070200080702000807020008070200082B
:10019000070200080000000007020008070200082C
:1001A000070200080702000807020008070200080B
:1001B00007020008070200080702000807020008FB
:1001C00007020008070200080702000807020008EB
:1001D0000702000807020008DFF80CD000F0AEFAB2
:1001E00000480047F93A00083009002006488047D7
:1001F00006480047FEE7FEE7FEE7FEE7FEE7FEE70C
:10020000FEE7FEE7FEE7FEE7AD340008D90100088F
:100210002DE9F05F0546002092469B46884606463B
:10022000814640241BE0284641464746224600F0CE
:1002300086F853465A46C01A914110D311461846C3
:10024000224600F06DF82D1A67EB01084F46224652
:100250000120002100F064F817EB00094E41201E38
:10026000A4F10104DFDC484631462A464346BDE896
:10027000F09FD2B201E000F8012B491EFBD270477B
:100280000022F6E710B513460A4604461946FFF762
:10029000F0FF204610BD00F0004230F000400AD0D0
:1002A000C10D01F56071C0F3160042EA0151C208A8
:1002B00040071143704700200146704701F000439A
:1002C00030B421F0004150EA010206D00A0DA2F537
:1002D0006072C1F31301002A02DC30BC00207047B9
:1002E000440F44EAC104C100E01830BC00EBC25026
:1002F00000F035B830B50B4601460020202201241D
:1003000009E021FA02F59D4205D303FA02F5491BE3
:1003100004FA02F52844151EA2F10102F1DC30BDF9
:10032000202A04DB203A00FA02F1002070479140B5
:10033000C2F1200320FA03F3194390407047202AAA
:1003400004DB203A21FA02F00021704721FA02F37F
:10035000D040C2F12002914008431946704700295D
:10036000A8BF7047401C490008BF20F0010070473B
:1003700010B4B0FA80FC00FA0CF050EA010404BF9B
:1003800010BC704749B1CCF1200421FA04F411FAF1
:100390000CF118BF012121430843A3EB0C01CB1D35
:1003A0004FEA00614FEA102042BF002010BC7047A6
:1003B00000EBC35010440029A4BF10BC7047401C80
:1003C000490008BF20F0010010BC70472DE9FE4F26
:1003D000804681EA0300C00F0C46009021F00041E6
:1003E00023F00045B8EB0200A94105D24046214662
:1003F00090461C460B46024623F00040104347D06F
:10040000270DC7F30A00C3F30A510290401A019066
:1004100040286BDAC3F3130040F4801B0098924627
:1004200020B10023D2EB030A63EB0B0B0198594672
:10043000C0F140025046FFF773FF06460D46504696
:100440005946019A00F08CF910EB08006141002434
:1004500087EA115284EAE7731A4340D0009A62B3E4
:10046000019A012A4FEA075215DC001B61EB0201D9
:100470004FF0004202EA0752CDE90042001C41F56C
:10048000801132462B4600F08CF903B0BDE8F08FA6
:1004900040462146F9E7001B61EB0201001C41F5D3
:1004A000801300185B412018A2F5001747EB0301E9
:1004B00040EAD570B6196D4111E06D084FEA360675
:1004C00045EAC0754FEA0752001B61EB0201001CB0
:1004D00041F5801149084FEA300000195141324678
:1004E0002B4603B0BDE8F04F00F04CB90098012254
:1004F00040000023D0EB020263EBE073009821463A
:100500004FEAE074B8EB000061EB0401E9E783F027
:1005100000435BE781F0004158E72DE9FE4F81EA97
:10052000030404F0004421F0004100944FF0000B5C
:1005300023F0004350EA01045ED052EA03045BD08A
:10054000C3F30A54C1F30A552C44A4F2F3340194C2
:10055000A0FB0254C1F3130141F48011C3F3130350
:1005600043F4801301FB024400FB034E840A970A04
:1005700044EA815447EA8357A4FB076802958D0A31
:1005800005FB07854FEA932C04FB0C542705029DBD
:100590004FEA065847EA1637B5EB08056EEB070C2D
:1005A000870E920E47EA811742EA8312A7FB0201E7
:1005B000B6EB0B0164EB00042B0D43EA0C335E1821
:1005C00044EB1C50DA465146E7FB0201C5F3130425
:1005D0004FEA0B3343EA14534FEA0432019C43EAD7
:1005E0000603A4F10C040294009CCDE900B400F0D1
:1005F000D8F803B0BDE8F08F00200146F9E72DE9F7
:10060000F04D81EA030404F0004B21F0004514464C
:100610004FF0000A23F0004150EA050220D054EACE
:1006200001021DD0C5F30A570246C5F31303C1F3F7
:100630001300C1F30A5640F4801543F48013A7EB6E
:100640000608101BD64608F2FD3873EB050002D3EE
:1006500008F1010801E092185B41B8F1000F03DADC
:1006600000200146BDE8F08D00204FF480110646C1
:1006700084460EE0171B73EB050705D3121B63EBD3
:10068000050306434CEA010C49084FEA3000921872
:100690005B4150EA0107EDD152EA030012D082EA31
:1006A000040083EA0501084305D0101BAB4106D2C4
:1006B0000122002306E000224FF0004302E06FF029
:1006C000010253101AEB06004CEB085110EB0A0024
:1006D00041EB0B01BDE8F04D00F054B8C1F30A52F4
:1006E000C1F3130140F2FF3341F480119A4202DA60
:1006F00000200146704740F233439A42A2F233424F
:1007000002DC5242FFF71BBEFFF70ABE30B5041EE3
:1007100071F1000404DB4FF00044404264EB01013E
:10072000141E73F1000405DB1C464FF000435242D7
:1007300063EB0403994208BF904230BD064C074D5D
:1007400006E0E06840F0010394E8070098471034A1
:10075000AC42F6D3FFF744FD34540008545400086B
:10076000202A06DBCB17203A41FA02F043EAE07375
:1007700006E041FA02F3D040C2F120029140084362
:100780001946704710B5141E73F1000408DA401CB6
:1007900041F1000192185B411A4301D120F00100A0
:1007A00010BD2DE9F04D92469B4611B1B1FA81F290
:1007B00002E0B0FA80F220329046FFF7B1FD044625
:1007C0000F4640EA0A0041EA0B0153465A460843E5
:1007D00013D0114653EA010019D0C8F14002504627
:1007E000FFF7ADFD05460E46504659464246FFF717
:1007F00097FD084305D0012004E020463946BDE8B6
:10080000F08D0020054346EAE0762C4337430A98F2
:100810006305E40AA0EB08000022FD0A44EA4754FD
:100820000A3002D500200146E9E7010510196941A7
:10083000DDE9084500196941BDE8F04DA2E7000077
:10084000014800F0E5BB00BFEC0000200146886ACB
:10085000C36DC26D13F0500F07D0D20648BF00F031
:10086000D5BB406D426B0846104742F40071C1652C
:1008700001680B68CA6813F0080F0FD191070BD4F9
:10088000C16D21F48071C165C16D11F4805F02BF3B
:10089000C16D41F00101C16500F0B6BB12F4406FBB
:1008A00018BF00F0B1BBC96811F4005FE8D0F3E7EE
:1008B000806AC16D41F04001C165016E41F00401E3
:1008C000016600F0A3BB806A00F09FBBB0B5044690
:1008D000002021688B688A6813F0020F2DD112F076
:1008E000010208BFB0BD886800F00D0001281BD1CF
:1008F0008868414A104040F0020088600320086088
:1009000001F0EEF805462068806810F0010F04BF82
:100910000020B0BD01F0E4F8401B0328F3D32068A9
:10092000806810F0010FEED0E06D40F01000E0653F
:10093000206E40F0010020660120B0BD7CB5044669
:100940000020019021688A6812F0010F52D12A4ECE
:10095000886806F17F02104209D0E06D40F0100077
:10096000E065206E40F001002066012042E08868CA
:10097000304040F001008860CA4800F500728142B2
:10098000134618BF00F5C063B1F1A04F08BF13466E
:10099000986810F4000F10D0184819490068B0FB8F
:1009A000F1F00C2100EB400001EB800001E0019828
:1009B0000138019001980028F9D101F091F805461D
:1009C0002068016811F0010F13D1816811F0010F47
:1009D00004D18168314041F00101816001F080F86B
:1009E000401B0328ECD32068006810F0010FE7D10A
:1009F000B3E7002002B070BDC0FFFF7F0C000020F5
:100A0000400D0300FEE70000014800F087BE00BF74
:100A10005801002010B5104C04F18002A4F57E713D
:100A20002034C2640268436C8A4223F003013CBF55
:100A300040F60004C4F20204214481646FF007010F
:100A400051FA82F11422B1FBF2F1012201F01F01EF
:100A500002FA01F1016510BD00080240037907495F
:100A60000122013B01F1400C01EB830103F01F0364
:100A70009A40C0E9151CC265704700BF00090240DA
:100A800010B5D0E913CE0124CCF804E0D0F854C05E
:100A9000BCF1000F1CBFD0E916CECCF804E0D0E9C1
:100AA00010CE0EF01F0E04FA0EF4CCF804400468C9
:100AB000636080681028084608BF1046A06008BF21
:100AC0000A46E26010BD7047EFF3108072B6FEE791
:100AD00080B59FED071A31EE401A81EE000A02F050
:100AE000D7FF044901EB800090ED000A80BD00BFF4
:100AF000333353406C460008BCB5044600200D4615
:100B0000019094F85800012801D1022036E001201C
:100B100084F858002046FFF7D9FEE16D10B141F08E
:100B2000100127E041F20210154A21EA000040F0CE
:100B30000200E06520688168114005F080421143A1
:100B400041F0004181600F498268B2F1FF3F0CDC47
:100B5000019A01320192019A8A42F5D3E06D20F0A8
:100B6000120040F01001012004E0E16D012060F36B
:100B700001010020002284F85820E16502B0B0BDD8
:100B8000C0FFFF3F02DE04007047704770477047A8
:100B90007047000090F85820012A01D102217AE024
:100BA000BCB501223D4D80F85820002201920092F0
:100BB00005F1F80C0368B3F1A04F05D0384CA342FF
:100BC0002CD105F59F6400E06446A4689A6822432E
:100BD000520723D405F53E726345944618BF05F5C8
:100BE000DF6CB3F1A04F08BF9446D1F800E0DCF809
:100BF0000820BEF1000F22F4604415D04A68224359
:100C000090F8384042EA4432CCF8082043F480722D
:100C1000F54B9A4212D155F8F83B16E0C16D41F000
:100C20002001C165012131E0EF4A43F48071CCF825
:100C30000840914217D155F8F81B1BE0D5F8002465
:100C4000D5F8003505F5BF651343AA681A43D207E6
:100C50001BD1DCF80820896840F61F739A4341EAEB
:100C60000E0111430FE0D5F80014D5F8002505F565
:100C7000BF651143AA681143C90706D1DCF8081003
:100C800040F61F729143CCF808100021002280F832
:100C90005820BDE8BC40C8B2704700BF08000050F3
:100CA0000004005000010050F8B5044600200D4635
:100CB000009094F85800012801D1022388E1012016
:100CC00084F858002068816811F0040F26D1D5E916
:100CD00000121F2702F01F03C2F3012200EB820261
:100CE0009F40166BC1F38461994026EA0707394398
:100CF000116381688268D20842EA9101C90740F015
:100D00009880AA682968B2F1004F0DD1002201F045
:100D10003EFF2068416941F000410BE0E06D012396
:100D200040F02000E06550E101F031FF20684169AA
:100D300021F000414161D5E90412C36804294DD175
:100D4000016E036E2A68A549C2F3846792FAA2F67F
:100D50000A4218BFB6FA86F7C3F38463BB4204D1D4
:100D6000026E22F0004202662A68436E92FAA2F7EF
:100D70000A42C2F3846318BFB7FA87F3476EC7F31A
:100D800084679F4204D1426E22F0004242662A6884
:100D9000836E92FAA2F70A42C2F3846318BFB7FACD
:100DA00087F3876EC7F384679F4204D1826E22F077
:100DB000004282662A68C36E92FAA2F70A42C2F320
:100DC000846318BFB7FA87F3C16EC1F38461994297
:100DD00002BFC16E21F00041C1662AE000F1600649
:100DE000D5F800C07C4F56F821E00EEA070E062722
:100DF00007EA93039A400CF0F8431A4342EA0E02C2
:100E000042F0004246F821202969AA6956F82130AB
:100E100023F080731A4346F821202A69297F56F867
:100E20002230012923F0007308BF43F0007346F815
:100E30002230816811F0010F63D12968674EEB6899
:100E4000D0F8B070CA4362EA0602174003F01802F5
:100E5000D6400A466FF3DF4216403743604EC0F873
:100E6000B070B3424DD191FAA1F3002A4FEA9167D5
:100E7000B3FA83F6334608BF8B0E013303F01E032B
:100E8000092B0CD8C2B14FF08063711C03EB866351
:100E900001F01F020121914003F0F84317E0CAB1AD
:100EA0004FF08063711C03EB866301F01F02012188
:100EB000914003F0F84318E07A1C01F0F841012357
:100EC00001F1806102F01F02934001F0F8411943E3
:100ED00000230EE07A1C01F0F841012301F180614A
:100EE00002F01F02934001F0F84119430A3A4FF013
:100EF000007302EB420243EA02521143AA6801F076
:100F000046FE2868374908425ED0ED4B2568374FCA
:100F100003F500719D429E460A4618BF03F5C06264
:100F2000B5F1A04F134608BF0B46B8429E6806F0C5
:100F3000E07C02D02E4FB84222D1300244D4B5F129
:100F4000A04F03D02B4885423ED11146886820F03F
:100F5000E07040EA0C0040F4000088602648274911
:100F60000068B0FBF1F00C2100EB400001EB8000C9
:100F700001E000980138009000980028F9D123E0A2
:100F80001F4FB84208BF16F0807715D01D4F0023C1
:100F9000B84208BF16F4800017D1B5F1A04F02D0B7
:100FA000754511D01146886820F0E07040EA0C00C9
:100FB00040F48000886007E0986820F0E07040EA24
:100FC0000C0040F0807098600023002084F85800E6
:100FD000D8B201B0F0BD00BF00F0FF03FFFF070073
:100FE00000007F400000088000010050000021C385
:100FF0001000C090000600500C000020400D0300BF
:10100000000052C7000084CB704770477047000053
:101010002DE9F8430446AA4F206807F5C06840F45C
:10102000807301684268BB420CBF07F500734346FA
:1010300001EA02059E68A9070DD5E06D10F0100FBA
:1010400002BFE06D40F40060E0652046FFF79CFDC4
:10105000206802210160690706F01F0958BF5FEA96
:10106000057151D5214651F85C2F12F0100F02BFC7
:101070000A6842F400720A60C26812F4406F3DD1FF
:10108000B84206D08F4A9042024614D107F540720A
:1010900001E04FF0A042824202460CD0B9F1090FA4
:1010A00000F2FE80012240F2212302FA09F21A42E4
:1010B000024600F0F580D26812F4005F1ED102688B
:1010C00012F0080F1AD0826812F0040F0CD1426897
:1010D00022F00C024260086820F480700860086802
:1010E00010F4805F06D009E0E06D04F1600140F08B
:1010F0001000E065086840F0010008602046FFF736
:1011000083FF20680C210160A90658BF5FEA456192
:1011100030D5214651F85C2F12F0100F02BF0A683B
:1011200042F400520A60B842C26C02F4C073C26852
:1011300006D0644EB042064613D107F5407601E072
:101140004FF0A046864206460BD0B9F1070F00F2D9
:101150009380012606FA09F616F0C10F064600F044
:101160008B80F668002B62D02046FFF70EFD2068CA
:1011700060210160290609D5E06D40F48030E0650A
:10118000204600F0A5F9206880210160E9050AD514
:10119000E06D40F40030E0652046FFF7F8FC206881
:1011A0004FF480710160A9050AD5E06D40F48020FC
:1011B000E0652046FFF7ECFC20684FF40071016009
:1011C000E90620D5E16B81B1B9F1000F4FD007F5E9
:1011D0000071B84208BF8846B0F1A04F08BF8846EA
:1011E000D8F8081011F4604F0BD0E06D40F4806027
:1011F000E065206E40F0020020662046FFF706FF03
:10120000206810210160690558BFBDE8F883E16DD1
:1012100041F48041E165216E41F0080121664FF4FF
:10122000806101602046BDE8F843FFF7AFBCB30121
:1012300005D502F4406206F400531A4394D10268C3
:10124000B30291D412F040028ED0826812F0080FDF
:101250001BD1426822F060024260086820F480508E
:101260000860086810F4807F7FF47EAF13E0C168E7
:1012700011F0010FB9D1C4E7B8421AD0114EB042F3
:10128000064608BF07F540766BE7E06D04F16001A4
:1012900040F01000E065086840F00100086063E776
:1012A000B84209D0074A9042024608BF07F540728B
:1012B00001E74FF0A04654E74FF0A042FBE600BF25
:1012C00000010050000500507CB504460020002CB1
:1012D00001903AD0E06D30B9204600F0FBF80020D4
:1012E00084F8580020662168886810F0005F03D0F9
:1012F0008868714A10408860886810F0805F16D155
:101300006D4A886802F1805210406D4A40F080506A
:1013100088606A480068B0FBF2F0022202EB4000ED
:1013200001E001980138019001980028F9D18868FE
:1013300010F0805F0BD1E06D40F01000E065206E92
:1013400040F001002066012002E00120B2E0002010
:101350008A68C2F38002E36D03F010031343E36D68
:1013600003D043F010010120A3E023F4817343F084
:101370000203E3658B6813F0010F27D1E14D41F4BF
:101380008073504EAB4203D1354655F8F83B06E02A
:10139000D6F80034D6F800552B4306F5BF65AD6886
:1013A0002B43DB0712D106F1F80306F53E7599428F
:1013B0002B4618BF06F5DF63B1F1A04F08BF2B46DF
:1013C00066689D6825F47C152E439E60637FE66BFE
:1013D00046EA4333D4E902652B43334394F824604F
:1013E00043EA0643012E04D1A66A374D05EB464673
:1013F0003343E66A26B106F478763343266B3343EB
:10140000CE68324D2E403343CB600B69666B23F0C0
:10141000406333430B618B68C3F3C0031A433AD173
:1014200094F83830227FCE6844F202055B00AE4368
:1014300043EA82323243CA6022690B694AB143F4FB
:10144000803343F6FF760B61D1F8C030B3431A43C3
:1014500007E023F4803243F6FF730A61D1F8C0201D
:101460009A43C1F8C02094F840300A69012B0FD18B
:1014700040F2FD7322EA030CD4E91136D4E9135289
:1014800043EA0C0333432B431A4342F0010201E0C9
:1014900022F001020A6163690A6B22F00F02012B3C
:1014A00002BF236A013B1A430A630122E16D62F322
:1014B0000101E16502B070BDC0FFFF5F0C000020BC
:1014C000400D0300080000500000FEFF0740F0FF41
:1014D000704700002DE9F0439BB0044616A8142184
:1014E000FEF7CEFE01A85421FEF7CAFE2068B0F137
:1014F000A04F75D14FF0005012904FF40040019072
:1015000001A800F0EBFB08B1FFF7DEFA36484FF018
:101510000308374D16AE0027016841F40051016001
:10152000016801F4005100910099016841F0040143
:101530000160016801F0040100910099016841F027
:1015400001010160016801F0010100910099016849
:1015500041F00201016025490068894600F002005F
:1015600000900098CDF85C800B20169001F580600B
:1015700031461897A8470F20CDF85C803146169069
:101580004FF090401897A8474FF4A040CDF85C80EA
:101590003146169048461897A847164D164905201B
:1015A00080224FF480734FF480664FF0200CC5E921
:1015B000001005F11000C5E9027780E84C102846BC
:1015C0002F6200F001F908B1FFF77EFA1220002126
:1015D00000226565AC6200F0E5FA122000F0D4FA52
:1015E0001BB0BDE8F08300BF4C100240000400486F
:1015F0003519000858010020080002402DE9F0418B
:101600000446404F0E469046206807F50071B842E8
:101610000A4618BF07F5C062B0F1A04F08BF0A46DE
:101620009168826812F0040F03D194F85820012ABF
:1016300002D10220BDE8F08101F01F05012184F8EC
:10164000581007F5A061884207D0092D1ED8012047
:1016500040F22121A840084218D02046FFF76EF939
:1016600020B1002184F85810BDE8F0812168E06DB8
:1016700040F601729043B94240F48070E0650BD0AF
:10168000214881420DD107F5407007E0002084F821
:1016900058000120BDE8F0814FF0A0400DB1884214
:1016A00003D1E06D20F48010E065E06D174B184F1A
:1016B000184D002210F4805F4FF000001CBF206E18
:1016C00020F006002066606DC0E90B731C234563A3
:1016D0000B6084F8582043464A6842F010024A6082
:1016E000CA6842F00102CA604031324600F0CCF8CC
:1016F0002168094B8A681A4042F004028A60BDE8FA
:10170000F08100BF0001005000050050C70800082C
:101710004D080008B1080008C0FFFF7FB0B5D0E950
:1017200010C4DCF80010026804F01F0E136813F0F8
:10173000040F1EBF042404FA0EF414EA010519D1A3
:101740009C0723D5022404FA0EF414EA01051DD0E7
:10175000116811F0200F06D1116821F00A01116003
:10176000012180F825100021CCF8044080F82410D5
:10177000C16A23E0116811F0200F02BF116821F047
:1017800004011160CCF80440016B17E01B0719D568
:10179000082303FA0EF3194008BFB0BD116821F009
:1017A0000E011160012101FA0EF2CCF80420002292
:1017B000C16380F8242080F82510416B11B1BDE889
:1017C000B0400847B0BD0000F8B50446002C48D032
:1017D00002202B49142304F1180784F825002068FF
:1017E00001F108029042274A38BFA1F5806138BF55
:1017F00002F580620244B2FBF3F29200C4E91012D7
:1018000047F6F072016821EA020CD4E90223D4E918
:10181000041EE0CF42EA0C021A43114341EA0E01D2
:1018200029433143394301602046FFF7F3F8A068AC
:10183000B0F5804F06BF002060606068A16CC2B246
:1018400001380A600328D4E913124A600BD82046F5
:10185000FFF704F9606D00210160D4E916014160D1
:1018600005E001200AE00020C4E91500E065002041
:101870000121E06384F8240084F8251001B0F0BD54
:1018800000040240F8FBFDBF10B5044694F82400A4
:10189000012820D0012084F8240094F82500012894
:1018A00016D1022084F825000020E063D4F800C09F
:1018B000DCF8000020F00100CCF800002046FFF723
:1018C000DFF82068226B01683AB141F00E010AE0AE
:1018D000002084F8240002201AE021F004010160B5
:1018E000016841F00A010160A16C0A6812F4803FAE
:1018F0001EBF0A6842F480720A60616D19B10A68FD
:1019000042F480720A60016841F001010160002028
:10191000C0B210BDB0B5044600F0E2F805468C48F0
:10192000611C406818BF044400F0DAF8401BA04274
:10193000FAD3B0BD2DE9FC4F5F4A06274FF0000AED
:101940004FF001084FF003094FF0000B00259042C3
:1019500000F138424FEAB22308BF0527052B38BFF4
:101960004FEAB22700970C6834FA05F308BFBDE8C8
:10197000FC8F08FA05F314EA030600F097804F681D
:1019800007F00304621E012A15D8D0F808C009FA2E
:101990000BF22CEA020CCA6802FA0BF242EA0C02C1
:1019A0008260C7F3001202FA05FC42689A4342EAD9
:1019B0000C02426001E0032C1DD0C36809FA0BF24F
:1019C000022C23EA02028B6803FA0BF342EA0302B9
:1019D000C26010D13C4C0AF01C020F23934004EA71
:1019E000550707443C6A24EA03030C6904FA02F22F
:1019F0001A433A624F68046807F0030209FA0BF3CE
:101A000017F4403F02FA0BF224EA030342EA03020E
:101A100002604BD02B4A0AF00C070F24BC4013463F
:101A20001A6842F001021A601A68244B02F001029F
:101A30009C46019225F00302019B6244234B9E4683
:101A400052F80E30A343009C04FA07F73B4342F8D8
:101A50000E30DCF808204F6842EA060317F4801FB6
:101A600008BF22EA0603164A17F4001FCCF8083014
:101A70001446226842EA060308BF22EA060317F466
:101A8000003F2360DCF8042042EA060308BF22EA94
:101A9000060317F4803FCCF80430DCF8002042EA5B
:101AA000060308BF22EA0603CCF800300AF1040A54
:101AB0000BF1020B013556E7001400480004014009
:101AC0000C04014060100240FCFFFF7F08FCFFFF98
:101AD00000F11803002A08BF00F1280319607047BD
:101AE0001B488068704700BF1948416882681144EC
:101AF0008160704780B5032000F080F8032000F07B
:101B000007F808B1012080BD00F024F8002080BD56
:101B100070B50F4E04467068B0B14FF47A71B1FBE6
:101B2000F0F068490968B1FBF0F000F02DFF0125E5
:101B30000F2C0AD848B94FF0FF302146002200256B
:101B400000F030F8346000E00125284670BD00BF89
:101B50000000002082B00B48816841F001018160E3
:101B6000816801F0010101910199016841F0805102
:101B70000160006800F080500090009802B000F012
:101B8000A5B800BF58100240002808DB00F01F0174
:101B90000122400902FA01F1014A42F8201070477F
:101BA00000E100E0B0B500F00F031A4D124CB0F1A7
:101BB000FF3FA3F104032B4403F10C03C8BF031937
:101BC0002868C0F30220051DC41E80F00700072D01
:101BD0004FF0010538BF0024042828BF042005FA6F
:101BE00000F00138084005FA04F10F31A04011401F
:101BF000084300011870B0BD00E400E005494FF64D
:101C0000FF030A681A4060F30A2203481043086081
:101C1000704700BF0CED00E00000FA0520B3D64984
:101C2000B0F5007F0A6845D1D1F8800040F480709B
:101C3000C1F8800002F4C060B0F5806F3ED1086842
:101C4000012262F34A20322208601E480068504395
:101C50001D4AB0FBF2F0C0434A6918B1013012F4DA
:101C60008062F9D1486920E0C3480168D0F880203B
:101C700001F4C06122F48072B1F5806FC0F8802059
:101C80001CD10168012262F34A21322201600D4910
:101C9000096851430C4AB1FBF2F1C943426919B1D9
:101CA000013112F48062F9D1406910F4806F05D0DF
:101CB000032004E0022060F34A220A600020C0B240
:101CC000704700BF0C00002040420F00024801682E
:101CD00041F4804101607047087000402DE9FC41EB
:101CE0000446A44EA078000701D4002060E0F06C08
:101CF00010F0805F0BD1F06C4FF0010840F0805085
:101D0000F064F06C00F080500190019801E04FF019
:101D10000008994F386840F480703860FFF7E0FEA3
:101D20000546386810F4807F06D1FFF7D9FE401BC6
:101D30000228F6D9032034E0D6F8840010F440706D
:101D400026D0216D884211D0D6F88400D6F88410B0
:101D500041F4803120F44070C6F88410D6F8841025
:101D600021F48031C6F88410C6F88400C0070FD073
:101D7000FFF7B6FE054641F28837D6F8840010F02A
:101D8000020F05D1FFF7ACFE401BB842F5D9D1E7F1
:101D9000D6F88400216D20F440700843C6F8840012
:101DA0000020B8F1000F1EBFF16C21F08051F164EA
:101DB000216811F0010F05D0F26F636822F0030271
:101DC0001A43F2678A0705D5F26FA36822F00C0266
:101DD0001A43F2674A0705D5F26FE36822F0300232
:101DE0001A43F2670A0705D5F26F236922F0C00291
:101DF0001A43F267CA0605D5F26F636922F440728E
:101E00001A43F2678A0605D5F26FA36922F440628D
:101E10001A43F2674A0605D5F26FE36922F440528D
:101E20001A43F2670A0605D5F26F236A22F440428C
:101E30001A43F267CA0505D5F26F636A22F440328D
:101E40001A43F2678A0307D5D6F89020A36A22F0D6
:101E500003021A43C6F890208A0505D5F26FE36A9B
:101E600022F440221A43F2674A050DD5F26F236B24
:101E700022F44012B3F5801F42EA0302F26702BF68
:101E8000326842F4801232600A050DD5F26F636B3E
:101E900022F44002B3F5800F42EA0302F26702BF68
:101EA000326842F480123260CA040DD5F26FA36B1F
:101EB00022F04072B3F1807F42EA0302F26702BF70
:101EC000326842F4801232608A040DD5F26FE36BFF
:101ED00022F04062B3F1006F42EA0302F26702BFF0
:101EE000326842F4801232604A040DD5F26F236CDE
:101EF00022F04062B3F1006F42EA0302F26702BFD0
:101F0000326842F4801232600A040DD5F26F636CBD
:101F100022F04052B3F1805F42EA0302F26702BF4F
:101F2000326842F480323260CA030DD5F26FA36C7E
:101F300022F04042B3F1804F42EA0302F26702BF4F
:101F4000326842F48032326049030FD5D6F89010DF
:101F5000E26C21F44011B2F5001F41EA0201C6F81B
:101F6000901002BF316841F480113160C0B202B0FC
:101F7000BDE8F0810C100240007000402DE9F047F0
:101F800081468A46B9F1000F54D0764C4FF4805008
:101F9000215801F00F0151450AD2215821F00F01BB
:101FA00041EA0A012150205800F00F00504541D16C
:101FB000D9F8000010F0010F02D14FF000086BE0DB
:101FC000D9F80410032930D1216811F0007F31D0F5
:101FD000E168E268E368E7680226C7F3416701F059
:101FE000030106EB47072646894C032904BF41F647
:101FF0000034C0F2B704C2F30311C3F30622013167
:10200000B4FBF1F15143584AB1FBF7F1914224D9A5
:10201000B168344611F0F00F17D0800702D5D9F817
:10202000080090B14FF000081AE02068022905D19D
:10203000800305D40120C0B2BDE8F0874005F9D582
:1020400000F0B4F848498842ECD9A06808214FF064
:10205000800861F30710A06002E04FF000083446EA
:10206000A068D9F8041020F003000843A060FFF72F
:1020700037FD064641F28837A068D9F8041000F011
:102080000C00B0EB810F05D0FFF72AFD801BB84292
:10209000F2D93CE0D9F80000810706D4B8F1800FEE
:1020A00017D1A16821F0F00112E0410742BFA168F9
:1020B00041F4E061A160010704D5A168072262F341
:1020C0000D21A160A168D9F8082021F0F001114389
:1020D000A1604FF48057E15901F00F0151451BD920
:1020E000E059254620F00F0040EA0A00E051FFF7D2
:1020F000F7FC064641F288342846C05900F00F002C
:10210000504506D0FFF7ECFC801BA042F4D9032019
:1021100091E7D9F800002C46410706D5A168D9F807
:102120000C2021F4E0611143A160000707D5A068ED
:10213000D9F8101020F4605040EAC100A06000F00F
:1021400035F8A168094AC1F30311515C01F01F0180
:10215000C8401449086006480068BDE8F047FFF72A
:10216000D7BC00BF0010024000B4C40454460008AD
:10217000000000200B4825490B4A00680968C1F39C
:102180000221515C01F01F01C840704705481F49FA
:10219000054A00680968C1F3C221515C01F01F01C2
:1021A000C84070470C000020644600081749184AD0
:1021B000086800F00C000428104608BF7047086843
:1021C00000F00C031348082B1ED00B6803F00C031F
:1021D0000C2B1CBF002070474B6803F00303032B3C
:1021E00008BF02464868C0F303100130B2FBF0F0AC
:1021F0004A68C2F30622496850430222C1F3416192
:1022000002EB4101B0FBF1F0704700BF0810024043
:102210000024F400001BB7002DE9F8430446002C0D
:1022200000F0CB812078C54EC54FC007B1461FD105
:10223000207880074DD42078000740F1A4806169A0
:10224000D7F89000002900F08C8040F00100C7F81A
:102250009000FFF745FC0546D7F8900010F0020FFC
:1022600040F09180FFF73CFC401B0228F4D9D9E0F4
:102270007968B86801F00C01082951D0032281F077
:102280000C0122EA00000843B0FA80F0400947D16F
:102290006668B6F5803F0AD0C846B6F5A02FD8F8D4
:1022A000000040F0DC8040F48020C8F800004E467A
:1022B000306840F480303060FFF712FC054630682B
:1022C00010F4003FB4D1FFF70BFC401B6428F6D993
:1022D000A8E07868B96800F00C0004282AD001F062
:1022E000030180F00C0081F002010843B0FA80F095
:1022F00040091FD1E1683068002900F0958040F462
:1023000080703060FFF7ECFB0546306810F4806F9A
:1023100040F09D80FFF7E4FB401B0228F5D981E0E7
:10232000306810F4003F3FF483AF606800287FF40A
:102330007FAF42E1306810F4806F03D0E06800287E
:1023400000F03B813868216920F0FE4040EA0160DE
:102350003860CC480068FFF7DBFB002840F02D8197
:1023600069E720F00100C7F89000FFF7B9FB0546C8
:10237000D7F8900010F0020F05D0FFF7B1FB401B1B
:102380000228F5D94EE02078400740F1AA80786D08
:1023900010F0805F0BD1786D4FF0010840F0805055
:1023A0007865786D00F080500090009801E04FF063
:1023B0000008B54E4846805910F4807F12D1494636
:1023C000885940F480708851FFF78AFB05464846DB
:1023D000805910F4807F05D1FFF782FB401B022853
:1023E000F5D91FE0A668012E07D0D7F88C00052E7E
:1023F00053D140F00400C7F88C00D7F88C0040F0AF
:102400000100C7F88C00FFF76BFB054641F28836E8
:10241000D7F88C0010F0020F5CD1FFF761FB401B76
:10242000B042F5D90320C9E020F480703060FFF796
:1024300057FB05464846006810F4806F3FF4FBAE3A
:10244000FFF74EFB411B03200229F3D9B6E03868A1
:10245000216920F0FE4040EA01603860EBE620F49C
:102460008030C8F80000D8F8000020F48020C8F8B8
:102470000000FFF735FB002E054646467FF41FAFF0
:102480004E46306810F4003F3FF4D2AEFFF728FB11
:10249000411B03206429F3D990E020F00100C7F824
:1024A0008C00D7F88C0020F00400C7F88C00FFF7F0
:1024B00017FB0546002EA9D141F28836D7F88C00CB
:1024C00010F0020F06D0FFF70BFB411B0320B142B7
:1024D000F4D973E0B8F1000F1EBF786D20F0805082
:1024E0007865207880062DD5A169D7F8940091B140
:1024F00040F00100C7F89400FFF7F2FA0546D7F85C
:10250000940010F0020F1DD1FFF7EAFA411B0320DF
:102510000229F4D952E020F00100C7F89400FFF737
:10252000DFFA0546D7F8940010F0020F0AD0FFF743
:10253000D7FA411B03200229F4D93FE000100240E2
:1025400004100240E669002E00F09A80786800F0DE
:102550000C000C2836D1012E2FD0B868216A00F06B
:1025600003028A4229D1616A6FF00F0202EB011166
:1025700000F0F0028A4220D1A16A00F4FE42B2EBE0
:10258000012F1AD1E16A00F07842B2EBC16F14D189
:10259000216B404A02EA015100F4C002A1F500118A
:1025A0008A420AD1616B4FF07E4200F0C06002EABD
:1025B000016101F17E41884262D00120C0B201B0C8
:1025C000BDE8F0834946086820F080700860FFF796
:1025D00087FA0546022E0BD14846006810F0007FAE
:1025E00012D0FFF77DFA411B03200229F4D9E5E759
:1025F0004846006810F0007F3ED0FFF771FA411B9B
:1026000003200229F4D9D9E704F12006B8686FF055
:102610000F054ECE05EB02121D4D28400843216BDD
:1026200010431C4A40EA032002EA01514FF07E4267
:10263000A1F500110843616B40EAC66002EA01613E
:1026400001F17E4108434946B860086840F0807057
:102650000860B86840F08070B860FFF741FA04463F
:102660004846006810F0007F0AD1FFF739FA011BD5
:1026700003200229F4D9A1E7B86804490840B860EA
:1026800000209BE7000000200060FEFFFCFFEEFE44
:102690000C809F010000E0FFB0B5044634B1606AD1
:1026A00030B10020206104F1140007E00120B0BD2A
:1026B0006068B0F5827F03D004F11C000021016046
:1026C0000020A06294F85D1021B984F85C002046D7
:1026D00000F054F8022084F85D002068016821F0C1
:1026E00040010160D4F80CE0BEF5E06F05D94FF071
:1026F000000CBEF5706F03D104E04FF4805C01D094
:102700000023A362D4E90132D4E9041503F48273EF
:1027100002F4044201F002011A43114305F00102E0
:102720001143A26902F400731943E36903F038030B
:102730001943236A03F080031943A36A03F4005387
:102740001943042301600EF4706103EA124241EA66
:102750000C01636B1143626A02F01002114303F033
:10276000080211434160C16921F40061C161002088
:102770000121206684F85D10B0BD000010B586B060
:10278000044601A81421FDF77BFD20681249884208
:1027900020D1FD48416941F480514161416901F412
:1027A000805100910099016841F001010160A02170
:1027B000006800F001000090009802200290019152
:1027C0000121CDE90310052001A905904FF09040AB
:1027D000FFF7B0F806B010BD003001402DE9FC4114
:1027E0001D4616460F460446FFF77AF9804694F8D0
:1027F0005D00012806D101202FB126B194F85C00BC
:10280000012804D10220C0B202B0BDE8F08103204B
:10281000012184F85D0000202066E68784F85C10C2
:10282000A763A6872064A4F84400C4E91300A4F8B1
:102830004600A1682068B1F5004F07D1016821F07A
:1028400040010160016841F480410160016811F0BC
:10285000400F02BF016841F0400101606268711ED3
:10286000E368B1FA81F1B2FA82F24909B3F5E06F97
:102870004FEA521241EA020122D931B137F8021B64
:10288000C160A763E08F0138E0876E1C14E0206808
:10289000816811F0020F07D1FFF722F966B1A0EBB2
:1028A0000800A84208D366E0A16B31F8022BC26091
:1028B000A163E08F0138E087E08F0028E7D13BE09B
:1028C00099B1E18F022908D337F8021BC160A763D1
:1028D0004FF6FE71E08F084406E039780173A06B73
:1028E0000130A063E08F0138E0876E1C4FF6FE7761
:1028F0001FE02068816811F0020F07D1FFF7F0F8A0
:10290000BEB1A0EB0800A84213D334E0A16BE28F64
:10291000022A06D331F8022BC260A163E08F38444B
:1029200006E009780173A06B0130A063E08F0138E5
:10293000E087E08F0028DCD120462946424600F09F
:102940009AFC08B120202066A06838B900200190C8
:102950002068C1680191806801900198012084F885
:102960005D00002084F85C00206E002818BF012064
:1029700002B0BDE8F081002084F85C00012084F8FA
:102980005D0003203FE70000411E0020B0EB116F07
:102990001CBF01207047044AF023516003490B70AB
:1029A000072190601160704710E000E023ED00E027
:1029B00090F88410012901D1022112E02421C0F8ED
:1029C000881002681368116821F0010123F0005398
:1029D0001160002141661360202280F88410C0F845
:1029E0008820C8B27047B0B5044694F88400012826
:1029F00001D102201BE02420C4F88800012084F8C3
:102A0000840020680568026822F001020260826882
:102A100022F0606211438160204600F04FFD206883
:102A200020210560002084F88400C4F88810C0B21A
:102A3000B0BDB0B5044694F88400012801D102204D
:102A40001BE02420C4F88800012084F8840020685A
:102A50000568026822F001020260826822F060428A
:102A600011438160204600F029FD20682021056087
:102A7000002084F88400C4F88810C0B2B0BD10B53E
:102A80000446D4B1D4F8880028B9002084F8840022
:102A9000204600F027F82420C4F888002068016848
:102AA00021F001010160A06A10B1204600F030FD64
:102AB000204600F023FE012801D1012010BD20682E
:102AC000416821F490414160816821F02A018160D0
:102AD000016841F0010101602046BDE8104000F0AE
:102AE00081BD0000F0B59BB0044616A81421FDF787
:102AF000C7FB01A85421FDF7C3FB20682149884288
:102B00003ED1002501200295019001A8FFF7E6F8CB
:102B100008B1FDF7D9FF1C48022616AC072741690A
:102B200041F480414161416901F480410091009983
:102B3000016841F004010160016801F004010091A5
:102B40000099016841F0010101602146006800F030
:102B50000100009000981796202016909048CDE92B
:102B600018551A97FEF7E6FE4FF4007017962146A7
:102B700016904FF09040CDE918551A97FEF7DAFEFF
:102B80001BB0F0BD003801404C100240FEE7C1F31D
:102B9000045CC1F34061072300EB810003FA0CF3EE
:102BA00002FA0CF2416999431143416170470000F8
:102BB0002DE9F843DFF8F49107462A209846154698
:102BC0000E46C847094C3846A0472846A0472B2048
:102BD000C84706F1220080B2A04708F1220080B267
:102BE000A0472C204946BDE8F84308478D2E000831
:102BF00070B504460020002140F23F12AB230025AF
:102C0000FFF7D6FF0F4960BA02E021F81500013541
:102C1000B5F5A07FF9D14FF0904040210122FEF799
:102C200057FFB54C074DAC2608E0204629464FF427
:102C300020724FF48073FFF7D1FD013E002EF4D1D6
:102C400070BD00BFB002002010B5144602460B460E
:102C5000FFF7AEFF2046BDE8104000F017B90000B6
:102C600070B54F4C4F4E4FF4006100222046B047E4
:102C70004D4D6420A84720464FF400610122B04723
:102C80004FF49670A8474FF090404FF480710022A7
:102C9000B0476420A847454E1120B0473620B047C2
:102CA000434C7020A0473A20B0470520A047B220EF
:102CB000B0470C20A0470C20A0470020A04733209D
:102CC000A0473320A047B720B0473520A047BB20FE
:102CD000B0473520A047C020B0472C20A047C220D5
:102CE000B0470120A047C320B0471320A047C4200D
:102CF000B0472020A047C620B0470F20A047D020D3
:102D0000B047A420A047A120A047D620B047A120CB
:102D1000A047E020B047F020A0470020A0470420B3
:102D2000A0470420A0470420A0470520A047292051
:102D3000A0473320A0473E20A0473820A0471220BC
:102D4000A0471220A0472820A0473020A047E1201C
:102D5000B047F020A0470720A0470A20A0470D2039
:102D6000A0470B20A0470720A0472820A0473320DA
:102D7000A0473E20A0473620A0471420A04714209B
:102D8000A0472920A0473220A0472120B04711208A
:102D9000B0477820A84729203146BDE87040084751
:102DA00000080048D11A000815190008D52E00089F
:102DB000B12E00082DE9F84F064688461C461746F6
:102DC000B6F5987F98BFB8F19C0F01D9BDE8F88F90
:102DD000F01D414682B208F10F0083B23046FFF782
:102DE000E7FEA7F120004FF0000B80B24FEA001A77
:102DF000BBF1100F08BFBDE8F88F0E490AEB0B00BE
:102E00000BEB08074FF000090D5C0CE006EB090026
:102E1000E90780B2B9B20CBF00222246FFF714FFC7
:102E200009F101096D08B9F1080FEFD10BF1010BA0
:102E3000DEE700BF484A00082DE9F8431C46154666
:102E40000E4607464FF010084FF0080918E0B8B2D8
:102E5000B0F5987F84BF18FA86F60027B0B29D2897
:102E600006D34FF47840FFF7C3FE2A7800260027E8
:102E7000B8B2B1B22346FFF79DFF19FA87F70135C3
:102E80002A78002AE3D1BDE8F8830000E0B540BA13
:102E900040210122ADF806004FF09040FEF718FEE9
:102EA000D7480DF1060102220A23FFF797FC8CBDDB
:102EB000E0B58DF807004FF0904040210122FEF769
:102EC00007FECF480DF1070101220A23FFF786FC18
:102ED0008CBD00BFE0B58DF807004FF09040402159
:102EE0000022FEF7F5FDC6480DF1070101220A2375
:102EF000FFF774FC8CBD00BFB8010020F8B5084F87
:102F000014460D46064606AA19460092384600F0B9
:102F100017FF304629463A462346FFF78DFFF8BD96
:102F20006C00002010B58CB0002401A820210B9467
:102F3000CDE90944FDF7A4F94E484FF440314FF074
:102F4000A04201234FF0040CC0E900214FF480712E
:102F5000C0E90244C0E90443C0F818C081830921D4
:102F600001624FF4805180F82440C0E90B4480F89E
:102F70003830C16380F84040FEF7A6F908B1FDF78C
:102F8000A3FD3C4809A90994FDF704FE08B1FDF72B
:102F90009BFD062001A9CDE902007F2004900420BA
:102FA000059000200690344801903248FDF77CFEE1
:102FB00008B1FDF789FD0C2001A902902F4801906E
:102FC0002C48FDF771FE08B1FDF77EFD122001A926
:102FD00002902B4801902748FDF766FE08B1FDF7E7
:102FE00073FD182001A90290264801902148FDF7A1
:102FF0005BFE08B1FDF768FD4FF4807001A90290F7
:10300000214801901B48FDF74FFE08B1FDF75CFD1C
:103010004FF4837001A902901C4801901548FDF7F8
:1030200043FE08B1FDF750FD4FF4867001A90290F0
:10303000174801900F48FDF737FE08B1FDF744FD32
:103040004FF4897001A90290124801900948FDF7D8
:103050002BFE08B1FDF738FD4FF48C7001A90290EA
:103060000D4801900348FDF71FFE08B1FDF72CFD48
:103070000CB010BDEC0000208000501D4000201955
:103080000002B025020030040800900C0400600823
:103090000008302E2000F0141000C010E0B50E48DB
:1030A0000022016841F004010160016801F004019F
:1030B00001910199016841F001010160002100685E
:1030C00000F00100009000980B20FEF76BFD0B2034
:1030D000BDE88C40FEF758BD481002402DE9F04F86
:1030E00087B04FF0000B2E482E4E00224FF4A878E8
:1030F000CDF818B0016841F020010160016801F0CD
:10310000200101910199016841F004010160016809
:1031100001F0040101910199016841F00101016090
:10312000016801F0010101910199016841F002017A
:1031300001604FF4A871006800F00200019001984E
:103140004FF09040B047184C4FF4056100224FF407
:10315000056904F580652846B04720464AF6A8214F
:1031600000224AF6A82AB04702AE104F01244FF0C1
:1031700090403146CDE90284CDE904BBB8472846EA
:103180003146CDE90294CDE904BBB8470648314643
:10319000CDE902A4CDE904BBB84707B0BDE8F08F84
:1031A0004C100240D11A00080004004835190008EC
:1031B00070B51348134A4FF4827C4FF400434FF428
:1031C000E0614FF0020E01244FF400751826C0E9AB
:1031D000002CC0E9023100210722C0E904E4C0E963
:1031E0000656C0E90811C0E90A12C0E90C11FFF740
:1031F00053FA002814BFBDE8704070BDFDF764BCF1
:10320000B80100200030014010B5174C17494FF4A9
:10321000E13000220C23C4E9001004F1180014214D
:10322000C4E90222C4E90423FDF72AF82046FFF787
:1032300026FC08B1FDF748FC0B480021FFF7F9FB1D
:1032400008B1FDF741FC08480021FFF7CCFB08B1AD
:10325000FDF73AFC0448FFF7ABFB002814BFBDE8BC
:10326000104010BDFDF730BC1C02002000380140AA
:10327000FEE7FEE7704770B515460E464FF4C051A5
:10328000044632462B4600F019F868B9204631460C
:103290002A4600F07BF838B920464FF4C061324628
:1032A0002B4600F00BF830B1206E40F02000206675
:1032B0000320C0B270BD0020FBE700002DE9FE43F3
:1032C000804600201E4617460D468DF80700FEF783
:1032D00007FC301AC419FEF703FC81465448232129
:1032E000D8F80060013700684843000D6043029041
:1032F000304617E0B5F5C06F02BF317B8DF807107F
:103300009DF8071077B1FEF7EBFBA0EB0900A04298
:1033100010D20298029901390028029108BF044690
:10332000D8F8000081682942E4D10020C0B203B07F
:10333000BDE8F083D8F80000416821F0E001416069
:10334000D8F80410B1F5827F0BD1D8F80810B1F588
:10335000004F02D0B1F5806F03D1016821F0400128
:103360000160D8F82810B1F5005F07D1016821F499
:1033700000510160016841F400510160002088F8AB
:103380005C00012088F85D000320CFE7F8B5154602
:103390000E460446FEF7A4FB281A8719FEF7A0FB89
:1033A0000546234801360068C0F3CB3078430090CF
:1033B0000CE05EB1FEF794FB401BB8420FD20098C0
:1033C000009901390028009108BF074620688068ED
:1033D00010F0800FEDD10020C0B201B0F0BD206828
:1033E000416821F0E00141606168B1F5827F0AD156
:1033F000A168B1F5004F02D0B1F5806F03D101682B
:1034000021F040010160A16AB1F5005F07D10168B8
:1034100021F400510160016841F400510160002075
:1034200084F85C00012084F85D000320D4E700BF2D
:103430000C0000207047FEF757BB70B594B006AC87
:10344000142104F10800FCF71BFF01A81421FCF76C
:1034500017FF00200025FEF7E1FB01200326552180
:1034600006904FF48030079002200D90CDE90E6653
:10347000CDE91010CDE912002046FEF7CDFE18B1BF
:10348000EFF3108072B6FEE70F2002960421019040
:1034900001A8CDE903550595FEF770FD18B1EFF3CE
:1034A000108072B6FEE714B070BD000002480168DB
:1034B00041F470010160704788ED00E0416ED9B1C0
:1034C00080B50268DFF840C0DFF840E09168C1F3E2
:1034D000426192681CF801301EF80110520FC900B9
:1034E000B1FBF3F11CF802301EF80220D200B2FB4F
:1034F000F3F2BDE8804001E001220121A0F868104C
:10350000A0F86A20704700BF4050000838500008FB
:10351000816A11F0080F08D002685368D0F838C0EB
:1035200023F4004343EA0C035360CA0708D002683F
:103530005368D0F82CC023F4003343EA0C035360E3
:103540008A0708D502685368D0F830C023F4803366
:1035500043EA0C0353604A0708D502685368D0F861
:1035600034C023F4802343EA0C035360CA0608D511
:1035700002689368D0F83CC023F4805343EA0C03FC
:1035800093608A0608D502689368D0F840C023F497
:10359000005343EA0C03936080B54A0615D5D0F872
:1035A00000E0DEF804C0436C2CF48012B3F5801FF9
:1035B00042EA0302CEF8042007D1DEF80420836C2F
:1035C00022F4C0021A43CEF804200906BDE8804068
:1035D00058BF704701684A68C06C22F4002210434B
:1035E00048607047BCB504460020C4F89000FEF760
:1035F00077FA05462068016811F0080F18D02748AF
:103600004FF4001100222B460090204600F09EF956
:1036100068B1206850E8000F216820F0800041E880
:103620000002002AF5D12020C4F8880025E0206897
:10363000006810F0040F22D018484FF480010022D7
:103640002B460090204600F081F9C0B1206850E878
:10365000000F216820F4907041E80002002AF5D1A3
:10366000206850E8020F216820F0010041E80202C2
:10367000002AF5D12020C4F88C00032007E0202088
:10368000C4F88800C4F88C000020E06620670021A0
:10369000C0B284F8841002B0B0BD00BFFFFFFF01CC
:1036A000016851E8001F026821F4907142E800139C
:1036B000002BF5D110B5104C026852E8022F0368B8
:1036C000224043E802210029F6D1C16E0129BDE85C
:1036D000104009D1016851E8001F026821F0100173
:1036E00042E80013002BF5D12021C0F88C100021F6
:1036F0004167C166704700BFFEFFFFEF70B504462B
:10370000854D874E2168A068D4E90423104340EA20
:103710000302E0690B6802432B401A430A604A68BF
:10372000E36822F440521A437C4B4A60A2699942F2
:103730001CBF256A2A438D682E407A4D32438A6029
:10374000A942CE6A626A26F00F0646EA0206CE62F7
:103750001CD0754DA9421BD0744DA9421AD0744D8E
:10376000A94219D0994219D0724DA94240F058800F
:10377000714B72491B6801F5806183F0020303F00D
:10378000030343EA830321FA03F515E0022506E06B
:10379000042504E0062502E0082500E00A25664E1F
:1037A0003668EE40654D86F0020606F0030646EAEE
:1037B0008606F540994222D005F01F03B0F5004F70
:1037C0000ED10120082B00F2A0805D49DFE803F054
:1037D0000558639D5B9D9D9D6100FEF7CBFC54E009
:1037E0000120082B00F291805549DFE803F0056DB8
:1037F000788E708E8E8E7600FEF7BCFC69E005F048
:103800001F030120082B00F280804D49DFE803F000
:10381000057D137D0A7D7D7D1100FEF7ABFC03E085
:103820001025C7E7FEF7C2FC014600296AD0626A8C
:1038300001E04FF400414348656830F8122005EB81
:1038400045060120B1FBF2F3B3425ED32E03B3422F
:103850005BD8084600210023FCF7DAFC09022A465F
:10386000002341EA1061000210EB550041F1000114
:10387000FCF7CEFC344AA0F54071914222D943E0D6
:10388000FEF784FC01E0FEF791FC0146D1B3626AC9
:1038900001E04FF400412B4830F81200B1FBF0F08A
:1038A00061684A0802EB40004FF6EF72B0FBF1F09E
:1038B000A0F11001914227D84FF6F0710140C0F3FA
:1038C0004200084321681CE0FEF760FC01E0FEF7BF
:1038D0006DFC0146B1B1626A01E04FF40041194844
:1038E00030F812004FF6EF72B1FBF0F0616800EBB8
:1038F0005100B0FBF1F0A0F11001914204D8216811
:1039000080B2C860002000E001204FF001120021C9
:10391000A266C4E91D1170BDF369FFCF00800040AD
:10392000FFF4FF110044004000480040004C0040FC
:10393000005000400038014088100240020102009F
:103940000024F400304A0008FFFC0F002DE9F84382
:103950000446DDF82090984616460F46206809F187
:103960000105C1693940C91BB1FA81F14909B14268
:103970002AD1002DF5D0FEF7B3F80321B9F1000FDD
:1039800023D0A0EB080048451FD82068016811F03B
:10399000040FE6D0402F18BF802FE2D0C16911F08C
:1039A000080F16D1C16911F4006FDAD04FF400612D
:1039B00001622046FFF774FE0020032184F8840092
:1039C0002020C4F8900000E00021C8B201B0BDE89A
:1039D000F083082505622046FFF762FE00200121E2
:1039E00084F88400C4F89050EFE700002DE9F0411E
:1039F0002DED088BDFF8D482234F0C4605460026B8
:103A0000B3EE068AB2EE049AB3EE0EAAA642A4BFA3
:103A1000BDEC088BBDE8F08105EB860090ED000A57
:103A2000B4EEC80AF1EE10FA17DA98ED001AB4EE07
:103A3000C81AF1EE10FA10DAB0EE41BA3BEE09BA4C
:103A4000B4EEC8BAF1EE10FAF8DBB4EECABAF1EE91
:103A500010FAC8BFB0EE4ABA06E0B4EECA0AF1EEF8
:103A600010FAC8BF98ED00BA07EBC601B4EEC0BAB1
:103A700057F83600F1EE10FA8988D4BF00220122EF
:103A8000FEF726F80136C1E748500008FEE70000BF
:103A900070B52DED048B9FED169A164EB0EE408A50
:103AA000002500241DE096ED000A30EE480A10EED5
:103AB000100AFCF7F0FB41EC100B00F053F951EC4D
:103AC000100BFCF7FBFB00EE100A0436B4EEC09AB4
:103AD000F1EE10FAC8BF2C4605F10105C8BFB0EEE3
:103AE000409AF12DDFD12046BDEC048B70BD00BFA4
:103AF000C2BDF07C705000082DE9F84F2DED047B1D
:103B0000FDF7F8FFFFF799FCFFF7E8FAFFF7C6FAB1
:103B1000FFF74EFBFFF706FAFFF776FBFFF7A0F87B
:103B200000204FF0000BFFF763F8654C7F21204623
:103B3000FCF7E2FF634D204609222946FDF75EFDB2
:103B4000634E9FED618A72A40FF2D0180FF2D8195C
:103B50000FF2E01ABBF1090F1BD035F81B0005EB83
:103B60008B07BBF1040F00EE100AB8EE400A20EEFE
:103B7000080A87ED0A0A09D8FCF7AAFF87ED050AAB
:103B8000BBF1030F02BF286A504908600BF1010B1B
:103B9000E0E795ED050A10EE100AFCF77CFB41EC1E
:103BA000100B002014214FF478424AA34FF0000B71
:103BB0008DED000BB04795ED060A10EE100AFCF7EC
:103BC0006AFB41EC100B962014214FF4784244A379
:103BD0008DED000BB04795ED070A10EE100AFCF7CB
:103BE0005AFB41EC100B002032211F223FA38DED28
:103BF000000BB04795ED080A10EE100AFCF74BFBDE
:103C000041EC100B962032211F223BA38DED000BBF
:103C1000B04795ED090A10EE100AFCF73CFB41ECA9
:103C2000100B002050211F2236A38DED000BB04752
:103C300005F114000521FFF7D9FE95ED0F0A10EEEE
:103C4000100AFCF728FB41EC100B962050211F2294
:103C500023468DED000BB04795ED100A10EE100ACB
:103C6000FCF719FB41EC100B00206E211F2243468C
:103C70008DED000BB04795ED110A10EE100AFCF720
:103C80000AFB41EC100B96206E211F224B468DED56
:103C9000000BB04795ED120A10EE100AFCF7FBFA84
:103CA00041EC100B00208C211F2253468DED000BA0
:103CB000B047034829460922FDF7A0FC4AE700BFA8
:103CC000EC000020200000203333533A1000002085
:103CD000FD2E00083E2063683120252E326600004C
:103CE0003E2063683220252E326600003E20636845
:103CF0003320252E326600003E2063683420252EB6
:103D0000326600003E2063683520252E32660000B2
:103D10003E2063683620252E326600003E20636810
:103D20003720252E326600003E2063683820252E7D
:103D3000326600003E2063683920252E326600007E
:103D400037B514460846064B6A46214600F0E6F8A9
:103D500004466946002000F078FC20463EBD000085
:103D60004B4600082DED020B019820F00040019019
:103D70009DED000B02B0704702E008C8121F08C199
:103D8000002AFAD170477047002001E001C1121FDC
:103D9000002AFBD1704700002DE9FF5F82B00021AF
:103DA000DDE90430020DDDF840B0034318D044F6DD
:103DB0001050A2F2FF3242431514119801281FD06F
:103DC000A5EB0B00401C5FEA000A4FF000064E4FC7
:103DD000DFF83891B046504615D5CAF1000413E01B
:103DE000119801244AA3012801D16FEA0B0102981E
:103DF000119AC0E90031C0E9024206B0BDE8F09F67
:103E0000CBF10000DFE704460021404A491842EBAD
:103E10000450CDE9001012E0E00707D032463B46DF
:103E200040464946FCF779FB8046894632463B4688
:103E300010461946FCF771FB06460F466410002C2D
:103E4000EAD1DDE90401DDE90023BAF1000F06DA69
:103E5000FCF763FB42464B46FCF75FFB05E0FCF7D3
:103E6000CEFB42464B46FCF7CAFB04460E460022F8
:103E7000284BFCF74BFC03D84FF0FF30014607E01E
:103E80000022254B20463146FCF7A0FAFCF726FC21
:103E9000102409E0002C0ADB0A220023FCF7B8F901
:103EA000039B30321A55641E50EA0102F2D1641CA1
:103EB000039AC4F111031444119A012A03D0012278
:103EC00008430DD10AE0084304D000204FF0110B45
:103ED000119072E7A3EB0B056D1E0DE05B4504DD51
:103EE0004FF0000205F1010504E003DA4FF0000293
:103EF000A5F10105002AECD002981199C0E9023120
:103F0000C0E9004579E70000000014400000F03FE0
:103F1000300000000000F0430000E03F2DE9FF4FBB
:103F200095B09B468946064600250FE2252877D1A5
:103F300000242746F84A0121059400E0044316F8BE
:103F4000013F203B01FA03F01042F7D130782A28D4
:103F500011D06FF02F033078A0F13002092A16D863
:103F6000059A44F0020402EB820203EB4202104481
:103F7000761C0590EFE759F8042B0592002A03DA26
:103F8000504244F40054059044F00204761C30780A
:103F90002E2816D116F8010F44F004042A280DD05B
:103FA0006FF02F023078A0F13003092B09D807EB0E
:103FB000870302EB4303C718761CF3E759F8047B29
:103FC000761C30786C280FD006DC4C2817D0682877
:103FD0000DD06A2814D104E0742810D07A280FD1AB
:103FE0000DE044F400140AE044F4801401E044F4C9
:103FF00040147278824202D104F58014761C761C3B
:10400000307866280BD013DC582877D009DC0028DC
:1040100075D04528F6D04628F4D047281AD19DE11E
:1040200018E0632835D0642879D0652812D195E14D
:10403000702873D008DC6728F1D069286FD06E280B
:104040000DD06F2806D1B5E073282CD0752875D017
:10405000782874D05A46179990476D1C75E1C4F3BF
:104060000250022809D003280DD0D9F800100428E6
:104070000DD00D6009F1040967E1D9F80010EA17C5
:10408000C1E90052F6E7D9F800100D80F2E70D7093
:10409000F0E719F8041B8DF8001000208DF80100DE
:1040A000EA46012003E059F804AB4FF0FF30610706
:1040B0004FF0000102D40DE008F101018846B94239
:1040C0000FDA8045F8DB1AF808100029F4D108E06F
:1040D00008F1010188468142FADB1AF8081000292C
:1040E000F6D105985B46A0EB080721463846179A9B
:1040F00000F094FA284400EB080507E04DE029E1C0
:104100000DE01AF8010B5A4617999047B8F10108CB
:10411000F7D25B4621463846179A13E142E00A225D
:104120000092C4F302524FF0000A022A08D059F854
:1041300004CB032A4FEAEC710AD00DE029E02AE013
:1041400009F1070121F00702F2E802C1914609E0F6
:104150000FFA8CFC4FEAEC71042A03D14FFA8CFC65
:104160004FEAEC71002907DA0A460021DCF1000C65
:1041700061EB02012D2202E0220504D52B228DF8ED
:104180000420012203E0E20701D02022F7E7904655
:1041900059E00A2102E010220DE010214FF0000A40
:1041A00000910BE010224FF0000A44F004040827AD
:1041B000009203E008224FF0000A0092C4F302527A
:1041C000022A05D059F804CB0021032A08D009E0BF
:1041D00009F1070121F00702F2E802C1914605E06A
:1041E0001FFA8CFC042A01D10CF0FF0C4FF00008E0
:1041F000220728D5702806D0009B83F0100353EACD
:104200000A0305D00EE040228DF80420012208E0C8
:104210005CEA010206D030228DF804208DF80500FA
:1042200002229046009B83F0080353EA0A030AD156
:104230005CEA010201D1620705D530228DF8042025
:104240004FF001087F1E582804D034A003900EA818
:1042500002900DE036A0F9E753466046009AFBF75E
:10426000D7FF84460398825C0298401E0290027039
:104270005CEA0100F0D1029806A9081A00F1200AB0
:10428000600702D524F4803400E00127574502DDA1
:10429000A7EB0A0000E0002000EB0A01009005985F
:1042A0004144401A0590E00306D45B462146179A24
:1042B000059800F0B3F90544002706E001A85A4626
:1042C000C05D179990476D1C7F1C4745F6DBE003E6
:1042D0000CD55B462146179A059800F09FF90544D6
:1042E00004E030205A46179990476D1C0099481EEB
:1042F00000900029F5DC08E0029802995A460078FF
:10430000491C0291179990476D1CBAF10001AAF15E
:10431000010AF1DC65E10000092801003031323387
:1043200034353637383961626364656600000000F1
:1043300030313233343536373839414243444546DB
:104340000000000000F058F90544761C3078002881
:104350007FF4ECAD19B02846BDE8F08F620700D4B9
:10436000062709F1070222F0070CFCE80223E146C8
:1043700003F000485FEA080C02D00FF2702C0DE049
:104380005FEA045C02D50FF2682C07E05FEAC47CA8
:1043900002D00FF2602C01E0AFF2700C4FF0FF384A
:1043A00023F00043CDF850C065280CD006DC45282A
:1043B00009D046281DD047283DD13DE0662818D0B9
:1043C00067287ED138E00021112F01DB112000E0A9
:1043D000781CCDE9000106A90EA8FFF7DDFCDDE998
:1043E0000F010E9A03910021009207F1010A049136
:1043F0004DE04FF000400097CDE9011006A90EA84E
:10440000FFF7CAFCDDE90F0203920E9B119900220F
:10441000DDF80CA00093049211B9791C00EB010A9D
:10442000B7EB0A0004D4C0F1FF3007F1010A049091
:10443000AAEB0700019044E0012F00DA01270021D8
:10444000112F01DD112000E03846CDE9000106A959
:104450000EA8FFF7A1FCDDE90F010E9A03910021E0
:1044600004910092BA4621070CD40399514500DA11
:104470008A46BAF1010F05DD009AAAF10101515CEB
:10448000302908D0B84202DA10F1040F06DA01210F
:10449000CDE9011015E0AAF10101E9E7002805DCEA
:1044A000049901440491AAEB000102E0411C51452A
:1044B00000DD8A460499401A401C01904FF00040EC
:1044C0000290200704D40198504501DBCDF8048008
:1044D00000208DF84F0002980DF14F07B0F1004F0A
:1044E00025D02B200E9002984FF0020800280CDAFD
:1044F000404202902D200E9007E00A210298FBF71F
:10450000F9FE3031029007F8011DB8F10001A8F161
:104510000108F2DC02980028EFD1791E0E9808708D
:10452000307800F0200040F0450007F8020D12A896
:10453000C01B00F107081498007800B1012000EBBF
:104540000A01019801EBE07105984144401A401EB0
:104550000590E00306D45B462146179A059800F0C3
:104560005DF805441498007818B15A461799904799
:104570006D1CE00324D55B462146179A059800F090
:104580004DF805441CE00498002807DBDDE9030131
:10459000884203DD0098405C179901E017993020AC
:1045A0005A469047049805F10105401C0490019873
:1045B000401E019004D12E205A46179990476D1C39
:1045C000BAF10001AAF1010ADDDC05E017F8010BE0
:1045D0005A46179990476D1CB8F10001A8F10108DF
:1045E000F4DC5B462146179A0598ABE62D000000E7
:1045F0002B000000200000002DE9F04104460025BA
:104600001E461746880404D405E039462020B047EA
:104610006D1C641EF9D52846BDE8F0812DE9F041F6
:10462000044600251E469046C80301D5302700E009
:104630002027880404D505E041463846B0476D1C64
:10464000641EF9D52846BDE8F0810A68531C0B604A
:104650001070704700000000000000000102030419
:10466000060708090000000001020304000020C240
:1046700000001CC2000018C2000014C2000010C2DA
:1046800000000CC2000008C2000004C2000000C20A
:104690000000F8C10000F0C10000E8C10000E0C166
:1046A0000000D8C10000D0C10000C8C10000C0C1D6
:1046B0000000B8C10000B0C10000A8C10000A0C146
:1046C000000098C1000090C1000088C1000080C1B6
:1046D000000070C1000060C1000050C1000040C176
:1046E000000030C1000020C1000010C1000000C166
:1046F0000000E0C00000C0C00000A0C0000080C0FA
:10470000000040C0000000C0000080BF00000000AA
:104710000000803F0000004000004040000080405A
:104720000000A0400000C0400000E0400000004148
:1047300000001041000020410000304100004041D5
:1047400000005041000060410000704100008041C5
:104750000000884100009041000098410000A04105
:104760000000A8410000B0410000B8410000C04175
:104770000000C8410000D0410000D8410000E041E5
:104780000000E8410000F0410000F8410000004254
:10479000000004420000084200000C4200001042E9
:1047A000000014420000184200001C420000204299
:1047B000000024420000284200002C420000304249
:1047C000000034420000384200003C4200004042F9
:1047D000000044420000484200004C4200005042A9
:1047E000000054420000584200005C420000604259
:1047F000000064420000684200006C420000704209
:10480000000074420000784200007C4200008042B8
:10481000000082420000844200008642000088427C
:1048200000008A4200008C4200008E42000090424C
:10483000000092420000944200009642000098421C
:1048400000009A4200009C4200009E420000A042EC
:104850000000A2420000A4420000A6420000A842BC
:104860000000AA420000AC420000AE420000B0428C
:104870000000B2420000B4420000B6420000B8425C
:104880000000BA420000BC420000BE420000C0422C
:104890000000C2420000C4420000C6420000C842FC
:1048A0000000CA420000CC420000CE420000D042CC
:1048B0000000D2420000D4420000D6420000D8429C
:1048C0000000DA420000DC420000DE420000E0426C
:1048D0000000E2420000E4420000E6420000E8423C
:1048E0000000EA420000EC420000EE420000F0420C
:1048F0000000F2420000F4420000F6420000F842DC
:104900000000FA420000FC420000FE4200000043AA
:104910000000014300000243000003430000044381
:104920000000054300000643000007430000084361
:104930000000094300000A4300000B4300000C4341
:1049400000000D4300000E4300000F430000104321
:104950000000114300001243000013430000144301
:1049600000001543000016430000174300001843E1
:104970000000194300001A4300001B4300001C43C1
:1049800000001D4300001E4300001F4300002043A1
:104990000000214300002243000023430000244381
:1049A0000000254300002643000027430000284361
:1049B0000000294300002A4300002B4300002C4341
:1049C00000002D4300002E4300002F430000304321
:1049D0000000314300003243000033430000344301
:1049E00000003543000036430000374300003843E1
:1049F0000000394300003A4300003B4300003C43C1
:104A000000003D4300003E4300003F4300004043A0
:104A10000000414300004243000043430000444380
:104A20000000454300004643000047430000484360
:104A3000010002000400060008000A000C0010003B
:104A40002000400080000001000000000000000085
:104A5000000000000000000000000008080808082E
:104A6000080800001818000000486C24120000001C
:104A700000000000000000000000002424247F1239
:104A800012127F12121200000000081C2A2A0A0CBF
:104A90001828282A2A1C08080000002225151515A8
:104AA0002A585454542200000000000C1212120A1A
:104AB00076252911916E000000060604030000000F
:104AC000000000000000000000402010100808084E
:104AD00008080810102040000002040808101010F8
:104AE00010101008080402000000000008086B1CE9
:104AF0001C6B0808000000000000000008080808FF
:104B00007F08080808000000000000000000000006
:104B10000000000006060403000000000000000082
:104B2000FE00000000000000000000000000000087
:104B30000000000006060000000080404020201019
:104B40001008080404020200000000182442424237
:104B50004242424224180000000000080E080808E3
:104B600008080808083E00000000003C42424220BD
:104B700020100804427E00000000003C4242201841
:104B800020404042221C0000000000203028242445
:104B900022227E20207800000000007E0202021AFD
:104BA00026404042221C0000000000382402021A65
:104BB00026424242241800000000007E22221010EB
:104BC00008080808080800000000003C424242248F
:104BD00018244242423C0000000000182442424295
:104BE00064584040241C0000000000000000181819
:104BF000000000001818000000000000000000087D
:104C00000000000000080804000000402010080414
:104C100002040810204000000000000000007F0097
:104C200000007F00000000000000000204081020C7
:104C300040201008040200000000003C42424640B0
:104C400020101000181800000000001C225A5555B2
:104C500055552D42221C00000000000808181414AD
:104C6000243C224242E700000000001F2222221EB4
:104C700022424242221F00000000007C4242010109
:104C800001010142221C00000000001F224242429A
:104C900042424242221F00000000003F4212121E08
:104CA00012120242423F00000000003F4212121E58
:104CB00012120202020700000000003C2222010141
:104CC00001712122221C0000000000E74242424202
:104CD0007E42424242E700000000003E0808080809
:104CE00008080808083E00000000007C10101010A2
:104CF000101010101010110F0000007722120A0E71
:104D00000A121222227700000000000702020202AB
:104D100002020202427F000000000077363636367B
:104D20002A2A2A2A2A6B0000000000E346464A4A43
:104D300052525262624700000000001C2241414171
:104D400041414141221C00000000003F42424242DA
:104D50003E020202020700000000001C2241414105
:104D600041414D53321C60000000003F4242423E30
:104D70001212222242C700000000007C42420204BC
:104D800018204042423E00000000007F4908080809
:104D900008080808081C0000000000E742424242E0
:104DA00042424242423C0000000000E742422224CC
:104DB00024141418080800000000006B49494949F0
:104DC0005555362222220000000000E74224241814
:104DD0001818242442E7000000000077222214144F
:104DE00008080808081C00000000007E21201010A0
:104DF00008040442423F0000007808080808080838
:104E000008080808080878000000020204040808DE
:104E10000810102020204040001E1010101010100C
:104E20001010101010101E00003844000000000088
:104E30000000000000000000000000000000000072
:104E400000000000000000FF000608000000000055
:104E50000000000000000000000000000000003C16
:104E60004278444242FC0000000000030202021AA1
:104E700026424242261A00000000000000000038CE
:104E800044020202443800000000006040404078C4
:104E90004442424264D80000000000000000003C90
:104EA000427E0202423C0000000000F08808087EBA
:104EB00008080808083E0000000000000000007C10
:104EC00022221C023C42423C000000030202023A41
:104ED0004642424242E700000000000C0C00000E77
:104EE00008080808083E00000000003030000038C4
:104EF000202020202020221E000000030202027237
:104F0000120A1612227700000000000E0808080896
:104F100008080808083E0000000000000000007FAC
:104F20009292929292B70000000000000000003BB5
:104F30004642424242E70000000000000000003C00
:104F400042424242423C0000000000000000001BC0
:104F500026424242221E02070000000000000078A4
:104F600044424242447840E00000000000000077E4
:104F70004C040404041F0000000000000000007C3A
:104F800042023C40423E0000000000000008083E93
:104F90000808080808300000000000000000006356
:104FA0004242424262DC000000000000000000E7D4
:104FB000422424140808000000000000000000EB58
:104FC00049495555222200000000000000000076EB
:104FD00024181818246E000000000000000000E7EC
:104FE0004224241418080807000000000000007E76
:104FF00022100808447E000000C02020202020103D
:10500000202020202020C0001010101010101010A0
:1050100010101010101010100006080808080810D2
:1050200008080808080806000C32C200000000004A
:105030000000000000000000010101030701000062
:1050400008040204080101010000004810000000EB
:105050000004004800020000000400488000000036
:105060000004004820000000000400480800000080
:105070009A998A43CDCC83439A197A43CDCC6C4319
:1050800000006043008053439A9947439A193C4378
:10509000CD4C31430000274333331D439A19144349
:1050A00066660B43CD4C03436666F7423333E942F1
:1050B0000000DC426666CF42CDCCC3420000B9425C
:1050C00029DCAE427B94A54248E19C4252B894420E
:1050D0005C0F8D420AD78542F6287E42295C7142D8
:1050E000EC51654200005A42AE474F42B81E45425D
:1050F0005C8F3B42E17A324285EB2942CDCC2142A2
:10510000B81E1A42CDCC124248E10B42EC51054286
:10511000F628FE410000F2415C8FE6419A99DB419E
:10512000AE47D1411F85C741F628BE41295CB54134
:10513000C3F5AC413D0AA541A4709D41713D964126
:10514000A4708F41C3F58841CDCC824185EB794174
:1051500048E16E41F62864417B145A41D7A350417F
:105160001F85474152B83E415C8F36415C8F2E41CE
:1051700033332741000020413333194152B81241E3
:10518000448B0C41F0A7064125060141295CF740FC
:10519000B81EED405A64E3407B14DA404C37D140EE
:1051A0006ABCC840D7A3C04060E5B8403789B14069
:1051B000C976AA4077BEA340AE479D40D122974012
:1051C0007D3F9140B29D8B40713D86408716814066
:1051D000EC51784079E96E4054E365407D3F5D4095
:1051E000F4FD5440560E4D40068145403F353E404B
:1051F000643B3740759330400E2D2A40931824406D
:105200003F351E4075931840D1221340B6F30D4030
:105210002506094058390440643BFF3F2B87F63F81
:105220007B14EE3F54E3E53F7B14DE3FF0A7D63F0F
:10523000EE7CCF3F7593C83F85EBC13F1F85BB3FD9
:105240004260B53FEE7CAF3F5EBAA93F1D5AA43F16
:10525000A01A9F3FE7FB993FB81E953F4E62903FD3
:105260006DE78B3F508D873FBC74833F17D97E3FDE
:105270007424773F5BB16F3F5986683F5396613F17
:1052800048E15A3F3867543F96214E3FF016483F59
:105290002A3A423FD1913C3F5917373FC1CA313F6B
:1052A0007AA52C3F82E2273FC139233FC4B11E3F7C
:1052B000FE431A3FFDF6153F33C4113F2DB20D3F9B
:1052C0005EBA093FC6DC053FF31F023FADFAFC3E64
:1052D000E2E9F53E840DEF3E9565E83EF7E4E13EF8
:1052E000E3A5DB3E228ED53EB29DCF3ECCEEC93E3D
:1052F0001D5AC43EDBF9BE3EECC0B93E6ABCB43EAA
:1053000020D2AF3E280FAB3EB98DA63E8126A23EED
:105310007FD99D3ED0B3993E74B5953E4ED1913E16
:105320005F078E3EA8578A3E42CF863EF853833EA3
:105330000000803E7E8C793E3333733E8D286D3E77
:105340001D38673E1C7C613E88F45B3E2B87563ED1
:105350003C4E513E832F4C3E3945473E5C8F423E8A
:10536000B6F33D3E4772393E4625353E7CF2303E2F
:10537000E8D92C3EC3F5283E9D11253EE561213E2E
:1053800064CC1D3E1A511A3E07F0163EF38E133EB2
:105390004E62103EA8350D3E713D0A3E3945073E2E
:1053A0003867043E3789013E48BFFD3D226CF83D19
:1053B000FC18F33DB22EEE3D6744E93D1D5AE43D35
:1053C00040A4DF3DD122DB3D62A1D63D6154D23DF8
:1053D0005F07CE3DCCEEC93D39D6C53D13F2C13D88
:1053E000ED0DBE3DC729BA3D107AB63D58CAB23D53
:1053F0000E4FAF3DC3D3AB3D7958A83D9D11A53DA0
:10540000C1CAA13DE4839E3D76719B3D992A983D9A
:10541000984C953D2A3A923D295C8F3D287E8C3DE3
:1054200027A0893D27C2863D9318843D933A813D4C
:10543000DB8A7D3D60540008000000202000000051
:10544000783D00088054000820000020100900006A
:10545000883D00080000000000000000000000007F
:105460001000000001000000000000000024F40013
:105470000000C84100000000000000000000000023
:04000005080001D915
:00000001FF
